{
	"DiplomaToken.sol": {
		"DiplomaToken": {
			"abi": [
				{
					"inputs": [],
					"stateMutability": "nonpayable",
					"type": "constructor"
				},
				{
					"anonymous": false,
					"inputs": [
						{
							"indexed": true,
							"internalType": "address",
							"name": "owner",
							"type": "address"
						},
						{
							"indexed": true,
							"internalType": "address",
							"name": "approved",
							"type": "address"
						},
						{
							"indexed": true,
							"internalType": "uint256",
							"name": "tokenId",
							"type": "uint256"
						}
					],
					"name": "Approval",
					"type": "event"
				},
				{
					"anonymous": false,
					"inputs": [
						{
							"indexed": true,
							"internalType": "address",
							"name": "owner",
							"type": "address"
						},
						{
							"indexed": true,
							"internalType": "address",
							"name": "operator",
							"type": "address"
						},
						{
							"indexed": false,
							"internalType": "bool",
							"name": "approved",
							"type": "bool"
						}
					],
					"name": "ApprovalForAll",
					"type": "event"
				},
				{
					"anonymous": false,
					"inputs": [
						{
							"indexed": true,
							"internalType": "address",
							"name": "previousOwner",
							"type": "address"
						},
						{
							"indexed": true,
							"internalType": "address",
							"name": "newOwner",
							"type": "address"
						}
					],
					"name": "OwnershipTransferred",
					"type": "event"
				},
				{
					"anonymous": false,
					"inputs": [
						{
							"indexed": true,
							"internalType": "address",
							"name": "from",
							"type": "address"
						},
						{
							"indexed": true,
							"internalType": "address",
							"name": "to",
							"type": "address"
						},
						{
							"indexed": true,
							"internalType": "uint256",
							"name": "tokenId",
							"type": "uint256"
						}
					],
					"name": "Transfer",
					"type": "event"
				},
				{
					"inputs": [],
					"name": "MINT_PRICE",
					"outputs": [
						{
							"internalType": "uint256",
							"name": "",
							"type": "uint256"
						}
					],
					"stateMutability": "view",
					"type": "function"
				},
				{
					"inputs": [
						{
							"internalType": "address",
							"name": "to",
							"type": "address"
						},
						{
							"internalType": "uint256",
							"name": "tokenId",
							"type": "uint256"
						}
					],
					"name": "approve",
					"outputs": [],
					"stateMutability": "nonpayable",
					"type": "function"
				},
				{
					"inputs": [
						{
							"internalType": "address",
							"name": "owner",
							"type": "address"
						}
					],
					"name": "balanceOf",
					"outputs": [
						{
							"internalType": "uint256",
							"name": "",
							"type": "uint256"
						}
					],
					"stateMutability": "view",
					"type": "function"
				},
				{
					"inputs": [
						{
							"internalType": "uint256",
							"name": "tokenId",
							"type": "uint256"
						}
					],
					"name": "getApproved",
					"outputs": [
						{
							"internalType": "address",
							"name": "",
							"type": "address"
						}
					],
					"stateMutability": "view",
					"type": "function"
				},
				{
					"inputs": [
						{
							"internalType": "address",
							"name": "owner",
							"type": "address"
						},
						{
							"internalType": "address",
							"name": "operator",
							"type": "address"
						}
					],
					"name": "isApprovedForAll",
					"outputs": [
						{
							"internalType": "bool",
							"name": "",
							"type": "bool"
						}
					],
					"stateMutability": "view",
					"type": "function"
				},
				{
					"inputs": [],
					"name": "name",
					"outputs": [
						{
							"internalType": "string",
							"name": "",
							"type": "string"
						}
					],
					"stateMutability": "view",
					"type": "function"
				},
				{
					"inputs": [],
					"name": "owner",
					"outputs": [
						{
							"internalType": "address",
							"name": "",
							"type": "address"
						}
					],
					"stateMutability": "view",
					"type": "function"
				},
				{
					"inputs": [
						{
							"internalType": "uint256",
							"name": "tokenId",
							"type": "uint256"
						}
					],
					"name": "ownerOf",
					"outputs": [
						{
							"internalType": "address",
							"name": "",
							"type": "address"
						}
					],
					"stateMutability": "view",
					"type": "function"
				},
				{
					"inputs": [],
					"name": "renounceOwnership",
					"outputs": [],
					"stateMutability": "nonpayable",
					"type": "function"
				},
				{
					"inputs": [
						{
							"internalType": "address",
							"name": "to",
							"type": "address"
						}
					],
					"name": "safeMint",
					"outputs": [],
					"stateMutability": "payable",
					"type": "function"
				},
				{
					"inputs": [
						{
							"internalType": "address",
							"name": "from",
							"type": "address"
						},
						{
							"internalType": "address",
							"name": "to",
							"type": "address"
						},
						{
							"internalType": "uint256",
							"name": "tokenId",
							"type": "uint256"
						}
					],
					"name": "safeTransferFrom",
					"outputs": [],
					"stateMutability": "nonpayable",
					"type": "function"
				},
				{
					"inputs": [
						{
							"internalType": "address",
							"name": "from",
							"type": "address"
						},
						{
							"internalType": "address",
							"name": "to",
							"type": "address"
						},
						{
							"internalType": "uint256",
							"name": "tokenId",
							"type": "uint256"
						},
						{
							"internalType": "bytes",
							"name": "data",
							"type": "bytes"
						}
					],
					"name": "safeTransferFrom",
					"outputs": [],
					"stateMutability": "nonpayable",
					"type": "function"
				},
				{
					"inputs": [
						{
							"internalType": "address",
							"name": "operator",
							"type": "address"
						},
						{
							"internalType": "bool",
							"name": "approved",
							"type": "bool"
						}
					],
					"name": "setApprovalForAll",
					"outputs": [],
					"stateMutability": "nonpayable",
					"type": "function"
				},
				{
					"inputs": [
						{
							"internalType": "bytes4",
							"name": "interfaceId",
							"type": "bytes4"
						}
					],
					"name": "supportsInterface",
					"outputs": [
						{
							"internalType": "bool",
							"name": "",
							"type": "bool"
						}
					],
					"stateMutability": "view",
					"type": "function"
				},
				{
					"inputs": [],
					"name": "symbol",
					"outputs": [
						{
							"internalType": "string",
							"name": "",
							"type": "string"
						}
					],
					"stateMutability": "view",
					"type": "function"
				},
				{
					"inputs": [
						{
							"internalType": "uint256",
							"name": "tokenId",
							"type": "uint256"
						}
					],
					"name": "tokenURI",
					"outputs": [
						{
							"internalType": "string",
							"name": "",
							"type": "string"
						}
					],
					"stateMutability": "view",
					"type": "function"
				},
				{
					"inputs": [
						{
							"internalType": "address",
							"name": "from",
							"type": "address"
						},
						{
							"internalType": "address",
							"name": "to",
							"type": "address"
						},
						{
							"internalType": "uint256",
							"name": "tokenId",
							"type": "uint256"
						}
					],
					"name": "transferFrom",
					"outputs": [],
					"stateMutability": "nonpayable",
					"type": "function"
				},
				{
					"inputs": [
						{
							"internalType": "address",
							"name": "newOwner",
							"type": "address"
						}
					],
					"name": "transferOwnership",
					"outputs": [],
					"stateMutability": "nonpayable",
					"type": "function"
				}
			],
			"devdoc": {
				"kind": "dev",
				"methods": {
					"approve(address,uint256)": {
						"details": "See {IERC721-approve}."
					},
					"balanceOf(address)": {
						"details": "See {IERC721-balanceOf}."
					},
					"getApproved(uint256)": {
						"details": "See {IERC721-getApproved}."
					},
					"isApprovedForAll(address,address)": {
						"details": "See {IERC721-isApprovedForAll}."
					},
					"name()": {
						"details": "See {IERC721Metadata-name}."
					},
					"owner()": {
						"details": "Returns the address of the current owner."
					},
					"ownerOf(uint256)": {
						"details": "See {IERC721-ownerOf}."
					},
					"renounceOwnership()": {
						"details": "Leaves the contract without owner. It will not be possible to call `onlyOwner` functions anymore. Can only be called by the current owner. NOTE: Renouncing ownership will leave the contract without an owner, thereby removing any functionality that is only available to the owner."
					},
					"safeTransferFrom(address,address,uint256)": {
						"details": "See {IERC721-safeTransferFrom}."
					},
					"safeTransferFrom(address,address,uint256,bytes)": {
						"details": "See {IERC721-safeTransferFrom}."
					},
					"setApprovalForAll(address,bool)": {
						"details": "See {IERC721-setApprovalForAll}."
					},
					"supportsInterface(bytes4)": {
						"details": "See {IERC165-supportsInterface}."
					},
					"symbol()": {
						"details": "See {IERC721Metadata-symbol}."
					},
					"tokenURI(uint256)": {
						"details": "See {IERC721Metadata-tokenURI}."
					},
					"transferFrom(address,address,uint256)": {
						"details": "See {IERC721-transferFrom}."
					},
					"transferOwnership(address)": {
						"details": "Transfers ownership of the contract to a new account (`newOwner`). Can only be called by the current owner."
					}
				},
				"version": 1
			},
			"evm": {
				"assembly": "    /* \"DiplomaToken.sol\":240:999  contract DiplomaToken is ERC721, Ownable {... */\n  mstore(0x40, 0x80)\n    /* \"DiplomaToken.sol\":404:416  0.0005 ether */\n  0x01c6bf52634000\n    /* \"DiplomaToken.sol\":376:416  uint256 public MINT_PRICE = 0.0005 ether */\n  0x07\n  sstore\n    /* \"DiplomaToken.sol\":516:585  constructor() ERC721(\"DiplomaToken\", \"DTK\") {... */\n  callvalue\n  dup1\n  iszero\n  tag_1\n  jumpi\n  0x00\n  dup1\n  revert\ntag_1:\n  pop\n    /* \"@openzeppelin/contracts@4.7.3/token/ERC721/ERC721.sol\":1390:1503  constructor(string memory name_, string memory symbol_) {... */\n  mload(0x40)\n  dup1\n  0x40\n  add\n  0x40\n  mstore\n  dup1\n  0x0c\n  dup2\n  mstore\n  0x20\n  add\n  0x4469706c6f6d61546f6b656e0000000000000000000000000000000000000000\n  dup2\n  mstore\n  pop\n  mload(0x40)\n  dup1\n  0x40\n  add\n  0x40\n  mstore\n  dup1\n  0x03\n  dup2\n  mstore\n  0x20\n  add\n  0x44544b0000000000000000000000000000000000000000000000000000000000\n  dup2\n  mstore\n  pop\n    /* \"@openzeppelin/contracts@4.7.3/token/ERC721/ERC721.sol\":1464:1469  name_ */\n  dup2\n    /* \"@openzeppelin/contracts@4.7.3/token/ERC721/ERC721.sol\":1456:1461  _name */\n  0x00\n    /* \"@openzeppelin/contracts@4.7.3/token/ERC721/ERC721.sol\":1456:1469  _name = name_ */\n  swap1\n  dup1\n  mload\n  swap1\n  0x20\n  add\n  swap1\n  tag_6\n  swap3\n  swap2\n  swap1\n  tag_7\n  jump\t// in\ntag_6:\n  pop\n    /* \"@openzeppelin/contracts@4.7.3/token/ERC721/ERC721.sol\":1489:1496  symbol_ */\n  dup1\n    /* \"@openzeppelin/contracts@4.7.3/token/ERC721/ERC721.sol\":1479:1486  _symbol */\n  0x01\n    /* \"@openzeppelin/contracts@4.7.3/token/ERC721/ERC721.sol\":1479:1496  _symbol = symbol_ */\n  swap1\n  dup1\n  mload\n  swap1\n  0x20\n  add\n  swap1\n  tag_8\n  swap3\n  swap2\n  swap1\n  tag_7\n  jump\t// in\ntag_8:\n  pop\n    /* \"@openzeppelin/contracts@4.7.3/token/ERC721/ERC721.sol\":1390:1503  constructor(string memory name_, string memory symbol_) {... */\n  pop\n  pop\n    /* \"@openzeppelin/contracts@4.7.3/access/Ownable.sol\":936:968  _transferOwnership(_msgSender()) */\n  tag_10\n    /* \"@openzeppelin/contracts@4.7.3/access/Ownable.sol\":955:967  _msgSender() */\n  tag_11\n    /* \"@openzeppelin/contracts@4.7.3/access/Ownable.sol\":955:965  _msgSender */\n  shl(0x20, tag_12)\n    /* \"@openzeppelin/contracts@4.7.3/access/Ownable.sol\":955:967  _msgSender() */\n  0x20\n  shr\n  jump\t// in\ntag_11:\n    /* \"@openzeppelin/contracts@4.7.3/access/Ownable.sol\":936:954  _transferOwnership */\n  shl(0x20, tag_13)\n    /* \"@openzeppelin/contracts@4.7.3/access/Ownable.sol\":936:968  _transferOwnership(_msgSender()) */\n  0x20\n  shr\n  jump\t// in\ntag_10:\n    /* \"DiplomaToken.sol\":240:999  contract DiplomaToken is ERC721, Ownable {... */\n  jump(tag_15)\n    /* \"@openzeppelin/contracts@4.7.3/utils/Context.sol\":640:736  function _msgSender() internal view virtual returns (address) {... */\ntag_12:\n    /* \"@openzeppelin/contracts@4.7.3/utils/Context.sol\":693:700  address */\n  0x00\n    /* \"@openzeppelin/contracts@4.7.3/utils/Context.sol\":719:729  msg.sender */\n  caller\n    /* \"@openzeppelin/contracts@4.7.3/utils/Context.sol\":712:729  return msg.sender */\n  swap1\n  pop\n    /* \"@openzeppelin/contracts@4.7.3/utils/Context.sol\":640:736  function _msgSender() internal view virtual returns (address) {... */\n  swap1\n  jump\t// out\n    /* \"@openzeppelin/contracts@4.7.3/access/Ownable.sol\":2433:2620  function _transferOwnership(address newOwner) internal virtual {... */\ntag_13:\n    /* \"@openzeppelin/contracts@4.7.3/access/Ownable.sol\":2506:2522  address oldOwner */\n  0x00\n    /* \"@openzeppelin/contracts@4.7.3/access/Ownable.sol\":2525:2531  _owner */\n  0x06\n  0x00\n  swap1\n  sload\n  swap1\n  0x0100\n  exp\n  swap1\n  div\n  0xffffffffffffffffffffffffffffffffffffffff\n  and\n    /* \"@openzeppelin/contracts@4.7.3/access/Ownable.sol\":2506:2531  address oldOwner = _owner */\n  swap1\n  pop\n    /* \"@openzeppelin/contracts@4.7.3/access/Ownable.sol\":2550:2558  newOwner */\n  dup2\n    /* \"@openzeppelin/contracts@4.7.3/access/Ownable.sol\":2541:2547  _owner */\n  0x06\n  0x00\n    /* \"@openzeppelin/contracts@4.7.3/access/Ownable.sol\":2541:2558  _owner = newOwner */\n  0x0100\n  exp\n  dup2\n  sload\n  dup2\n  0xffffffffffffffffffffffffffffffffffffffff\n  mul\n  not\n  and\n  swap1\n  dup4\n  0xffffffffffffffffffffffffffffffffffffffff\n  and\n  mul\n  or\n  swap1\n  sstore\n  pop\n    /* \"@openzeppelin/contracts@4.7.3/access/Ownable.sol\":2604:2612  newOwner */\n  dup2\n    /* \"@openzeppelin/contracts@4.7.3/access/Ownable.sol\":2573:2613  OwnershipTransferred(oldOwner, newOwner) */\n  0xffffffffffffffffffffffffffffffffffffffff\n  and\n    /* \"@openzeppelin/contracts@4.7.3/access/Ownable.sol\":2594:2602  oldOwner */\n  dup2\n    /* \"@openzeppelin/contracts@4.7.3/access/Ownable.sol\":2573:2613  OwnershipTransferred(oldOwner, newOwner) */\n  0xffffffffffffffffffffffffffffffffffffffff\n  and\n  0x8be0079c531659141344cd1fd0a4f28419497f9722a3daafe3b4186f6b6457e0\n  mload(0x40)\n  mload(0x40)\n  dup1\n  swap2\n  sub\n  swap1\n  log3\n    /* \"@openzeppelin/contracts@4.7.3/access/Ownable.sol\":2433:2620  function _transferOwnership(address newOwner) internal virtual {... */\n  pop\n  pop\n  jump\t// out\n    /* \"DiplomaToken.sol\":240:999  contract DiplomaToken is ERC721, Ownable {... */\ntag_7:\n  dup3\n  dup1\n  sload\n  tag_18\n  swap1\n  tag_19\n  jump\t// in\ntag_18:\n  swap1\n  0x00\n  mstore\n  keccak256(0x00, 0x20)\n  swap1\n  0x1f\n  add\n  0x20\n  swap1\n  div\n  dup2\n  add\n  swap3\n  dup3\n  tag_21\n  jumpi\n  0x00\n  dup6\n  sstore\n  jump(tag_20)\ntag_21:\n  dup3\n  0x1f\n  lt\n  tag_22\n  jumpi\n  dup1\n  mload\n  not(0xff)\n  and\n  dup4\n  dup1\n  add\n  or\n  dup6\n  sstore\n  jump(tag_20)\ntag_22:\n  dup3\n  dup1\n  add\n  0x01\n  add\n  dup6\n  sstore\n  dup3\n  iszero\n  tag_20\n  jumpi\n  swap2\n  dup3\n  add\ntag_23:\n  dup3\n  dup2\n  gt\n  iszero\n  tag_24\n  jumpi\n  dup3\n  mload\n  dup3\n  sstore\n  swap2\n  0x20\n  add\n  swap2\n  swap1\n  0x01\n  add\n  swap1\n  jump(tag_23)\ntag_24:\ntag_20:\n  pop\n  swap1\n  pop\n  tag_25\n  swap2\n  swap1\n  tag_26\n  jump\t// in\ntag_25:\n  pop\n  swap1\n  jump\t// out\ntag_26:\ntag_27:\n  dup1\n  dup3\n  gt\n  iszero\n  tag_28\n  jumpi\n  0x00\n  dup2\n  0x00\n  swap1\n  sstore\n  pop\n  0x01\n  add\n  jump(tag_27)\ntag_28:\n  pop\n  swap1\n  jump\t// out\n    /* \"#utility.yul\":7:327   */\ntag_19:\n    /* \"#utility.yul\":51:57   */\n  0x00\n    /* \"#utility.yul\":88:89   */\n  0x02\n    /* \"#utility.yul\":82:86   */\n  dup3\n    /* \"#utility.yul\":78:90   */\n  div\n    /* \"#utility.yul\":68:90   */\n  swap1\n  pop\n    /* \"#utility.yul\":135:136   */\n  0x01\n    /* \"#utility.yul\":129:133   */\n  dup3\n    /* \"#utility.yul\":125:137   */\n  and\n    /* \"#utility.yul\":156:174   */\n  dup1\n    /* \"#utility.yul\":146:148   */\n  tag_31\n  jumpi\n    /* \"#utility.yul\":212:216   */\n  0x7f\n    /* \"#utility.yul\":204:210   */\n  dup3\n    /* \"#utility.yul\":200:217   */\n  and\n    /* \"#utility.yul\":190:217   */\n  swap2\n  pop\n    /* \"#utility.yul\":146:148   */\ntag_31:\n    /* \"#utility.yul\":274:276   */\n  0x20\n    /* \"#utility.yul\":266:272   */\n  dup3\n    /* \"#utility.yul\":263:277   */\n  lt\n    /* \"#utility.yul\":243:261   */\n  dup2\n    /* \"#utility.yul\":240:278   */\n  eq\n    /* \"#utility.yul\":237:239   */\n  iszero\n  tag_32\n  jumpi\n    /* \"#utility.yul\":293:311   */\n  tag_33\n  tag_34\n  jump\t// in\ntag_33:\n    /* \"#utility.yul\":237:239   */\ntag_32:\n    /* \"#utility.yul\":58:327   */\n  pop\n  swap2\n  swap1\n  pop\n  jump\t// out\n    /* \"#utility.yul\":333:513   */\ntag_34:\n    /* \"#utility.yul\":381:458   */\n  0x4e487b7100000000000000000000000000000000000000000000000000000000\n    /* \"#utility.yul\":378:379   */\n  0x00\n    /* \"#utility.yul\":371:459   */\n  mstore\n    /* \"#utility.yul\":478:482   */\n  0x22\n    /* \"#utility.yul\":475:476   */\n  0x04\n    /* \"#utility.yul\":468:483   */\n  mstore\n    /* \"#utility.yul\":502:506   */\n  0x24\n    /* \"#utility.yul\":499:500   */\n  0x00\n    /* \"#utility.yul\":492:507   */\n  revert\n    /* \"DiplomaToken.sol\":240:999  contract DiplomaToken is ERC721, Ownable {... */\ntag_15:\n  dataSize(sub_0)\n  dup1\n  dataOffset(sub_0)\n  0x00\n  codecopy\n  0x00\n  return\nstop\n\nsub_0: assembly {\n        /* \"DiplomaToken.sol\":240:999  contract DiplomaToken is ERC721, Ownable {... */\n      mstore(0x40, 0x80)\n      jumpi(tag_1, lt(calldatasize, 0x04))\n      shr(0xe0, calldataload(0x00))\n      dup1\n      0x715018a6\n      gt\n      tag_20\n      jumpi\n      dup1\n      0xb88d4fde\n      gt\n      tag_21\n      jumpi\n      dup1\n      0xb88d4fde\n      eq\n      tag_15\n      jumpi\n      dup1\n      0xc002d23d\n      eq\n      tag_16\n      jumpi\n      dup1\n      0xc87b56dd\n      eq\n      tag_17\n      jumpi\n      dup1\n      0xe985e9c5\n      eq\n      tag_18\n      jumpi\n      dup1\n      0xf2fde38b\n      eq\n      tag_19\n      jumpi\n      jump(tag_1)\n    tag_21:\n      dup1\n      0x715018a6\n      eq\n      tag_11\n      jumpi\n      dup1\n      0x8da5cb5b\n      eq\n      tag_12\n      jumpi\n      dup1\n      0x95d89b41\n      eq\n      tag_13\n      jumpi\n      dup1\n      0xa22cb465\n      eq\n      tag_14\n      jumpi\n      jump(tag_1)\n    tag_20:\n      dup1\n      0x23b872dd\n      gt\n      tag_22\n      jumpi\n      dup1\n      0x23b872dd\n      eq\n      tag_6\n      jumpi\n      dup1\n      0x40d097c3\n      eq\n      tag_7\n      jumpi\n      dup1\n      0x42842e0e\n      eq\n      tag_8\n      jumpi\n      dup1\n      0x6352211e\n      eq\n      tag_9\n      jumpi\n      dup1\n      0x70a08231\n      eq\n      tag_10\n      jumpi\n      jump(tag_1)\n    tag_22:\n      dup1\n      0x01ffc9a7\n      eq\n      tag_2\n      jumpi\n      dup1\n      0x06fdde03\n      eq\n      tag_3\n      jumpi\n      dup1\n      0x081812fc\n      eq\n      tag_4\n      jumpi\n      dup1\n      0x095ea7b3\n      eq\n      tag_5\n      jumpi\n    tag_1:\n      0x00\n      dup1\n      revert\n        /* \"@openzeppelin/contracts@4.7.3/token/ERC721/ERC721.sol\":1570:1870  function supportsInterface(bytes4 interfaceId) public view virtual override(ERC165, IERC165) returns (bool) {... */\n    tag_2:\n      callvalue\n      dup1\n      iszero\n      tag_23\n      jumpi\n      0x00\n      dup1\n      revert\n    tag_23:\n      pop\n      tag_24\n      0x04\n      dup1\n      calldatasize\n      sub\n      dup2\n      add\n      swap1\n      tag_25\n      swap2\n      swap1\n      tag_26\n      jump\t// in\n    tag_25:\n      tag_27\n      jump\t// in\n    tag_24:\n      mload(0x40)\n      tag_28\n      swap2\n      swap1\n      tag_29\n      jump\t// in\n    tag_28:\n      mload(0x40)\n      dup1\n      swap2\n      sub\n      swap1\n      return\n        /* \"@openzeppelin/contracts@4.7.3/token/ERC721/ERC721.sol\":2470:2568  function name() public view virtual override returns (string memory) {... */\n    tag_3:\n      callvalue\n      dup1\n      iszero\n      tag_30\n      jumpi\n      0x00\n      dup1\n      revert\n    tag_30:\n      pop\n      tag_31\n      tag_32\n      jump\t// in\n    tag_31:\n      mload(0x40)\n      tag_33\n      swap2\n      swap1\n      tag_34\n      jump\t// in\n    tag_33:\n      mload(0x40)\n      dup1\n      swap2\n      sub\n      swap1\n      return\n        /* \"@openzeppelin/contracts@4.7.3/token/ERC721/ERC721.sol\":3935:4102  function getApproved(uint256 tokenId) public view virtual override returns (address) {... */\n    tag_4:\n      callvalue\n      dup1\n      iszero\n      tag_35\n      jumpi\n      0x00\n      dup1\n      revert\n    tag_35:\n      pop\n      tag_36\n      0x04\n      dup1\n      calldatasize\n      sub\n      dup2\n      add\n      swap1\n      tag_37\n      swap2\n      swap1\n      tag_38\n      jump\t// in\n    tag_37:\n      tag_39\n      jump\t// in\n    tag_36:\n      mload(0x40)\n      tag_40\n      swap2\n      swap1\n      tag_41\n      jump\t// in\n    tag_40:\n      mload(0x40)\n      dup1\n      swap2\n      sub\n      swap1\n      return\n        /* \"@openzeppelin/contracts@4.7.3/token/ERC721/ERC721.sol\":3467:3874  function approve(address to, uint256 tokenId) public virtual override {... */\n    tag_5:\n      callvalue\n      dup1\n      iszero\n      tag_42\n      jumpi\n      0x00\n      dup1\n      revert\n    tag_42:\n      pop\n      tag_43\n      0x04\n      dup1\n      calldatasize\n      sub\n      dup2\n      add\n      swap1\n      tag_44\n      swap2\n      swap1\n      tag_45\n      jump\t// in\n    tag_44:\n      tag_46\n      jump\t// in\n    tag_43:\n      stop\n        /* \"@openzeppelin/contracts@4.7.3/token/ERC721/ERC721.sol\":4612:4939  function transferFrom(... */\n    tag_6:\n      callvalue\n      dup1\n      iszero\n      tag_47\n      jumpi\n      0x00\n      dup1\n      revert\n    tag_47:\n      pop\n      tag_48\n      0x04\n      dup1\n      calldatasize\n      sub\n      dup2\n      add\n      swap1\n      tag_49\n      swap2\n      swap1\n      tag_50\n      jump\t// in\n    tag_49:\n      tag_51\n      jump\t// in\n    tag_48:\n      stop\n        /* \"DiplomaToken.sol\":758:997  function safeMint(address to) public payable  {... */\n    tag_7:\n      tag_52\n      0x04\n      dup1\n      calldatasize\n      sub\n      dup2\n      add\n      swap1\n      tag_53\n      swap2\n      swap1\n      tag_54\n      jump\t// in\n    tag_53:\n      tag_55\n      jump\t// in\n    tag_52:\n      stop\n        /* \"@openzeppelin/contracts@4.7.3/token/ERC721/ERC721.sol\":5005:5184  function safeTransferFrom(... */\n    tag_8:\n      callvalue\n      dup1\n      iszero\n      tag_56\n      jumpi\n      0x00\n      dup1\n      revert\n    tag_56:\n      pop\n      tag_57\n      0x04\n      dup1\n      calldatasize\n      sub\n      dup2\n      add\n      swap1\n      tag_58\n      swap2\n      swap1\n      tag_50\n      jump\t// in\n    tag_58:\n      tag_59\n      jump\t// in\n    tag_57:\n      stop\n        /* \"@openzeppelin/contracts@4.7.3/token/ERC721/ERC721.sol\":2190:2408  function ownerOf(uint256 tokenId) public view virtual override returns (address) {... */\n    tag_9:\n      callvalue\n      dup1\n      iszero\n      tag_60\n      jumpi\n      0x00\n      dup1\n      revert\n    tag_60:\n      pop\n      tag_61\n      0x04\n      dup1\n      calldatasize\n      sub\n      dup2\n      add\n      swap1\n      tag_62\n      swap2\n      swap1\n      tag_38\n      jump\t// in\n    tag_62:\n      tag_63\n      jump\t// in\n    tag_61:\n      mload(0x40)\n      tag_64\n      swap2\n      swap1\n      tag_41\n      jump\t// in\n    tag_64:\n      mload(0x40)\n      dup1\n      swap2\n      sub\n      swap1\n      return\n        /* \"@openzeppelin/contracts@4.7.3/token/ERC721/ERC721.sol\":1929:2133  function balanceOf(address owner) public view virtual override returns (uint256) {... */\n    tag_10:\n      callvalue\n      dup1\n      iszero\n      tag_65\n      jumpi\n      0x00\n      dup1\n      revert\n    tag_65:\n      pop\n      tag_66\n      0x04\n      dup1\n      calldatasize\n      sub\n      dup2\n      add\n      swap1\n      tag_67\n      swap2\n      swap1\n      tag_54\n      jump\t// in\n    tag_67:\n      tag_68\n      jump\t// in\n    tag_66:\n      mload(0x40)\n      tag_69\n      swap2\n      swap1\n      tag_70\n      jump\t// in\n    tag_69:\n      mload(0x40)\n      dup1\n      swap2\n      sub\n      swap1\n      return\n        /* \"@openzeppelin/contracts@4.7.3/access/Ownable.sol\":1831:1932  function renounceOwnership() public virtual onlyOwner {... */\n    tag_11:\n      callvalue\n      dup1\n      iszero\n      tag_71\n      jumpi\n      0x00\n      dup1\n      revert\n    tag_71:\n      pop\n      tag_72\n      tag_73\n      jump\t// in\n    tag_72:\n      stop\n        /* \"@openzeppelin/contracts@4.7.3/access/Ownable.sol\":1201:1286  function owner() public view virtual returns (address) {... */\n    tag_12:\n      callvalue\n      dup1\n      iszero\n      tag_74\n      jumpi\n      0x00\n      dup1\n      revert\n    tag_74:\n      pop\n      tag_75\n      tag_76\n      jump\t// in\n    tag_75:\n      mload(0x40)\n      tag_77\n      swap2\n      swap1\n      tag_41\n      jump\t// in\n    tag_77:\n      mload(0x40)\n      dup1\n      swap2\n      sub\n      swap1\n      return\n        /* \"@openzeppelin/contracts@4.7.3/token/ERC721/ERC721.sol\":2632:2734  function symbol() public view virtual override returns (string memory) {... */\n    tag_13:\n      callvalue\n      dup1\n      iszero\n      tag_78\n      jumpi\n      0x00\n      dup1\n      revert\n    tag_78:\n      pop\n      tag_79\n      tag_80\n      jump\t// in\n    tag_79:\n      mload(0x40)\n      tag_81\n      swap2\n      swap1\n      tag_34\n      jump\t// in\n    tag_81:\n      mload(0x40)\n      dup1\n      swap2\n      sub\n      swap1\n      return\n        /* \"@openzeppelin/contracts@4.7.3/token/ERC721/ERC721.sol\":4169:4322  function setApprovalForAll(address operator, bool approved) public virtual override {... */\n    tag_14:\n      callvalue\n      dup1\n      iszero\n      tag_82\n      jumpi\n      0x00\n      dup1\n      revert\n    tag_82:\n      pop\n      tag_83\n      0x04\n      dup1\n      calldatasize\n      sub\n      dup2\n      add\n      swap1\n      tag_84\n      swap2\n      swap1\n      tag_85\n      jump\t// in\n    tag_84:\n      tag_86\n      jump\t// in\n    tag_83:\n      stop\n        /* \"@openzeppelin/contracts@4.7.3/token/ERC721/ERC721.sol\":5250:5565  function safeTransferFrom(... */\n    tag_15:\n      callvalue\n      dup1\n      iszero\n      tag_87\n      jumpi\n      0x00\n      dup1\n      revert\n    tag_87:\n      pop\n      tag_88\n      0x04\n      dup1\n      calldatasize\n      sub\n      dup2\n      add\n      swap1\n      tag_89\n      swap2\n      swap1\n      tag_90\n      jump\t// in\n    tag_89:\n      tag_91\n      jump\t// in\n    tag_88:\n      stop\n        /* \"DiplomaToken.sol\":376:416  uint256 public MINT_PRICE = 0.0005 ether */\n    tag_16:\n      callvalue\n      dup1\n      iszero\n      tag_92\n      jumpi\n      0x00\n      dup1\n      revert\n    tag_92:\n      pop\n      tag_93\n      tag_94\n      jump\t// in\n    tag_93:\n      mload(0x40)\n      tag_95\n      swap2\n      swap1\n      tag_70\n      jump\t// in\n    tag_95:\n      mload(0x40)\n      dup1\n      swap2\n      sub\n      swap1\n      return\n        /* \"@openzeppelin/contracts@4.7.3/token/ERC721/ERC721.sol\":2800:3076  function tokenURI(uint256 tokenId) public view virtual override returns (string memory) {... */\n    tag_17:\n      callvalue\n      dup1\n      iszero\n      tag_96\n      jumpi\n      0x00\n      dup1\n      revert\n    tag_96:\n      pop\n      tag_97\n      0x04\n      dup1\n      calldatasize\n      sub\n      dup2\n      add\n      swap1\n      tag_98\n      swap2\n      swap1\n      tag_38\n      jump\t// in\n    tag_98:\n      tag_99\n      jump\t// in\n    tag_97:\n      mload(0x40)\n      tag_100\n      swap2\n      swap1\n      tag_34\n      jump\t// in\n    tag_100:\n      mload(0x40)\n      dup1\n      swap2\n      sub\n      swap1\n      return\n        /* \"@openzeppelin/contracts@4.7.3/token/ERC721/ERC721.sol\":4388:4550  function isApprovedForAll(address owner, address operator) public view virtual override returns (bool) {... */\n    tag_18:\n      callvalue\n      dup1\n      iszero\n      tag_101\n      jumpi\n      0x00\n      dup1\n      revert\n    tag_101:\n      pop\n      tag_102\n      0x04\n      dup1\n      calldatasize\n      sub\n      dup2\n      add\n      swap1\n      tag_103\n      swap2\n      swap1\n      tag_104\n      jump\t// in\n    tag_103:\n      tag_105\n      jump\t// in\n    tag_102:\n      mload(0x40)\n      tag_106\n      swap2\n      swap1\n      tag_29\n      jump\t// in\n    tag_106:\n      mload(0x40)\n      dup1\n      swap2\n      sub\n      swap1\n      return\n        /* \"@openzeppelin/contracts@4.7.3/access/Ownable.sol\":2081:2279  function transferOwnership(address newOwner) public virtual onlyOwner {... */\n    tag_19:\n      callvalue\n      dup1\n      iszero\n      tag_107\n      jumpi\n      0x00\n      dup1\n      revert\n    tag_107:\n      pop\n      tag_108\n      0x04\n      dup1\n      calldatasize\n      sub\n      dup2\n      add\n      swap1\n      tag_109\n      swap2\n      swap1\n      tag_54\n      jump\t// in\n    tag_109:\n      tag_110\n      jump\t// in\n    tag_108:\n      stop\n        /* \"@openzeppelin/contracts@4.7.3/token/ERC721/ERC721.sol\":1570:1870  function supportsInterface(bytes4 interfaceId) public view virtual override(ERC165, IERC165) returns (bool) {... */\n    tag_27:\n        /* \"@openzeppelin/contracts@4.7.3/token/ERC721/ERC721.sol\":1672:1676  bool */\n      0x00\n        /* \"@openzeppelin/contracts@4.7.3/token/ERC721/ERC721.sol\":1722:1747  type(IERC721).interfaceId */\n      0x80ac58cd00000000000000000000000000000000000000000000000000000000\n        /* \"@openzeppelin/contracts@4.7.3/token/ERC721/ERC721.sol\":1707:1747  interfaceId == type(IERC721).interfaceId */\n      not(0xffffffffffffffffffffffffffffffffffffffffffffffffffffffff)\n      and\n        /* \"@openzeppelin/contracts@4.7.3/token/ERC721/ERC721.sol\":1707:1718  interfaceId */\n      dup3\n        /* \"@openzeppelin/contracts@4.7.3/token/ERC721/ERC721.sol\":1707:1747  interfaceId == type(IERC721).interfaceId */\n      not(0xffffffffffffffffffffffffffffffffffffffffffffffffffffffff)\n      and\n      eq\n        /* \"@openzeppelin/contracts@4.7.3/token/ERC721/ERC721.sol\":1707:1811  interfaceId == type(IERC721).interfaceId ||... */\n      dup1\n      tag_112\n      jumpi\n      pop\n        /* \"@openzeppelin/contracts@4.7.3/token/ERC721/ERC721.sol\":1778:1811  type(IERC721Metadata).interfaceId */\n      0x5b5e139f00000000000000000000000000000000000000000000000000000000\n        /* \"@openzeppelin/contracts@4.7.3/token/ERC721/ERC721.sol\":1763:1811  interfaceId == type(IERC721Metadata).interfaceId */\n      not(0xffffffffffffffffffffffffffffffffffffffffffffffffffffffff)\n      and\n        /* \"@openzeppelin/contracts@4.7.3/token/ERC721/ERC721.sol\":1763:1774  interfaceId */\n      dup3\n        /* \"@openzeppelin/contracts@4.7.3/token/ERC721/ERC721.sol\":1763:1811  interfaceId == type(IERC721Metadata).interfaceId */\n      not(0xffffffffffffffffffffffffffffffffffffffffffffffffffffffff)\n      and\n      eq\n        /* \"@openzeppelin/contracts@4.7.3/token/ERC721/ERC721.sol\":1707:1811  interfaceId == type(IERC721).interfaceId ||... */\n    tag_112:\n        /* \"@openzeppelin/contracts@4.7.3/token/ERC721/ERC721.sol\":1707:1863  interfaceId == type(IERC721).interfaceId ||... */\n      dup1\n      tag_113\n      jumpi\n      pop\n        /* \"@openzeppelin/contracts@4.7.3/token/ERC721/ERC721.sol\":1827:1863  super.supportsInterface(interfaceId) */\n      tag_114\n        /* \"@openzeppelin/contracts@4.7.3/token/ERC721/ERC721.sol\":1851:1862  interfaceId */\n      dup3\n        /* \"@openzeppelin/contracts@4.7.3/token/ERC721/ERC721.sol\":1827:1850  super.supportsInterface */\n      tag_115\n        /* \"@openzeppelin/contracts@4.7.3/token/ERC721/ERC721.sol\":1827:1863  super.supportsInterface(interfaceId) */\n      jump\t// in\n    tag_114:\n        /* \"@openzeppelin/contracts@4.7.3/token/ERC721/ERC721.sol\":1707:1863  interfaceId == type(IERC721).interfaceId ||... */\n    tag_113:\n        /* \"@openzeppelin/contracts@4.7.3/token/ERC721/ERC721.sol\":1688:1863  return... */\n      swap1\n      pop\n        /* \"@openzeppelin/contracts@4.7.3/token/ERC721/ERC721.sol\":1570:1870  function supportsInterface(bytes4 interfaceId) public view virtual override(ERC165, IERC165) returns (bool) {... */\n      swap2\n      swap1\n      pop\n      jump\t// out\n        /* \"@openzeppelin/contracts@4.7.3/token/ERC721/ERC721.sol\":2470:2568  function name() public view virtual override returns (string memory) {... */\n    tag_32:\n        /* \"@openzeppelin/contracts@4.7.3/token/ERC721/ERC721.sol\":2524:2537  string memory */\n      0x60\n        /* \"@openzeppelin/contracts@4.7.3/token/ERC721/ERC721.sol\":2556:2561  _name */\n      0x00\n        /* \"@openzeppelin/contracts@4.7.3/token/ERC721/ERC721.sol\":2549:2561  return _name */\n      dup1\n      sload\n      tag_117\n      swap1\n      tag_118\n      jump\t// in\n    tag_117:\n      dup1\n      0x1f\n      add\n      0x20\n      dup1\n      swap2\n      div\n      mul\n      0x20\n      add\n      mload(0x40)\n      swap1\n      dup2\n      add\n      0x40\n      mstore\n      dup1\n      swap3\n      swap2\n      swap1\n      dup2\n      dup2\n      mstore\n      0x20\n      add\n      dup3\n      dup1\n      sload\n      tag_119\n      swap1\n      tag_118\n      jump\t// in\n    tag_119:\n      dup1\n      iszero\n      tag_120\n      jumpi\n      dup1\n      0x1f\n      lt\n      tag_121\n      jumpi\n      0x0100\n      dup1\n      dup4\n      sload\n      div\n      mul\n      dup4\n      mstore\n      swap2\n      0x20\n      add\n      swap2\n      jump(tag_120)\n    tag_121:\n      dup3\n      add\n      swap2\n      swap1\n      0x00\n      mstore\n      keccak256(0x00, 0x20)\n      swap1\n    tag_122:\n      dup2\n      sload\n      dup2\n      mstore\n      swap1\n      0x01\n      add\n      swap1\n      0x20\n      add\n      dup1\n      dup4\n      gt\n      tag_122\n      jumpi\n      dup3\n      swap1\n      sub\n      0x1f\n      and\n      dup3\n      add\n      swap2\n    tag_120:\n      pop\n      pop\n      pop\n      pop\n      pop\n      swap1\n      pop\n        /* \"@openzeppelin/contracts@4.7.3/token/ERC721/ERC721.sol\":2470:2568  function name() public view virtual override returns (string memory) {... */\n      swap1\n      jump\t// out\n        /* \"@openzeppelin/contracts@4.7.3/token/ERC721/ERC721.sol\":3935:4102  function getApproved(uint256 tokenId) public view virtual override returns (address) {... */\n    tag_39:\n        /* \"@openzeppelin/contracts@4.7.3/token/ERC721/ERC721.sol\":4011:4018  address */\n      0x00\n        /* \"@openzeppelin/contracts@4.7.3/token/ERC721/ERC721.sol\":4030:4053  _requireMinted(tokenId) */\n      tag_124\n        /* \"@openzeppelin/contracts@4.7.3/token/ERC721/ERC721.sol\":4045:4052  tokenId */\n      dup3\n        /* \"@openzeppelin/contracts@4.7.3/token/ERC721/ERC721.sol\":4030:4044  _requireMinted */\n      tag_125\n        /* \"@openzeppelin/contracts@4.7.3/token/ERC721/ERC721.sol\":4030:4053  _requireMinted(tokenId) */\n      jump\t// in\n    tag_124:\n        /* \"@openzeppelin/contracts@4.7.3/token/ERC721/ERC721.sol\":4071:4086  _tokenApprovals */\n      0x04\n        /* \"@openzeppelin/contracts@4.7.3/token/ERC721/ERC721.sol\":4071:4095  _tokenApprovals[tokenId] */\n      0x00\n        /* \"@openzeppelin/contracts@4.7.3/token/ERC721/ERC721.sol\":4087:4094  tokenId */\n      dup4\n        /* \"@openzeppelin/contracts@4.7.3/token/ERC721/ERC721.sol\":4071:4095  _tokenApprovals[tokenId] */\n      dup2\n      mstore\n      0x20\n      add\n      swap1\n      dup2\n      mstore\n      0x20\n      add\n      0x00\n      keccak256\n      0x00\n      swap1\n      sload\n      swap1\n      0x0100\n      exp\n      swap1\n      div\n      0xffffffffffffffffffffffffffffffffffffffff\n      and\n        /* \"@openzeppelin/contracts@4.7.3/token/ERC721/ERC721.sol\":4064:4095  return _tokenApprovals[tokenId] */\n      swap1\n      pop\n        /* \"@openzeppelin/contracts@4.7.3/token/ERC721/ERC721.sol\":3935:4102  function getApproved(uint256 tokenId) public view virtual override returns (address) {... */\n      swap2\n      swap1\n      pop\n      jump\t// out\n        /* \"@openzeppelin/contracts@4.7.3/token/ERC721/ERC721.sol\":3467:3874  function approve(address to, uint256 tokenId) public virtual override {... */\n    tag_46:\n        /* \"@openzeppelin/contracts@4.7.3/token/ERC721/ERC721.sol\":3547:3560  address owner */\n      0x00\n        /* \"@openzeppelin/contracts@4.7.3/token/ERC721/ERC721.sol\":3563:3586  ERC721.ownerOf(tokenId) */\n      tag_127\n        /* \"@openzeppelin/contracts@4.7.3/token/ERC721/ERC721.sol\":3578:3585  tokenId */\n      dup3\n        /* \"@openzeppelin/contracts@4.7.3/token/ERC721/ERC721.sol\":3563:3577  ERC721.ownerOf */\n      tag_63\n        /* \"@openzeppelin/contracts@4.7.3/token/ERC721/ERC721.sol\":3563:3586  ERC721.ownerOf(tokenId) */\n      jump\t// in\n    tag_127:\n        /* \"@openzeppelin/contracts@4.7.3/token/ERC721/ERC721.sol\":3547:3586  address owner = ERC721.ownerOf(tokenId) */\n      swap1\n      pop\n        /* \"@openzeppelin/contracts@4.7.3/token/ERC721/ERC721.sol\":3610:3615  owner */\n      dup1\n        /* \"@openzeppelin/contracts@4.7.3/token/ERC721/ERC721.sol\":3604:3615  to != owner */\n      0xffffffffffffffffffffffffffffffffffffffff\n      and\n        /* \"@openzeppelin/contracts@4.7.3/token/ERC721/ERC721.sol\":3604:3606  to */\n      dup4\n        /* \"@openzeppelin/contracts@4.7.3/token/ERC721/ERC721.sol\":3604:3615  to != owner */\n      0xffffffffffffffffffffffffffffffffffffffff\n      and\n      eq\n      iszero\n        /* \"@openzeppelin/contracts@4.7.3/token/ERC721/ERC721.sol\":3596:3653  require(to != owner, \"ERC721: approval to current owner\") */\n      tag_128\n      jumpi\n      mload(0x40)\n      0x08c379a000000000000000000000000000000000000000000000000000000000\n      dup2\n      mstore\n      0x04\n      add\n      tag_129\n      swap1\n      tag_130\n      jump\t// in\n    tag_129:\n      mload(0x40)\n      dup1\n      swap2\n      sub\n      swap1\n      revert\n    tag_128:\n        /* \"@openzeppelin/contracts@4.7.3/token/ERC721/ERC721.sol\":3701:3706  owner */\n      dup1\n        /* \"@openzeppelin/contracts@4.7.3/token/ERC721/ERC721.sol\":3685:3706  _msgSender() == owner */\n      0xffffffffffffffffffffffffffffffffffffffff\n      and\n        /* \"@openzeppelin/contracts@4.7.3/token/ERC721/ERC721.sol\":3685:3697  _msgSender() */\n      tag_131\n        /* \"@openzeppelin/contracts@4.7.3/token/ERC721/ERC721.sol\":3685:3695  _msgSender */\n      tag_132\n        /* \"@openzeppelin/contracts@4.7.3/token/ERC721/ERC721.sol\":3685:3697  _msgSender() */\n      jump\t// in\n    tag_131:\n        /* \"@openzeppelin/contracts@4.7.3/token/ERC721/ERC721.sol\":3685:3706  _msgSender() == owner */\n      0xffffffffffffffffffffffffffffffffffffffff\n      and\n      eq\n        /* \"@openzeppelin/contracts@4.7.3/token/ERC721/ERC721.sol\":3685:3747  _msgSender() == owner || isApprovedForAll(owner, _msgSender()) */\n      dup1\n      tag_133\n      jumpi\n      pop\n        /* \"@openzeppelin/contracts@4.7.3/token/ERC721/ERC721.sol\":3710:3747  isApprovedForAll(owner, _msgSender()) */\n      tag_134\n        /* \"@openzeppelin/contracts@4.7.3/token/ERC721/ERC721.sol\":3727:3732  owner */\n      dup2\n        /* \"@openzeppelin/contracts@4.7.3/token/ERC721/ERC721.sol\":3734:3746  _msgSender() */\n      tag_135\n        /* \"@openzeppelin/contracts@4.7.3/token/ERC721/ERC721.sol\":3734:3744  _msgSender */\n      tag_132\n        /* \"@openzeppelin/contracts@4.7.3/token/ERC721/ERC721.sol\":3734:3746  _msgSender() */\n      jump\t// in\n    tag_135:\n        /* \"@openzeppelin/contracts@4.7.3/token/ERC721/ERC721.sol\":3710:3726  isApprovedForAll */\n      tag_105\n        /* \"@openzeppelin/contracts@4.7.3/token/ERC721/ERC721.sol\":3710:3747  isApprovedForAll(owner, _msgSender()) */\n      jump\t// in\n    tag_134:\n        /* \"@openzeppelin/contracts@4.7.3/token/ERC721/ERC721.sol\":3685:3747  _msgSender() == owner || isApprovedForAll(owner, _msgSender()) */\n    tag_133:\n        /* \"@openzeppelin/contracts@4.7.3/token/ERC721/ERC721.sol\":3664:3835  require(... */\n      tag_136\n      jumpi\n      mload(0x40)\n      0x08c379a000000000000000000000000000000000000000000000000000000000\n      dup2\n      mstore\n      0x04\n      add\n      tag_137\n      swap1\n      tag_138\n      jump\t// in\n    tag_137:\n      mload(0x40)\n      dup1\n      swap2\n      sub\n      swap1\n      revert\n    tag_136:\n        /* \"@openzeppelin/contracts@4.7.3/token/ERC721/ERC721.sol\":3846:3867  _approve(to, tokenId) */\n      tag_139\n        /* \"@openzeppelin/contracts@4.7.3/token/ERC721/ERC721.sol\":3855:3857  to */\n      dup4\n        /* \"@openzeppelin/contracts@4.7.3/token/ERC721/ERC721.sol\":3859:3866  tokenId */\n      dup4\n        /* \"@openzeppelin/contracts@4.7.3/token/ERC721/ERC721.sol\":3846:3854  _approve */\n      tag_140\n        /* \"@openzeppelin/contracts@4.7.3/token/ERC721/ERC721.sol\":3846:3867  _approve(to, tokenId) */\n      jump\t// in\n    tag_139:\n        /* \"@openzeppelin/contracts@4.7.3/token/ERC721/ERC721.sol\":3467:3874  function approve(address to, uint256 tokenId) public virtual override {... */\n      pop\n      pop\n      pop\n      jump\t// out\n        /* \"@openzeppelin/contracts@4.7.3/token/ERC721/ERC721.sol\":4612:4939  function transferFrom(... */\n    tag_51:\n        /* \"@openzeppelin/contracts@4.7.3/token/ERC721/ERC721.sol\":4801:4842  _isApprovedOrOwner(_msgSender(), tokenId) */\n      tag_142\n        /* \"@openzeppelin/contracts@4.7.3/token/ERC721/ERC721.sol\":4820:4832  _msgSender() */\n      tag_143\n        /* \"@openzeppelin/contracts@4.7.3/token/ERC721/ERC721.sol\":4820:4830  _msgSender */\n      tag_132\n        /* \"@openzeppelin/contracts@4.7.3/token/ERC721/ERC721.sol\":4820:4832  _msgSender() */\n      jump\t// in\n    tag_143:\n        /* \"@openzeppelin/contracts@4.7.3/token/ERC721/ERC721.sol\":4834:4841  tokenId */\n      dup3\n        /* \"@openzeppelin/contracts@4.7.3/token/ERC721/ERC721.sol\":4801:4819  _isApprovedOrOwner */\n      tag_144\n        /* \"@openzeppelin/contracts@4.7.3/token/ERC721/ERC721.sol\":4801:4842  _isApprovedOrOwner(_msgSender(), tokenId) */\n      jump\t// in\n    tag_142:\n        /* \"@openzeppelin/contracts@4.7.3/token/ERC721/ERC721.sol\":4793:4893  require(_isApprovedOrOwner(_msgSender(), tokenId), \"ERC721: caller is not token owner nor approved\") */\n      tag_145\n      jumpi\n      mload(0x40)\n      0x08c379a000000000000000000000000000000000000000000000000000000000\n      dup2\n      mstore\n      0x04\n      add\n      tag_146\n      swap1\n      tag_147\n      jump\t// in\n    tag_146:\n      mload(0x40)\n      dup1\n      swap2\n      sub\n      swap1\n      revert\n    tag_145:\n        /* \"@openzeppelin/contracts@4.7.3/token/ERC721/ERC721.sol\":4904:4932  _transfer(from, to, tokenId) */\n      tag_148\n        /* \"@openzeppelin/contracts@4.7.3/token/ERC721/ERC721.sol\":4914:4918  from */\n      dup4\n        /* \"@openzeppelin/contracts@4.7.3/token/ERC721/ERC721.sol\":4920:4922  to */\n      dup4\n        /* \"@openzeppelin/contracts@4.7.3/token/ERC721/ERC721.sol\":4924:4931  tokenId */\n      dup4\n        /* \"@openzeppelin/contracts@4.7.3/token/ERC721/ERC721.sol\":4904:4913  _transfer */\n      tag_149\n        /* \"@openzeppelin/contracts@4.7.3/token/ERC721/ERC721.sol\":4904:4932  _transfer(from, to, tokenId) */\n      jump\t// in\n    tag_148:\n        /* \"@openzeppelin/contracts@4.7.3/token/ERC721/ERC721.sol\":4612:4939  function transferFrom(... */\n      pop\n      pop\n      pop\n      jump\t// out\n        /* \"DiplomaToken.sol\":758:997  function safeMint(address to) public payable  {... */\n    tag_55:\n        /* \"DiplomaToken.sol\":834:844  MINT_PRICE */\n      sload(0x07)\n        /* \"DiplomaToken.sol\":822:831  msg.value */\n      callvalue\n        /* \"DiplomaToken.sol\":822:844  msg.value > MINT_PRICE */\n      gt\n        /* \"DiplomaToken.sol\":814:868  require(msg.value > MINT_PRICE, \"Not enough ETH sent\") */\n      tag_151\n      jumpi\n      mload(0x40)\n      0x08c379a000000000000000000000000000000000000000000000000000000000\n      dup2\n      mstore\n      0x04\n      add\n      tag_152\n      swap1\n      tag_153\n      jump\t// in\n    tag_152:\n      mload(0x40)\n      dup1\n      swap2\n      sub\n      swap1\n      revert\n    tag_151:\n        /* \"DiplomaToken.sol\":878:893  uint256 tokenId */\n      0x00\n        /* \"DiplomaToken.sol\":896:921  _tokenIdCounter.current() */\n      tag_154\n        /* \"DiplomaToken.sol\":896:911  _tokenIdCounter */\n      0x08\n        /* \"DiplomaToken.sol\":896:919  _tokenIdCounter.current */\n      tag_155\n        /* \"DiplomaToken.sol\":896:921  _tokenIdCounter.current() */\n      jump\t// in\n    tag_154:\n        /* \"DiplomaToken.sol\":878:921  uint256 tokenId = _tokenIdCounter.current() */\n      swap1\n      pop\n        /* \"DiplomaToken.sol\":931:958  _tokenIdCounter.increment() */\n      tag_156\n        /* \"DiplomaToken.sol\":931:946  _tokenIdCounter */\n      0x08\n        /* \"DiplomaToken.sol\":931:956  _tokenIdCounter.increment */\n      tag_157\n        /* \"DiplomaToken.sol\":931:958  _tokenIdCounter.increment() */\n      jump\t// in\n    tag_156:\n        /* \"DiplomaToken.sol\":968:990  _safeMint(to, tokenId) */\n      tag_158\n        /* \"DiplomaToken.sol\":978:980  to */\n      dup3\n        /* \"DiplomaToken.sol\":982:989  tokenId */\n      dup3\n        /* \"DiplomaToken.sol\":968:977  _safeMint */\n      tag_159\n        /* \"DiplomaToken.sol\":968:990  _safeMint(to, tokenId) */\n      jump\t// in\n    tag_158:\n        /* \"DiplomaToken.sol\":758:997  function safeMint(address to) public payable  {... */\n      pop\n      pop\n      jump\t// out\n        /* \"@openzeppelin/contracts@4.7.3/token/ERC721/ERC721.sol\":5005:5184  function safeTransferFrom(... */\n    tag_59:\n        /* \"@openzeppelin/contracts@4.7.3/token/ERC721/ERC721.sol\":5138:5177  safeTransferFrom(from, to, tokenId, \"\") */\n      tag_161\n        /* \"@openzeppelin/contracts@4.7.3/token/ERC721/ERC721.sol\":5155:5159  from */\n      dup4\n        /* \"@openzeppelin/contracts@4.7.3/token/ERC721/ERC721.sol\":5161:5163  to */\n      dup4\n        /* \"@openzeppelin/contracts@4.7.3/token/ERC721/ERC721.sol\":5165:5172  tokenId */\n      dup4\n        /* \"@openzeppelin/contracts@4.7.3/token/ERC721/ERC721.sol\":5138:5177  safeTransferFrom(from, to, tokenId, \"\") */\n      mload(0x40)\n      dup1\n      0x20\n      add\n      0x40\n      mstore\n      dup1\n      0x00\n      dup2\n      mstore\n      pop\n        /* \"@openzeppelin/contracts@4.7.3/token/ERC721/ERC721.sol\":5138:5154  safeTransferFrom */\n      tag_91\n        /* \"@openzeppelin/contracts@4.7.3/token/ERC721/ERC721.sol\":5138:5177  safeTransferFrom(from, to, tokenId, \"\") */\n      jump\t// in\n    tag_161:\n        /* \"@openzeppelin/contracts@4.7.3/token/ERC721/ERC721.sol\":5005:5184  function safeTransferFrom(... */\n      pop\n      pop\n      pop\n      jump\t// out\n        /* \"@openzeppelin/contracts@4.7.3/token/ERC721/ERC721.sol\":2190:2408  function ownerOf(uint256 tokenId) public view virtual override returns (address) {... */\n    tag_63:\n        /* \"@openzeppelin/contracts@4.7.3/token/ERC721/ERC721.sol\":2262:2269  address */\n      0x00\n        /* \"@openzeppelin/contracts@4.7.3/token/ERC721/ERC721.sol\":2281:2294  address owner */\n      dup1\n        /* \"@openzeppelin/contracts@4.7.3/token/ERC721/ERC721.sol\":2297:2304  _owners */\n      0x02\n        /* \"@openzeppelin/contracts@4.7.3/token/ERC721/ERC721.sol\":2297:2313  _owners[tokenId] */\n      0x00\n        /* \"@openzeppelin/contracts@4.7.3/token/ERC721/ERC721.sol\":2305:2312  tokenId */\n      dup5\n        /* \"@openzeppelin/contracts@4.7.3/token/ERC721/ERC721.sol\":2297:2313  _owners[tokenId] */\n      dup2\n      mstore\n      0x20\n      add\n      swap1\n      dup2\n      mstore\n      0x20\n      add\n      0x00\n      keccak256\n      0x00\n      swap1\n      sload\n      swap1\n      0x0100\n      exp\n      swap1\n      div\n      0xffffffffffffffffffffffffffffffffffffffff\n      and\n        /* \"@openzeppelin/contracts@4.7.3/token/ERC721/ERC721.sol\":2281:2313  address owner = _owners[tokenId] */\n      swap1\n      pop\n        /* \"@openzeppelin/contracts@4.7.3/token/ERC721/ERC721.sol\":2348:2349  0 */\n      0x00\n        /* \"@openzeppelin/contracts@4.7.3/token/ERC721/ERC721.sol\":2331:2350  owner != address(0) */\n      0xffffffffffffffffffffffffffffffffffffffff\n      and\n        /* \"@openzeppelin/contracts@4.7.3/token/ERC721/ERC721.sol\":2331:2336  owner */\n      dup2\n        /* \"@openzeppelin/contracts@4.7.3/token/ERC721/ERC721.sol\":2331:2350  owner != address(0) */\n      0xffffffffffffffffffffffffffffffffffffffff\n      and\n      eq\n      iszero\n        /* \"@openzeppelin/contracts@4.7.3/token/ERC721/ERC721.sol\":2323:2379  require(owner != address(0), \"ERC721: invalid token ID\") */\n      tag_163\n      jumpi\n      mload(0x40)\n      0x08c379a000000000000000000000000000000000000000000000000000000000\n      dup2\n      mstore\n      0x04\n      add\n      tag_164\n      swap1\n      tag_165\n      jump\t// in\n    tag_164:\n      mload(0x40)\n      dup1\n      swap2\n      sub\n      swap1\n      revert\n    tag_163:\n        /* \"@openzeppelin/contracts@4.7.3/token/ERC721/ERC721.sol\":2396:2401  owner */\n      dup1\n        /* \"@openzeppelin/contracts@4.7.3/token/ERC721/ERC721.sol\":2389:2401  return owner */\n      swap2\n      pop\n      pop\n        /* \"@openzeppelin/contracts@4.7.3/token/ERC721/ERC721.sol\":2190:2408  function ownerOf(uint256 tokenId) public view virtual override returns (address) {... */\n      swap2\n      swap1\n      pop\n      jump\t// out\n        /* \"@openzeppelin/contracts@4.7.3/token/ERC721/ERC721.sol\":1929:2133  function balanceOf(address owner) public view virtual override returns (uint256) {... */\n    tag_68:\n        /* \"@openzeppelin/contracts@4.7.3/token/ERC721/ERC721.sol\":2001:2008  uint256 */\n      0x00\n        /* \"@openzeppelin/contracts@4.7.3/token/ERC721/ERC721.sol\":2045:2046  0 */\n      dup1\n        /* \"@openzeppelin/contracts@4.7.3/token/ERC721/ERC721.sol\":2028:2047  owner != address(0) */\n      0xffffffffffffffffffffffffffffffffffffffff\n      and\n        /* \"@openzeppelin/contracts@4.7.3/token/ERC721/ERC721.sol\":2028:2033  owner */\n      dup3\n        /* \"@openzeppelin/contracts@4.7.3/token/ERC721/ERC721.sol\":2028:2047  owner != address(0) */\n      0xffffffffffffffffffffffffffffffffffffffff\n      and\n      eq\n      iszero\n        /* \"@openzeppelin/contracts@4.7.3/token/ERC721/ERC721.sol\":2020:2093  require(owner != address(0), \"ERC721: address zero is not a valid owner\") */\n      tag_167\n      jumpi\n      mload(0x40)\n      0x08c379a000000000000000000000000000000000000000000000000000000000\n      dup2\n      mstore\n      0x04\n      add\n      tag_168\n      swap1\n      tag_169\n      jump\t// in\n    tag_168:\n      mload(0x40)\n      dup1\n      swap2\n      sub\n      swap1\n      revert\n    tag_167:\n        /* \"@openzeppelin/contracts@4.7.3/token/ERC721/ERC721.sol\":2110:2119  _balances */\n      0x03\n        /* \"@openzeppelin/contracts@4.7.3/token/ERC721/ERC721.sol\":2110:2126  _balances[owner] */\n      0x00\n        /* \"@openzeppelin/contracts@4.7.3/token/ERC721/ERC721.sol\":2120:2125  owner */\n      dup4\n        /* \"@openzeppelin/contracts@4.7.3/token/ERC721/ERC721.sol\":2110:2126  _balances[owner] */\n      0xffffffffffffffffffffffffffffffffffffffff\n      and\n      0xffffffffffffffffffffffffffffffffffffffff\n      and\n      dup2\n      mstore\n      0x20\n      add\n      swap1\n      dup2\n      mstore\n      0x20\n      add\n      0x00\n      keccak256\n      sload\n        /* \"@openzeppelin/contracts@4.7.3/token/ERC721/ERC721.sol\":2103:2126  return _balances[owner] */\n      swap1\n      pop\n        /* \"@openzeppelin/contracts@4.7.3/token/ERC721/ERC721.sol\":1929:2133  function balanceOf(address owner) public view virtual override returns (uint256) {... */\n      swap2\n      swap1\n      pop\n      jump\t// out\n        /* \"@openzeppelin/contracts@4.7.3/access/Ownable.sol\":1831:1932  function renounceOwnership() public virtual onlyOwner {... */\n    tag_73:\n        /* \"@openzeppelin/contracts@4.7.3/access/Ownable.sol\":1094:1107  _checkOwner() */\n      tag_171\n        /* \"@openzeppelin/contracts@4.7.3/access/Ownable.sol\":1094:1105  _checkOwner */\n      tag_172\n        /* \"@openzeppelin/contracts@4.7.3/access/Ownable.sol\":1094:1107  _checkOwner() */\n      jump\t// in\n    tag_171:\n        /* \"@openzeppelin/contracts@4.7.3/access/Ownable.sol\":1895:1925  _transferOwnership(address(0)) */\n      tag_174\n        /* \"@openzeppelin/contracts@4.7.3/access/Ownable.sol\":1922:1923  0 */\n      0x00\n        /* \"@openzeppelin/contracts@4.7.3/access/Ownable.sol\":1895:1913  _transferOwnership */\n      tag_175\n        /* \"@openzeppelin/contracts@4.7.3/access/Ownable.sol\":1895:1925  _transferOwnership(address(0)) */\n      jump\t// in\n    tag_174:\n        /* \"@openzeppelin/contracts@4.7.3/access/Ownable.sol\":1831:1932  function renounceOwnership() public virtual onlyOwner {... */\n      jump\t// out\n        /* \"@openzeppelin/contracts@4.7.3/access/Ownable.sol\":1201:1286  function owner() public view virtual returns (address) {... */\n    tag_76:\n        /* \"@openzeppelin/contracts@4.7.3/access/Ownable.sol\":1247:1254  address */\n      0x00\n        /* \"@openzeppelin/contracts@4.7.3/access/Ownable.sol\":1273:1279  _owner */\n      0x06\n      0x00\n      swap1\n      sload\n      swap1\n      0x0100\n      exp\n      swap1\n      div\n      0xffffffffffffffffffffffffffffffffffffffff\n      and\n        /* \"@openzeppelin/contracts@4.7.3/access/Ownable.sol\":1266:1279  return _owner */\n      swap1\n      pop\n        /* \"@openzeppelin/contracts@4.7.3/access/Ownable.sol\":1201:1286  function owner() public view virtual returns (address) {... */\n      swap1\n      jump\t// out\n        /* \"@openzeppelin/contracts@4.7.3/token/ERC721/ERC721.sol\":2632:2734  function symbol() public view virtual override returns (string memory) {... */\n    tag_80:\n        /* \"@openzeppelin/contracts@4.7.3/token/ERC721/ERC721.sol\":2688:2701  string memory */\n      0x60\n        /* \"@openzeppelin/contracts@4.7.3/token/ERC721/ERC721.sol\":2720:2727  _symbol */\n      0x01\n        /* \"@openzeppelin/contracts@4.7.3/token/ERC721/ERC721.sol\":2713:2727  return _symbol */\n      dup1\n      sload\n      tag_178\n      swap1\n      tag_118\n      jump\t// in\n    tag_178:\n      dup1\n      0x1f\n      add\n      0x20\n      dup1\n      swap2\n      div\n      mul\n      0x20\n      add\n      mload(0x40)\n      swap1\n      dup2\n      add\n      0x40\n      mstore\n      dup1\n      swap3\n      swap2\n      swap1\n      dup2\n      dup2\n      mstore\n      0x20\n      add\n      dup3\n      dup1\n      sload\n      tag_179\n      swap1\n      tag_118\n      jump\t// in\n    tag_179:\n      dup1\n      iszero\n      tag_180\n      jumpi\n      dup1\n      0x1f\n      lt\n      tag_181\n      jumpi\n      0x0100\n      dup1\n      dup4\n      sload\n      div\n      mul\n      dup4\n      mstore\n      swap2\n      0x20\n      add\n      swap2\n      jump(tag_180)\n    tag_181:\n      dup3\n      add\n      swap2\n      swap1\n      0x00\n      mstore\n      keccak256(0x00, 0x20)\n      swap1\n    tag_182:\n      dup2\n      sload\n      dup2\n      mstore\n      swap1\n      0x01\n      add\n      swap1\n      0x20\n      add\n      dup1\n      dup4\n      gt\n      tag_182\n      jumpi\n      dup3\n      swap1\n      sub\n      0x1f\n      and\n      dup3\n      add\n      swap2\n    tag_180:\n      pop\n      pop\n      pop\n      pop\n      pop\n      swap1\n      pop\n        /* \"@openzeppelin/contracts@4.7.3/token/ERC721/ERC721.sol\":2632:2734  function symbol() public view virtual override returns (string memory) {... */\n      swap1\n      jump\t// out\n        /* \"@openzeppelin/contracts@4.7.3/token/ERC721/ERC721.sol\":4169:4322  function setApprovalForAll(address operator, bool approved) public virtual override {... */\n    tag_86:\n        /* \"@openzeppelin/contracts@4.7.3/token/ERC721/ERC721.sol\":4263:4315  _setApprovalForAll(_msgSender(), operator, approved) */\n      tag_184\n        /* \"@openzeppelin/contracts@4.7.3/token/ERC721/ERC721.sol\":4282:4294  _msgSender() */\n      tag_185\n        /* \"@openzeppelin/contracts@4.7.3/token/ERC721/ERC721.sol\":4282:4292  _msgSender */\n      tag_132\n        /* \"@openzeppelin/contracts@4.7.3/token/ERC721/ERC721.sol\":4282:4294  _msgSender() */\n      jump\t// in\n    tag_185:\n        /* \"@openzeppelin/contracts@4.7.3/token/ERC721/ERC721.sol\":4296:4304  operator */\n      dup4\n        /* \"@openzeppelin/contracts@4.7.3/token/ERC721/ERC721.sol\":4306:4314  approved */\n      dup4\n        /* \"@openzeppelin/contracts@4.7.3/token/ERC721/ERC721.sol\":4263:4281  _setApprovalForAll */\n      tag_186\n        /* \"@openzeppelin/contracts@4.7.3/token/ERC721/ERC721.sol\":4263:4315  _setApprovalForAll(_msgSender(), operator, approved) */\n      jump\t// in\n    tag_184:\n        /* \"@openzeppelin/contracts@4.7.3/token/ERC721/ERC721.sol\":4169:4322  function setApprovalForAll(address operator, bool approved) public virtual override {... */\n      pop\n      pop\n      jump\t// out\n        /* \"@openzeppelin/contracts@4.7.3/token/ERC721/ERC721.sol\":5250:5565  function safeTransferFrom(... */\n    tag_91:\n        /* \"@openzeppelin/contracts@4.7.3/token/ERC721/ERC721.sol\":5418:5459  _isApprovedOrOwner(_msgSender(), tokenId) */\n      tag_188\n        /* \"@openzeppelin/contracts@4.7.3/token/ERC721/ERC721.sol\":5437:5449  _msgSender() */\n      tag_189\n        /* \"@openzeppelin/contracts@4.7.3/token/ERC721/ERC721.sol\":5437:5447  _msgSender */\n      tag_132\n        /* \"@openzeppelin/contracts@4.7.3/token/ERC721/ERC721.sol\":5437:5449  _msgSender() */\n      jump\t// in\n    tag_189:\n        /* \"@openzeppelin/contracts@4.7.3/token/ERC721/ERC721.sol\":5451:5458  tokenId */\n      dup4\n        /* \"@openzeppelin/contracts@4.7.3/token/ERC721/ERC721.sol\":5418:5436  _isApprovedOrOwner */\n      tag_144\n        /* \"@openzeppelin/contracts@4.7.3/token/ERC721/ERC721.sol\":5418:5459  _isApprovedOrOwner(_msgSender(), tokenId) */\n      jump\t// in\n    tag_188:\n        /* \"@openzeppelin/contracts@4.7.3/token/ERC721/ERC721.sol\":5410:5510  require(_isApprovedOrOwner(_msgSender(), tokenId), \"ERC721: caller is not token owner nor approved\") */\n      tag_190\n      jumpi\n      mload(0x40)\n      0x08c379a000000000000000000000000000000000000000000000000000000000\n      dup2\n      mstore\n      0x04\n      add\n      tag_191\n      swap1\n      tag_147\n      jump\t// in\n    tag_191:\n      mload(0x40)\n      dup1\n      swap2\n      sub\n      swap1\n      revert\n    tag_190:\n        /* \"@openzeppelin/contracts@4.7.3/token/ERC721/ERC721.sol\":5520:5558  _safeTransfer(from, to, tokenId, data) */\n      tag_192\n        /* \"@openzeppelin/contracts@4.7.3/token/ERC721/ERC721.sol\":5534:5538  from */\n      dup5\n        /* \"@openzeppelin/contracts@4.7.3/token/ERC721/ERC721.sol\":5540:5542  to */\n      dup5\n        /* \"@openzeppelin/contracts@4.7.3/token/ERC721/ERC721.sol\":5544:5551  tokenId */\n      dup5\n        /* \"@openzeppelin/contracts@4.7.3/token/ERC721/ERC721.sol\":5553:5557  data */\n      dup5\n        /* \"@openzeppelin/contracts@4.7.3/token/ERC721/ERC721.sol\":5520:5533  _safeTransfer */\n      tag_193\n        /* \"@openzeppelin/contracts@4.7.3/token/ERC721/ERC721.sol\":5520:5558  _safeTransfer(from, to, tokenId, data) */\n      jump\t// in\n    tag_192:\n        /* \"@openzeppelin/contracts@4.7.3/token/ERC721/ERC721.sol\":5250:5565  function safeTransferFrom(... */\n      pop\n      pop\n      pop\n      pop\n      jump\t// out\n        /* \"DiplomaToken.sol\":376:416  uint256 public MINT_PRICE = 0.0005 ether */\n    tag_94:\n      sload(0x07)\n      dup2\n      jump\t// out\n        /* \"@openzeppelin/contracts@4.7.3/token/ERC721/ERC721.sol\":2800:3076  function tokenURI(uint256 tokenId) public view virtual override returns (string memory) {... */\n    tag_99:\n        /* \"@openzeppelin/contracts@4.7.3/token/ERC721/ERC721.sol\":2873:2886  string memory */\n      0x60\n        /* \"@openzeppelin/contracts@4.7.3/token/ERC721/ERC721.sol\":2898:2921  _requireMinted(tokenId) */\n      tag_195\n        /* \"@openzeppelin/contracts@4.7.3/token/ERC721/ERC721.sol\":2913:2920  tokenId */\n      dup3\n        /* \"@openzeppelin/contracts@4.7.3/token/ERC721/ERC721.sol\":2898:2912  _requireMinted */\n      tag_125\n        /* \"@openzeppelin/contracts@4.7.3/token/ERC721/ERC721.sol\":2898:2921  _requireMinted(tokenId) */\n      jump\t// in\n    tag_195:\n        /* \"@openzeppelin/contracts@4.7.3/token/ERC721/ERC721.sol\":2932:2953  string memory baseURI */\n      0x00\n        /* \"@openzeppelin/contracts@4.7.3/token/ERC721/ERC721.sol\":2956:2966  _baseURI() */\n      tag_196\n        /* \"@openzeppelin/contracts@4.7.3/token/ERC721/ERC721.sol\":2956:2964  _baseURI */\n      tag_197\n        /* \"@openzeppelin/contracts@4.7.3/token/ERC721/ERC721.sol\":2956:2966  _baseURI() */\n      jump\t// in\n    tag_196:\n        /* \"@openzeppelin/contracts@4.7.3/token/ERC721/ERC721.sol\":2932:2966  string memory baseURI = _baseURI() */\n      swap1\n      pop\n        /* \"@openzeppelin/contracts@4.7.3/token/ERC721/ERC721.sol\":3007:3008  0 */\n      0x00\n        /* \"@openzeppelin/contracts@4.7.3/token/ERC721/ERC721.sol\":2989:2996  baseURI */\n      dup2\n        /* \"@openzeppelin/contracts@4.7.3/token/ERC721/ERC721.sol\":2983:3004  bytes(baseURI).length */\n      mload\n        /* \"@openzeppelin/contracts@4.7.3/token/ERC721/ERC721.sol\":2983:3008  bytes(baseURI).length > 0 */\n      gt\n        /* \"@openzeppelin/contracts@4.7.3/token/ERC721/ERC721.sol\":2983:3069  bytes(baseURI).length > 0 ? string(abi.encodePacked(baseURI, tokenId.toString())) : \"\" */\n      tag_198\n      jumpi\n      mload(0x40)\n      dup1\n      0x20\n      add\n      0x40\n      mstore\n      dup1\n      0x00\n      dup2\n      mstore\n      pop\n      jump(tag_199)\n    tag_198:\n        /* \"@openzeppelin/contracts@4.7.3/token/ERC721/ERC721.sol\":3035:3042  baseURI */\n      dup1\n        /* \"@openzeppelin/contracts@4.7.3/token/ERC721/ERC721.sol\":3044:3062  tokenId.toString() */\n      tag_200\n        /* \"@openzeppelin/contracts@4.7.3/token/ERC721/ERC721.sol\":3044:3051  tokenId */\n      dup5\n        /* \"@openzeppelin/contracts@4.7.3/token/ERC721/ERC721.sol\":3044:3060  tokenId.toString */\n      tag_201\n        /* \"@openzeppelin/contracts@4.7.3/token/ERC721/ERC721.sol\":3044:3062  tokenId.toString() */\n      jump\t// in\n    tag_200:\n        /* \"@openzeppelin/contracts@4.7.3/token/ERC721/ERC721.sol\":3018:3063  abi.encodePacked(baseURI, tokenId.toString()) */\n      add(0x20, mload(0x40))\n      tag_202\n      swap3\n      swap2\n      swap1\n      tag_203\n      jump\t// in\n    tag_202:\n      mload(0x40)\n      0x20\n      dup2\n      dup4\n      sub\n      sub\n      dup2\n      mstore\n      swap1\n      0x40\n      mstore\n        /* \"@openzeppelin/contracts@4.7.3/token/ERC721/ERC721.sol\":2983:3069  bytes(baseURI).length > 0 ? string(abi.encodePacked(baseURI, tokenId.toString())) : \"\" */\n    tag_199:\n        /* \"@openzeppelin/contracts@4.7.3/token/ERC721/ERC721.sol\":2976:3069  return bytes(baseURI).length > 0 ? string(abi.encodePacked(baseURI, tokenId.toString())) : \"\" */\n      swap2\n      pop\n      pop\n        /* \"@openzeppelin/contracts@4.7.3/token/ERC721/ERC721.sol\":2800:3076  function tokenURI(uint256 tokenId) public view virtual override returns (string memory) {... */\n      swap2\n      swap1\n      pop\n      jump\t// out\n        /* \"@openzeppelin/contracts@4.7.3/token/ERC721/ERC721.sol\":4388:4550  function isApprovedForAll(address owner, address operator) public view virtual override returns (bool) {... */\n    tag_105:\n        /* \"@openzeppelin/contracts@4.7.3/token/ERC721/ERC721.sol\":4485:4489  bool */\n      0x00\n        /* \"@openzeppelin/contracts@4.7.3/token/ERC721/ERC721.sol\":4508:4526  _operatorApprovals */\n      0x05\n        /* \"@openzeppelin/contracts@4.7.3/token/ERC721/ERC721.sol\":4508:4533  _operatorApprovals[owner] */\n      0x00\n        /* \"@openzeppelin/contracts@4.7.3/token/ERC721/ERC721.sol\":4527:4532  owner */\n      dup5\n        /* \"@openzeppelin/contracts@4.7.3/token/ERC721/ERC721.sol\":4508:4533  _operatorApprovals[owner] */\n      0xffffffffffffffffffffffffffffffffffffffff\n      and\n      0xffffffffffffffffffffffffffffffffffffffff\n      and\n      dup2\n      mstore\n      0x20\n      add\n      swap1\n      dup2\n      mstore\n      0x20\n      add\n      0x00\n      keccak256\n        /* \"@openzeppelin/contracts@4.7.3/token/ERC721/ERC721.sol\":4508:4543  _operatorApprovals[owner][operator] */\n      0x00\n        /* \"@openzeppelin/contracts@4.7.3/token/ERC721/ERC721.sol\":4534:4542  operator */\n      dup4\n        /* \"@openzeppelin/contracts@4.7.3/token/ERC721/ERC721.sol\":4508:4543  _operatorApprovals[owner][operator] */\n      0xffffffffffffffffffffffffffffffffffffffff\n      and\n      0xffffffffffffffffffffffffffffffffffffffff\n      and\n      dup2\n      mstore\n      0x20\n      add\n      swap1\n      dup2\n      mstore\n      0x20\n      add\n      0x00\n      keccak256\n      0x00\n      swap1\n      sload\n      swap1\n      0x0100\n      exp\n      swap1\n      div\n      0xff\n      and\n        /* \"@openzeppelin/contracts@4.7.3/token/ERC721/ERC721.sol\":4501:4543  return _operatorApprovals[owner][operator] */\n      swap1\n      pop\n        /* \"@openzeppelin/contracts@4.7.3/token/ERC721/ERC721.sol\":4388:4550  function isApprovedForAll(address owner, address operator) public view virtual override returns (bool) {... */\n      swap3\n      swap2\n      pop\n      pop\n      jump\t// out\n        /* \"@openzeppelin/contracts@4.7.3/access/Ownable.sol\":2081:2279  function transferOwnership(address newOwner) public virtual onlyOwner {... */\n    tag_110:\n        /* \"@openzeppelin/contracts@4.7.3/access/Ownable.sol\":1094:1107  _checkOwner() */\n      tag_206\n        /* \"@openzeppelin/contracts@4.7.3/access/Ownable.sol\":1094:1105  _checkOwner */\n      tag_172\n        /* \"@openzeppelin/contracts@4.7.3/access/Ownable.sol\":1094:1107  _checkOwner() */\n      jump\t// in\n    tag_206:\n        /* \"@openzeppelin/contracts@4.7.3/access/Ownable.sol\":2189:2190  0 */\n      0x00\n        /* \"@openzeppelin/contracts@4.7.3/access/Ownable.sol\":2169:2191  newOwner != address(0) */\n      0xffffffffffffffffffffffffffffffffffffffff\n      and\n        /* \"@openzeppelin/contracts@4.7.3/access/Ownable.sol\":2169:2177  newOwner */\n      dup2\n        /* \"@openzeppelin/contracts@4.7.3/access/Ownable.sol\":2169:2191  newOwner != address(0) */\n      0xffffffffffffffffffffffffffffffffffffffff\n      and\n      eq\n      iszero\n        /* \"@openzeppelin/contracts@4.7.3/access/Ownable.sol\":2161:2234  require(newOwner != address(0), \"Ownable: new owner is the zero address\") */\n      tag_208\n      jumpi\n      mload(0x40)\n      0x08c379a000000000000000000000000000000000000000000000000000000000\n      dup2\n      mstore\n      0x04\n      add\n      tag_209\n      swap1\n      tag_210\n      jump\t// in\n    tag_209:\n      mload(0x40)\n      dup1\n      swap2\n      sub\n      swap1\n      revert\n    tag_208:\n        /* \"@openzeppelin/contracts@4.7.3/access/Ownable.sol\":2244:2272  _transferOwnership(newOwner) */\n      tag_211\n        /* \"@openzeppelin/contracts@4.7.3/access/Ownable.sol\":2263:2271  newOwner */\n      dup2\n        /* \"@openzeppelin/contracts@4.7.3/access/Ownable.sol\":2244:2262  _transferOwnership */\n      tag_175\n        /* \"@openzeppelin/contracts@4.7.3/access/Ownable.sol\":2244:2272  _transferOwnership(newOwner) */\n      jump\t// in\n    tag_211:\n        /* \"@openzeppelin/contracts@4.7.3/access/Ownable.sol\":2081:2279  function transferOwnership(address newOwner) public virtual onlyOwner {... */\n      pop\n      jump\t// out\n        /* \"@openzeppelin/contracts@4.7.3/utils/introspection/ERC165.sol\":829:984  function supportsInterface(bytes4 interfaceId) public view virtual override returns (bool) {... */\n    tag_115:\n        /* \"@openzeppelin/contracts@4.7.3/utils/introspection/ERC165.sol\":914:918  bool */\n      0x00\n        /* \"@openzeppelin/contracts@4.7.3/utils/introspection/ERC165.sol\":952:977  type(IERC165).interfaceId */\n      0x01ffc9a700000000000000000000000000000000000000000000000000000000\n        /* \"@openzeppelin/contracts@4.7.3/utils/introspection/ERC165.sol\":937:977  interfaceId == type(IERC165).interfaceId */\n      not(0xffffffffffffffffffffffffffffffffffffffffffffffffffffffff)\n      and\n        /* \"@openzeppelin/contracts@4.7.3/utils/introspection/ERC165.sol\":937:948  interfaceId */\n      dup3\n        /* \"@openzeppelin/contracts@4.7.3/utils/introspection/ERC165.sol\":937:977  interfaceId == type(IERC165).interfaceId */\n      not(0xffffffffffffffffffffffffffffffffffffffffffffffffffffffff)\n      and\n      eq\n        /* \"@openzeppelin/contracts@4.7.3/utils/introspection/ERC165.sol\":930:977  return interfaceId == type(IERC165).interfaceId */\n      swap1\n      pop\n        /* \"@openzeppelin/contracts@4.7.3/utils/introspection/ERC165.sol\":829:984  function supportsInterface(bytes4 interfaceId) public view virtual override returns (bool) {... */\n      swap2\n      swap1\n      pop\n      jump\t// out\n        /* \"@openzeppelin/contracts@4.7.3/token/ERC721/ERC721.sol\":11657:11790  function _requireMinted(uint256 tokenId) internal view virtual {... */\n    tag_125:\n        /* \"@openzeppelin/contracts@4.7.3/token/ERC721/ERC721.sol\":11738:11754  _exists(tokenId) */\n      tag_214\n        /* \"@openzeppelin/contracts@4.7.3/token/ERC721/ERC721.sol\":11746:11753  tokenId */\n      dup2\n        /* \"@openzeppelin/contracts@4.7.3/token/ERC721/ERC721.sol\":11738:11745  _exists */\n      tag_215\n        /* \"@openzeppelin/contracts@4.7.3/token/ERC721/ERC721.sol\":11738:11754  _exists(tokenId) */\n      jump\t// in\n    tag_214:\n        /* \"@openzeppelin/contracts@4.7.3/token/ERC721/ERC721.sol\":11730:11783  require(_exists(tokenId), \"ERC721: invalid token ID\") */\n      tag_216\n      jumpi\n      mload(0x40)\n      0x08c379a000000000000000000000000000000000000000000000000000000000\n      dup2\n      mstore\n      0x04\n      add\n      tag_217\n      swap1\n      tag_165\n      jump\t// in\n    tag_217:\n      mload(0x40)\n      dup1\n      swap2\n      sub\n      swap1\n      revert\n    tag_216:\n        /* \"@openzeppelin/contracts@4.7.3/token/ERC721/ERC721.sol\":11657:11790  function _requireMinted(uint256 tokenId) internal view virtual {... */\n      pop\n      jump\t// out\n        /* \"@openzeppelin/contracts@4.7.3/utils/Context.sol\":640:736  function _msgSender() internal view virtual returns (address) {... */\n    tag_132:\n        /* \"@openzeppelin/contracts@4.7.3/utils/Context.sol\":693:700  address */\n      0x00\n        /* \"@openzeppelin/contracts@4.7.3/utils/Context.sol\":719:729  msg.sender */\n      caller\n        /* \"@openzeppelin/contracts@4.7.3/utils/Context.sol\":712:729  return msg.sender */\n      swap1\n      pop\n        /* \"@openzeppelin/contracts@4.7.3/utils/Context.sol\":640:736  function _msgSender() internal view virtual returns (address) {... */\n      swap1\n      jump\t// out\n        /* \"@openzeppelin/contracts@4.7.3/token/ERC721/ERC721.sol\":10959:11130  function _approve(address to, uint256 tokenId) internal virtual {... */\n    tag_140:\n        /* \"@openzeppelin/contracts@4.7.3/token/ERC721/ERC721.sol\":11060:11062  to */\n      dup2\n        /* \"@openzeppelin/contracts@4.7.3/token/ERC721/ERC721.sol\":11033:11048  _tokenApprovals */\n      0x04\n        /* \"@openzeppelin/contracts@4.7.3/token/ERC721/ERC721.sol\":11033:11057  _tokenApprovals[tokenId] */\n      0x00\n        /* \"@openzeppelin/contracts@4.7.3/token/ERC721/ERC721.sol\":11049:11056  tokenId */\n      dup4\n        /* \"@openzeppelin/contracts@4.7.3/token/ERC721/ERC721.sol\":11033:11057  _tokenApprovals[tokenId] */\n      dup2\n      mstore\n      0x20\n      add\n      swap1\n      dup2\n      mstore\n      0x20\n      add\n      0x00\n      keccak256\n      0x00\n        /* \"@openzeppelin/contracts@4.7.3/token/ERC721/ERC721.sol\":11033:11062  _tokenApprovals[tokenId] = to */\n      0x0100\n      exp\n      dup2\n      sload\n      dup2\n      0xffffffffffffffffffffffffffffffffffffffff\n      mul\n      not\n      and\n      swap1\n      dup4\n      0xffffffffffffffffffffffffffffffffffffffff\n      and\n      mul\n      or\n      swap1\n      sstore\n      pop\n        /* \"@openzeppelin/contracts@4.7.3/token/ERC721/ERC721.sol\":11115:11122  tokenId */\n      dup1\n        /* \"@openzeppelin/contracts@4.7.3/token/ERC721/ERC721.sol\":11111:11113  to */\n      dup3\n        /* \"@openzeppelin/contracts@4.7.3/token/ERC721/ERC721.sol\":11077:11123  Approval(ERC721.ownerOf(tokenId), to, tokenId) */\n      0xffffffffffffffffffffffffffffffffffffffff\n      and\n        /* \"@openzeppelin/contracts@4.7.3/token/ERC721/ERC721.sol\":11086:11109  ERC721.ownerOf(tokenId) */\n      tag_220\n        /* \"@openzeppelin/contracts@4.7.3/token/ERC721/ERC721.sol\":11101:11108  tokenId */\n      dup4\n        /* \"@openzeppelin/contracts@4.7.3/token/ERC721/ERC721.sol\":11086:11100  ERC721.ownerOf */\n      tag_63\n        /* \"@openzeppelin/contracts@4.7.3/token/ERC721/ERC721.sol\":11086:11109  ERC721.ownerOf(tokenId) */\n      jump\t// in\n    tag_220:\n        /* \"@openzeppelin/contracts@4.7.3/token/ERC721/ERC721.sol\":11077:11123  Approval(ERC721.ownerOf(tokenId), to, tokenId) */\n      0xffffffffffffffffffffffffffffffffffffffff\n      and\n      0x8c5be1e5ebec7d5bd14f71427d1e84f3dd0314c0f7b2291e5b200ac8c7c3b925\n      mload(0x40)\n      mload(0x40)\n      dup1\n      swap2\n      sub\n      swap1\n      log4\n        /* \"@openzeppelin/contracts@4.7.3/token/ERC721/ERC721.sol\":10959:11130  function _approve(address to, uint256 tokenId) internal virtual {... */\n      pop\n      pop\n      jump\t// out\n        /* \"@openzeppelin/contracts@4.7.3/token/ERC721/ERC721.sol\":7317:7578  function _isApprovedOrOwner(address spender, uint256 tokenId) internal view virtual returns (bool) {... */\n    tag_144:\n        /* \"@openzeppelin/contracts@4.7.3/token/ERC721/ERC721.sol\":7410:7414  bool */\n      0x00\n        /* \"@openzeppelin/contracts@4.7.3/token/ERC721/ERC721.sol\":7426:7439  address owner */\n      dup1\n        /* \"@openzeppelin/contracts@4.7.3/token/ERC721/ERC721.sol\":7442:7465  ERC721.ownerOf(tokenId) */\n      tag_222\n        /* \"@openzeppelin/contracts@4.7.3/token/ERC721/ERC721.sol\":7457:7464  tokenId */\n      dup4\n        /* \"@openzeppelin/contracts@4.7.3/token/ERC721/ERC721.sol\":7442:7456  ERC721.ownerOf */\n      tag_63\n        /* \"@openzeppelin/contracts@4.7.3/token/ERC721/ERC721.sol\":7442:7465  ERC721.ownerOf(tokenId) */\n      jump\t// in\n    tag_222:\n        /* \"@openzeppelin/contracts@4.7.3/token/ERC721/ERC721.sol\":7426:7465  address owner = ERC721.ownerOf(tokenId) */\n      swap1\n      pop\n        /* \"@openzeppelin/contracts@4.7.3/token/ERC721/ERC721.sol\":7494:7499  owner */\n      dup1\n        /* \"@openzeppelin/contracts@4.7.3/token/ERC721/ERC721.sol\":7483:7499  spender == owner */\n      0xffffffffffffffffffffffffffffffffffffffff\n      and\n        /* \"@openzeppelin/contracts@4.7.3/token/ERC721/ERC721.sol\":7483:7490  spender */\n      dup5\n        /* \"@openzeppelin/contracts@4.7.3/token/ERC721/ERC721.sol\":7483:7499  spender == owner */\n      0xffffffffffffffffffffffffffffffffffffffff\n      and\n      eq\n        /* \"@openzeppelin/contracts@4.7.3/token/ERC721/ERC721.sol\":7483:7535  spender == owner || isApprovedForAll(owner, spender) */\n      dup1\n      tag_223\n      jumpi\n      pop\n        /* \"@openzeppelin/contracts@4.7.3/token/ERC721/ERC721.sol\":7503:7535  isApprovedForAll(owner, spender) */\n      tag_224\n        /* \"@openzeppelin/contracts@4.7.3/token/ERC721/ERC721.sol\":7520:7525  owner */\n      dup2\n        /* \"@openzeppelin/contracts@4.7.3/token/ERC721/ERC721.sol\":7527:7534  spender */\n      dup6\n        /* \"@openzeppelin/contracts@4.7.3/token/ERC721/ERC721.sol\":7503:7519  isApprovedForAll */\n      tag_105\n        /* \"@openzeppelin/contracts@4.7.3/token/ERC721/ERC721.sol\":7503:7535  isApprovedForAll(owner, spender) */\n      jump\t// in\n    tag_224:\n        /* \"@openzeppelin/contracts@4.7.3/token/ERC721/ERC721.sol\":7483:7535  spender == owner || isApprovedForAll(owner, spender) */\n    tag_223:\n        /* \"@openzeppelin/contracts@4.7.3/token/ERC721/ERC721.sol\":7483:7570  spender == owner || isApprovedForAll(owner, spender) || getApproved(tokenId) == spender */\n      dup1\n      tag_225\n      jumpi\n      pop\n        /* \"@openzeppelin/contracts@4.7.3/token/ERC721/ERC721.sol\":7563:7570  spender */\n      dup4\n        /* \"@openzeppelin/contracts@4.7.3/token/ERC721/ERC721.sol\":7539:7570  getApproved(tokenId) == spender */\n      0xffffffffffffffffffffffffffffffffffffffff\n      and\n        /* \"@openzeppelin/contracts@4.7.3/token/ERC721/ERC721.sol\":7539:7559  getApproved(tokenId) */\n      tag_226\n        /* \"@openzeppelin/contracts@4.7.3/token/ERC721/ERC721.sol\":7551:7558  tokenId */\n      dup5\n        /* \"@openzeppelin/contracts@4.7.3/token/ERC721/ERC721.sol\":7539:7550  getApproved */\n      tag_39\n        /* \"@openzeppelin/contracts@4.7.3/token/ERC721/ERC721.sol\":7539:7559  getApproved(tokenId) */\n      jump\t// in\n    tag_226:\n        /* \"@openzeppelin/contracts@4.7.3/token/ERC721/ERC721.sol\":7539:7570  getApproved(tokenId) == spender */\n      0xffffffffffffffffffffffffffffffffffffffff\n      and\n      eq\n        /* \"@openzeppelin/contracts@4.7.3/token/ERC721/ERC721.sol\":7483:7570  spender == owner || isApprovedForAll(owner, spender) || getApproved(tokenId) == spender */\n    tag_225:\n        /* \"@openzeppelin/contracts@4.7.3/token/ERC721/ERC721.sol\":7475:7571  return (spender == owner || isApprovedForAll(owner, spender) || getApproved(tokenId) == spender) */\n      swap2\n      pop\n      pop\n        /* \"@openzeppelin/contracts@4.7.3/token/ERC721/ERC721.sol\":7317:7578  function _isApprovedOrOwner(address spender, uint256 tokenId) internal view virtual returns (bool) {... */\n      swap3\n      swap2\n      pop\n      pop\n      jump\t// out\n        /* \"@openzeppelin/contracts@4.7.3/token/ERC721/ERC721.sol\":10242:10847  function _transfer(... */\n    tag_149:\n        /* \"@openzeppelin/contracts@4.7.3/token/ERC721/ERC721.sol\":10396:10400  from */\n      dup3\n        /* \"@openzeppelin/contracts@4.7.3/token/ERC721/ERC721.sol\":10369:10400  ERC721.ownerOf(tokenId) == from */\n      0xffffffffffffffffffffffffffffffffffffffff\n      and\n        /* \"@openzeppelin/contracts@4.7.3/token/ERC721/ERC721.sol\":10369:10392  ERC721.ownerOf(tokenId) */\n      tag_228\n        /* \"@openzeppelin/contracts@4.7.3/token/ERC721/ERC721.sol\":10384:10391  tokenId */\n      dup3\n        /* \"@openzeppelin/contracts@4.7.3/token/ERC721/ERC721.sol\":10369:10383  ERC721.ownerOf */\n      tag_63\n        /* \"@openzeppelin/contracts@4.7.3/token/ERC721/ERC721.sol\":10369:10392  ERC721.ownerOf(tokenId) */\n      jump\t// in\n    tag_228:\n        /* \"@openzeppelin/contracts@4.7.3/token/ERC721/ERC721.sol\":10369:10400  ERC721.ownerOf(tokenId) == from */\n      0xffffffffffffffffffffffffffffffffffffffff\n      and\n      eq\n        /* \"@openzeppelin/contracts@4.7.3/token/ERC721/ERC721.sol\":10361:10442  require(ERC721.ownerOf(tokenId) == from, \"ERC721: transfer from incorrect owner\") */\n      tag_229\n      jumpi\n      mload(0x40)\n      0x08c379a000000000000000000000000000000000000000000000000000000000\n      dup2\n      mstore\n      0x04\n      add\n      tag_230\n      swap1\n      tag_231\n      jump\t// in\n    tag_230:\n      mload(0x40)\n      dup1\n      swap2\n      sub\n      swap1\n      revert\n    tag_229:\n        /* \"@openzeppelin/contracts@4.7.3/token/ERC721/ERC721.sol\":10474:10475  0 */\n      0x00\n        /* \"@openzeppelin/contracts@4.7.3/token/ERC721/ERC721.sol\":10460:10476  to != address(0) */\n      0xffffffffffffffffffffffffffffffffffffffff\n      and\n        /* \"@openzeppelin/contracts@4.7.3/token/ERC721/ERC721.sol\":10460:10462  to */\n      dup3\n        /* \"@openzeppelin/contracts@4.7.3/token/ERC721/ERC721.sol\":10460:10476  to != address(0) */\n      0xffffffffffffffffffffffffffffffffffffffff\n      and\n      eq\n      iszero\n        /* \"@openzeppelin/contracts@4.7.3/token/ERC721/ERC721.sol\":10452:10517  require(to != address(0), \"ERC721: transfer to the zero address\") */\n      tag_232\n      jumpi\n      mload(0x40)\n      0x08c379a000000000000000000000000000000000000000000000000000000000\n      dup2\n      mstore\n      0x04\n      add\n      tag_233\n      swap1\n      tag_234\n      jump\t// in\n    tag_233:\n      mload(0x40)\n      dup1\n      swap2\n      sub\n      swap1\n      revert\n    tag_232:\n        /* \"@openzeppelin/contracts@4.7.3/token/ERC721/ERC721.sol\":10528:10567  _beforeTokenTransfer(from, to, tokenId) */\n      tag_235\n        /* \"@openzeppelin/contracts@4.7.3/token/ERC721/ERC721.sol\":10549:10553  from */\n      dup4\n        /* \"@openzeppelin/contracts@4.7.3/token/ERC721/ERC721.sol\":10555:10557  to */\n      dup4\n        /* \"@openzeppelin/contracts@4.7.3/token/ERC721/ERC721.sol\":10559:10566  tokenId */\n      dup4\n        /* \"@openzeppelin/contracts@4.7.3/token/ERC721/ERC721.sol\":10528:10548  _beforeTokenTransfer */\n      tag_236\n        /* \"@openzeppelin/contracts@4.7.3/token/ERC721/ERC721.sol\":10528:10567  _beforeTokenTransfer(from, to, tokenId) */\n      jump\t// in\n    tag_235:\n        /* \"@openzeppelin/contracts@4.7.3/token/ERC721/ERC721.sol\":10629:10658  _approve(address(0), tokenId) */\n      tag_237\n        /* \"@openzeppelin/contracts@4.7.3/token/ERC721/ERC721.sol\":10646:10647  0 */\n      0x00\n        /* \"@openzeppelin/contracts@4.7.3/token/ERC721/ERC721.sol\":10650:10657  tokenId */\n      dup3\n        /* \"@openzeppelin/contracts@4.7.3/token/ERC721/ERC721.sol\":10629:10637  _approve */\n      tag_140\n        /* \"@openzeppelin/contracts@4.7.3/token/ERC721/ERC721.sol\":10629:10658  _approve(address(0), tokenId) */\n      jump\t// in\n    tag_237:\n        /* \"@openzeppelin/contracts@4.7.3/token/ERC721/ERC721.sol\":10688:10689  1 */\n      0x01\n        /* \"@openzeppelin/contracts@4.7.3/token/ERC721/ERC721.sol\":10669:10678  _balances */\n      0x03\n        /* \"@openzeppelin/contracts@4.7.3/token/ERC721/ERC721.sol\":10669:10684  _balances[from] */\n      0x00\n        /* \"@openzeppelin/contracts@4.7.3/token/ERC721/ERC721.sol\":10679:10683  from */\n      dup6\n        /* \"@openzeppelin/contracts@4.7.3/token/ERC721/ERC721.sol\":10669:10684  _balances[from] */\n      0xffffffffffffffffffffffffffffffffffffffff\n      and\n      0xffffffffffffffffffffffffffffffffffffffff\n      and\n      dup2\n      mstore\n      0x20\n      add\n      swap1\n      dup2\n      mstore\n      0x20\n      add\n      0x00\n      keccak256\n      0x00\n        /* \"@openzeppelin/contracts@4.7.3/token/ERC721/ERC721.sol\":10669:10689  _balances[from] -= 1 */\n      dup3\n      dup3\n      sload\n      tag_238\n      swap2\n      swap1\n      tag_239\n      jump\t// in\n    tag_238:\n      swap3\n      pop\n      pop\n      dup2\n      swap1\n      sstore\n      pop\n        /* \"@openzeppelin/contracts@4.7.3/token/ERC721/ERC721.sol\":10716:10717  1 */\n      0x01\n        /* \"@openzeppelin/contracts@4.7.3/token/ERC721/ERC721.sol\":10699:10708  _balances */\n      0x03\n        /* \"@openzeppelin/contracts@4.7.3/token/ERC721/ERC721.sol\":10699:10712  _balances[to] */\n      0x00\n        /* \"@openzeppelin/contracts@4.7.3/token/ERC721/ERC721.sol\":10709:10711  to */\n      dup5\n        /* \"@openzeppelin/contracts@4.7.3/token/ERC721/ERC721.sol\":10699:10712  _balances[to] */\n      0xffffffffffffffffffffffffffffffffffffffff\n      and\n      0xffffffffffffffffffffffffffffffffffffffff\n      and\n      dup2\n      mstore\n      0x20\n      add\n      swap1\n      dup2\n      mstore\n      0x20\n      add\n      0x00\n      keccak256\n      0x00\n        /* \"@openzeppelin/contracts@4.7.3/token/ERC721/ERC721.sol\":10699:10717  _balances[to] += 1 */\n      dup3\n      dup3\n      sload\n      tag_240\n      swap2\n      swap1\n      tag_241\n      jump\t// in\n    tag_240:\n      swap3\n      pop\n      pop\n      dup2\n      swap1\n      sstore\n      pop\n        /* \"@openzeppelin/contracts@4.7.3/token/ERC721/ERC721.sol\":10746:10748  to */\n      dup2\n        /* \"@openzeppelin/contracts@4.7.3/token/ERC721/ERC721.sol\":10727:10734  _owners */\n      0x02\n        /* \"@openzeppelin/contracts@4.7.3/token/ERC721/ERC721.sol\":10727:10743  _owners[tokenId] */\n      0x00\n        /* \"@openzeppelin/contracts@4.7.3/token/ERC721/ERC721.sol\":10735:10742  tokenId */\n      dup4\n        /* \"@openzeppelin/contracts@4.7.3/token/ERC721/ERC721.sol\":10727:10743  _owners[tokenId] */\n      dup2\n      mstore\n      0x20\n      add\n      swap1\n      dup2\n      mstore\n      0x20\n      add\n      0x00\n      keccak256\n      0x00\n        /* \"@openzeppelin/contracts@4.7.3/token/ERC721/ERC721.sol\":10727:10748  _owners[tokenId] = to */\n      0x0100\n      exp\n      dup2\n      sload\n      dup2\n      0xffffffffffffffffffffffffffffffffffffffff\n      mul\n      not\n      and\n      swap1\n      dup4\n      0xffffffffffffffffffffffffffffffffffffffff\n      and\n      mul\n      or\n      swap1\n      sstore\n      pop\n        /* \"@openzeppelin/contracts@4.7.3/token/ERC721/ERC721.sol\":10783:10790  tokenId */\n      dup1\n        /* \"@openzeppelin/contracts@4.7.3/token/ERC721/ERC721.sol\":10779:10781  to */\n      dup3\n        /* \"@openzeppelin/contracts@4.7.3/token/ERC721/ERC721.sol\":10764:10791  Transfer(from, to, tokenId) */\n      0xffffffffffffffffffffffffffffffffffffffff\n      and\n        /* \"@openzeppelin/contracts@4.7.3/token/ERC721/ERC721.sol\":10773:10777  from */\n      dup5\n        /* \"@openzeppelin/contracts@4.7.3/token/ERC721/ERC721.sol\":10764:10791  Transfer(from, to, tokenId) */\n      0xffffffffffffffffffffffffffffffffffffffff\n      and\n      0xddf252ad1be2c89b69c2b068fc378daa952ba7f163c4a11628f55a4df523b3ef\n      mload(0x40)\n      mload(0x40)\n      dup1\n      swap2\n      sub\n      swap1\n      log4\n        /* \"@openzeppelin/contracts@4.7.3/token/ERC721/ERC721.sol\":10802:10840  _afterTokenTransfer(from, to, tokenId) */\n      tag_242\n        /* \"@openzeppelin/contracts@4.7.3/token/ERC721/ERC721.sol\":10822:10826  from */\n      dup4\n        /* \"@openzeppelin/contracts@4.7.3/token/ERC721/ERC721.sol\":10828:10830  to */\n      dup4\n        /* \"@openzeppelin/contracts@4.7.3/token/ERC721/ERC721.sol\":10832:10839  tokenId */\n      dup4\n        /* \"@openzeppelin/contracts@4.7.3/token/ERC721/ERC721.sol\":10802:10821  _afterTokenTransfer */\n      tag_243\n        /* \"@openzeppelin/contracts@4.7.3/token/ERC721/ERC721.sol\":10802:10840  _afterTokenTransfer(from, to, tokenId) */\n      jump\t// in\n    tag_242:\n        /* \"@openzeppelin/contracts@4.7.3/token/ERC721/ERC721.sol\":10242:10847  function _transfer(... */\n      pop\n      pop\n      pop\n      jump\t// out\n        /* \"@openzeppelin/contracts@4.7.3/utils/Counters.sol\":827:939  function current(Counter storage counter) internal view returns (uint256) {... */\n    tag_155:\n        /* \"@openzeppelin/contracts@4.7.3/utils/Counters.sol\":892:899  uint256 */\n      0x00\n        /* \"@openzeppelin/contracts@4.7.3/utils/Counters.sol\":918:925  counter */\n      dup2\n        /* \"@openzeppelin/contracts@4.7.3/utils/Counters.sol\":918:932  counter._value */\n      0x00\n      add\n      sload\n        /* \"@openzeppelin/contracts@4.7.3/utils/Counters.sol\":911:932  return counter._value */\n      swap1\n      pop\n        /* \"@openzeppelin/contracts@4.7.3/utils/Counters.sol\":827:939  function current(Counter storage counter) internal view returns (uint256) {... */\n      swap2\n      swap1\n      pop\n      jump\t// out\n        /* \"@openzeppelin/contracts@4.7.3/utils/Counters.sol\":945:1068  function increment(Counter storage counter) internal {... */\n    tag_157:\n        /* \"@openzeppelin/contracts@4.7.3/utils/Counters.sol\":1050:1051  1 */\n      0x01\n        /* \"@openzeppelin/contracts@4.7.3/utils/Counters.sol\":1032:1039  counter */\n      dup2\n        /* \"@openzeppelin/contracts@4.7.3/utils/Counters.sol\":1032:1046  counter._value */\n      0x00\n      add\n      0x00\n        /* \"@openzeppelin/contracts@4.7.3/utils/Counters.sol\":1032:1051  counter._value += 1 */\n      dup3\n      dup3\n      sload\n      add\n      swap3\n      pop\n      pop\n      dup2\n      swap1\n      sstore\n      pop\n        /* \"@openzeppelin/contracts@4.7.3/utils/Counters.sol\":945:1068  function increment(Counter storage counter) internal {... */\n      pop\n      jump\t// out\n        /* \"@openzeppelin/contracts@4.7.3/token/ERC721/ERC721.sol\":7908:8016  function _safeMint(address to, uint256 tokenId) internal virtual {... */\n    tag_159:\n        /* \"@openzeppelin/contracts@4.7.3/token/ERC721/ERC721.sol\":7983:8009  _safeMint(to, tokenId, \"\") */\n      tag_247\n        /* \"@openzeppelin/contracts@4.7.3/token/ERC721/ERC721.sol\":7993:7995  to */\n      dup3\n        /* \"@openzeppelin/contracts@4.7.3/token/ERC721/ERC721.sol\":7997:8004  tokenId */\n      dup3\n        /* \"@openzeppelin/contracts@4.7.3/token/ERC721/ERC721.sol\":7983:8009  _safeMint(to, tokenId, \"\") */\n      mload(0x40)\n      dup1\n      0x20\n      add\n      0x40\n      mstore\n      dup1\n      0x00\n      dup2\n      mstore\n      pop\n        /* \"@openzeppelin/contracts@4.7.3/token/ERC721/ERC721.sol\":7983:7992  _safeMint */\n      tag_248\n        /* \"@openzeppelin/contracts@4.7.3/token/ERC721/ERC721.sol\":7983:8009  _safeMint(to, tokenId, \"\") */\n      jump\t// in\n    tag_247:\n        /* \"@openzeppelin/contracts@4.7.3/token/ERC721/ERC721.sol\":7908:8016  function _safeMint(address to, uint256 tokenId) internal virtual {... */\n      pop\n      pop\n      jump\t// out\n        /* \"@openzeppelin/contracts@4.7.3/access/Ownable.sol\":1359:1489  function _checkOwner() internal view virtual {... */\n    tag_172:\n        /* \"@openzeppelin/contracts@4.7.3/access/Ownable.sol\":1433:1445  _msgSender() */\n      tag_250\n        /* \"@openzeppelin/contracts@4.7.3/access/Ownable.sol\":1433:1443  _msgSender */\n      tag_132\n        /* \"@openzeppelin/contracts@4.7.3/access/Ownable.sol\":1433:1445  _msgSender() */\n      jump\t// in\n    tag_250:\n        /* \"@openzeppelin/contracts@4.7.3/access/Ownable.sol\":1422:1445  owner() == _msgSender() */\n      0xffffffffffffffffffffffffffffffffffffffff\n      and\n        /* \"@openzeppelin/contracts@4.7.3/access/Ownable.sol\":1422:1429  owner() */\n      tag_251\n        /* \"@openzeppelin/contracts@4.7.3/access/Ownable.sol\":1422:1427  owner */\n      tag_76\n        /* \"@openzeppelin/contracts@4.7.3/access/Ownable.sol\":1422:1429  owner() */\n      jump\t// in\n    tag_251:\n        /* \"@openzeppelin/contracts@4.7.3/access/Ownable.sol\":1422:1445  owner() == _msgSender() */\n      0xffffffffffffffffffffffffffffffffffffffff\n      and\n      eq\n        /* \"@openzeppelin/contracts@4.7.3/access/Ownable.sol\":1414:1482  require(owner() == _msgSender(), \"Ownable: caller is not the owner\") */\n      tag_252\n      jumpi\n      mload(0x40)\n      0x08c379a000000000000000000000000000000000000000000000000000000000\n      dup2\n      mstore\n      0x04\n      add\n      tag_253\n      swap1\n      tag_254\n      jump\t// in\n    tag_253:\n      mload(0x40)\n      dup1\n      swap2\n      sub\n      swap1\n      revert\n    tag_252:\n        /* \"@openzeppelin/contracts@4.7.3/access/Ownable.sol\":1359:1489  function _checkOwner() internal view virtual {... */\n      jump\t// out\n        /* \"@openzeppelin/contracts@4.7.3/access/Ownable.sol\":2433:2620  function _transferOwnership(address newOwner) internal virtual {... */\n    tag_175:\n        /* \"@openzeppelin/contracts@4.7.3/access/Ownable.sol\":2506:2522  address oldOwner */\n      0x00\n        /* \"@openzeppelin/contracts@4.7.3/access/Ownable.sol\":2525:2531  _owner */\n      0x06\n      0x00\n      swap1\n      sload\n      swap1\n      0x0100\n      exp\n      swap1\n      div\n      0xffffffffffffffffffffffffffffffffffffffff\n      and\n        /* \"@openzeppelin/contracts@4.7.3/access/Ownable.sol\":2506:2531  address oldOwner = _owner */\n      swap1\n      pop\n        /* \"@openzeppelin/contracts@4.7.3/access/Ownable.sol\":2550:2558  newOwner */\n      dup2\n        /* \"@openzeppelin/contracts@4.7.3/access/Ownable.sol\":2541:2547  _owner */\n      0x06\n      0x00\n        /* \"@openzeppelin/contracts@4.7.3/access/Ownable.sol\":2541:2558  _owner = newOwner */\n      0x0100\n      exp\n      dup2\n      sload\n      dup2\n      0xffffffffffffffffffffffffffffffffffffffff\n      mul\n      not\n      and\n      swap1\n      dup4\n      0xffffffffffffffffffffffffffffffffffffffff\n      and\n      mul\n      or\n      swap1\n      sstore\n      pop\n        /* \"@openzeppelin/contracts@4.7.3/access/Ownable.sol\":2604:2612  newOwner */\n      dup2\n        /* \"@openzeppelin/contracts@4.7.3/access/Ownable.sol\":2573:2613  OwnershipTransferred(oldOwner, newOwner) */\n      0xffffffffffffffffffffffffffffffffffffffff\n      and\n        /* \"@openzeppelin/contracts@4.7.3/access/Ownable.sol\":2594:2602  oldOwner */\n      dup2\n        /* \"@openzeppelin/contracts@4.7.3/access/Ownable.sol\":2573:2613  OwnershipTransferred(oldOwner, newOwner) */\n      0xffffffffffffffffffffffffffffffffffffffff\n      and\n      0x8be0079c531659141344cd1fd0a4f28419497f9722a3daafe3b4186f6b6457e0\n      mload(0x40)\n      mload(0x40)\n      dup1\n      swap2\n      sub\n      swap1\n      log3\n        /* \"@openzeppelin/contracts@4.7.3/access/Ownable.sol\":2433:2620  function _transferOwnership(address newOwner) internal virtual {... */\n      pop\n      pop\n      jump\t// out\n        /* \"@openzeppelin/contracts@4.7.3/token/ERC721/ERC721.sol\":11266:11573  function _setApprovalForAll(... */\n    tag_186:\n        /* \"@openzeppelin/contracts@4.7.3/token/ERC721/ERC721.sol\":11416:11424  operator */\n      dup2\n        /* \"@openzeppelin/contracts@4.7.3/token/ERC721/ERC721.sol\":11407:11424  owner != operator */\n      0xffffffffffffffffffffffffffffffffffffffff\n      and\n        /* \"@openzeppelin/contracts@4.7.3/token/ERC721/ERC721.sol\":11407:11412  owner */\n      dup4\n        /* \"@openzeppelin/contracts@4.7.3/token/ERC721/ERC721.sol\":11407:11424  owner != operator */\n      0xffffffffffffffffffffffffffffffffffffffff\n      and\n      eq\n      iszero\n        /* \"@openzeppelin/contracts@4.7.3/token/ERC721/ERC721.sol\":11399:11454  require(owner != operator, \"ERC721: approve to caller\") */\n      tag_257\n      jumpi\n      mload(0x40)\n      0x08c379a000000000000000000000000000000000000000000000000000000000\n      dup2\n      mstore\n      0x04\n      add\n      tag_258\n      swap1\n      tag_259\n      jump\t// in\n    tag_258:\n      mload(0x40)\n      dup1\n      swap2\n      sub\n      swap1\n      revert\n    tag_257:\n        /* \"@openzeppelin/contracts@4.7.3/token/ERC721/ERC721.sol\":11502:11510  approved */\n      dup1\n        /* \"@openzeppelin/contracts@4.7.3/token/ERC721/ERC721.sol\":11464:11482  _operatorApprovals */\n      0x05\n        /* \"@openzeppelin/contracts@4.7.3/token/ERC721/ERC721.sol\":11464:11489  _operatorApprovals[owner] */\n      0x00\n        /* \"@openzeppelin/contracts@4.7.3/token/ERC721/ERC721.sol\":11483:11488  owner */\n      dup6\n        /* \"@openzeppelin/contracts@4.7.3/token/ERC721/ERC721.sol\":11464:11489  _operatorApprovals[owner] */\n      0xffffffffffffffffffffffffffffffffffffffff\n      and\n      0xffffffffffffffffffffffffffffffffffffffff\n      and\n      dup2\n      mstore\n      0x20\n      add\n      swap1\n      dup2\n      mstore\n      0x20\n      add\n      0x00\n      keccak256\n        /* \"@openzeppelin/contracts@4.7.3/token/ERC721/ERC721.sol\":11464:11499  _operatorApprovals[owner][operator] */\n      0x00\n        /* \"@openzeppelin/contracts@4.7.3/token/ERC721/ERC721.sol\":11490:11498  operator */\n      dup5\n        /* \"@openzeppelin/contracts@4.7.3/token/ERC721/ERC721.sol\":11464:11499  _operatorApprovals[owner][operator] */\n      0xffffffffffffffffffffffffffffffffffffffff\n      and\n      0xffffffffffffffffffffffffffffffffffffffff\n      and\n      dup2\n      mstore\n      0x20\n      add\n      swap1\n      dup2\n      mstore\n      0x20\n      add\n      0x00\n      keccak256\n      0x00\n        /* \"@openzeppelin/contracts@4.7.3/token/ERC721/ERC721.sol\":11464:11510  _operatorApprovals[owner][operator] = approved */\n      0x0100\n      exp\n      dup2\n      sload\n      dup2\n      0xff\n      mul\n      not\n      and\n      swap1\n      dup4\n      iszero\n      iszero\n      mul\n      or\n      swap1\n      sstore\n      pop\n        /* \"@openzeppelin/contracts@4.7.3/token/ERC721/ERC721.sol\":11547:11555  operator */\n      dup2\n        /* \"@openzeppelin/contracts@4.7.3/token/ERC721/ERC721.sol\":11525:11566  ApprovalForAll(owner, operator, approved) */\n      0xffffffffffffffffffffffffffffffffffffffff\n      and\n        /* \"@openzeppelin/contracts@4.7.3/token/ERC721/ERC721.sol\":11540:11545  owner */\n      dup4\n        /* \"@openzeppelin/contracts@4.7.3/token/ERC721/ERC721.sol\":11525:11566  ApprovalForAll(owner, operator, approved) */\n      0xffffffffffffffffffffffffffffffffffffffff\n      and\n      0x17307eab39ab6107e8899845ad3d59bd9653f200f220920489ca2b5937696c31\n        /* \"@openzeppelin/contracts@4.7.3/token/ERC721/ERC721.sol\":11557:11565  approved */\n      dup4\n        /* \"@openzeppelin/contracts@4.7.3/token/ERC721/ERC721.sol\":11525:11566  ApprovalForAll(owner, operator, approved) */\n      mload(0x40)\n      tag_260\n      swap2\n      swap1\n      tag_29\n      jump\t// in\n    tag_260:\n      mload(0x40)\n      dup1\n      swap2\n      sub\n      swap1\n      log3\n        /* \"@openzeppelin/contracts@4.7.3/token/ERC721/ERC721.sol\":11266:11573  function _setApprovalForAll(... */\n      pop\n      pop\n      pop\n      jump\t// out\n        /* \"@openzeppelin/contracts@4.7.3/token/ERC721/ERC721.sol\":6426:6731  function _safeTransfer(... */\n    tag_193:\n        /* \"@openzeppelin/contracts@4.7.3/token/ERC721/ERC721.sol\":6576:6604  _transfer(from, to, tokenId) */\n      tag_262\n        /* \"@openzeppelin/contracts@4.7.3/token/ERC721/ERC721.sol\":6586:6590  from */\n      dup5\n        /* \"@openzeppelin/contracts@4.7.3/token/ERC721/ERC721.sol\":6592:6594  to */\n      dup5\n        /* \"@openzeppelin/contracts@4.7.3/token/ERC721/ERC721.sol\":6596:6603  tokenId */\n      dup5\n        /* \"@openzeppelin/contracts@4.7.3/token/ERC721/ERC721.sol\":6576:6585  _transfer */\n      tag_149\n        /* \"@openzeppelin/contracts@4.7.3/token/ERC721/ERC721.sol\":6576:6604  _transfer(from, to, tokenId) */\n      jump\t// in\n    tag_262:\n        /* \"@openzeppelin/contracts@4.7.3/token/ERC721/ERC721.sol\":6622:6669  _checkOnERC721Received(from, to, tokenId, data) */\n      tag_263\n        /* \"@openzeppelin/contracts@4.7.3/token/ERC721/ERC721.sol\":6645:6649  from */\n      dup5\n        /* \"@openzeppelin/contracts@4.7.3/token/ERC721/ERC721.sol\":6651:6653  to */\n      dup5\n        /* \"@openzeppelin/contracts@4.7.3/token/ERC721/ERC721.sol\":6655:6662  tokenId */\n      dup5\n        /* \"@openzeppelin/contracts@4.7.3/token/ERC721/ERC721.sol\":6664:6668  data */\n      dup5\n        /* \"@openzeppelin/contracts@4.7.3/token/ERC721/ERC721.sol\":6622:6644  _checkOnERC721Received */\n      tag_264\n        /* \"@openzeppelin/contracts@4.7.3/token/ERC721/ERC721.sol\":6622:6669  _checkOnERC721Received(from, to, tokenId, data) */\n      jump\t// in\n    tag_263:\n        /* \"@openzeppelin/contracts@4.7.3/token/ERC721/ERC721.sol\":6614:6724  require(_checkOnERC721Received(from, to, tokenId, data), \"ERC721: transfer to non ERC721Receiver implementer\") */\n      tag_265\n      jumpi\n      mload(0x40)\n      0x08c379a000000000000000000000000000000000000000000000000000000000\n      dup2\n      mstore\n      0x04\n      add\n      tag_266\n      swap1\n      tag_267\n      jump\t// in\n    tag_266:\n      mload(0x40)\n      dup1\n      swap2\n      sub\n      swap1\n      revert\n    tag_265:\n        /* \"@openzeppelin/contracts@4.7.3/token/ERC721/ERC721.sol\":6426:6731  function _safeTransfer(... */\n      pop\n      pop\n      pop\n      pop\n      jump\t// out\n        /* \"DiplomaToken.sol\":591:706  function _baseURI() internal pure override returns (string memory) {... */\n    tag_197:\n        /* \"DiplomaToken.sol\":643:656  string memory */\n      0x60\n        /* \"DiplomaToken.sol\":668:699  return \"ipfs://DiplomaBaseURI/\" */\n      mload(0x40)\n      dup1\n      0x40\n      add\n      0x40\n      mstore\n      dup1\n      0x16\n      dup2\n      mstore\n      0x20\n      add\n      0x697066733a2f2f4469706c6f6d61426173655552492f00000000000000000000\n      dup2\n      mstore\n      pop\n      swap1\n      pop\n        /* \"DiplomaToken.sol\":591:706  function _baseURI() internal pure override returns (string memory) {... */\n      swap1\n      jump\t// out\n        /* \"@openzeppelin/contracts@4.7.3/utils/Strings.sol\":392:1095  function toString(uint256 value) internal pure returns (string memory) {... */\n    tag_201:\n        /* \"@openzeppelin/contracts@4.7.3/utils/Strings.sol\":448:461  string memory */\n      0x60\n        /* \"@openzeppelin/contracts@4.7.3/utils/Strings.sol\":674:675  0 */\n      0x00\n        /* \"@openzeppelin/contracts@4.7.3/utils/Strings.sol\":665:670  value */\n      dup3\n        /* \"@openzeppelin/contracts@4.7.3/utils/Strings.sol\":665:675  value == 0 */\n      eq\n        /* \"@openzeppelin/contracts@4.7.3/utils/Strings.sol\":661:712  if (value == 0) {... */\n      iszero\n      tag_270\n      jumpi\n        /* \"@openzeppelin/contracts@4.7.3/utils/Strings.sol\":691:701  return \"0\" */\n      mload(0x40)\n      dup1\n      0x40\n      add\n      0x40\n      mstore\n      dup1\n      0x01\n      dup2\n      mstore\n      0x20\n      add\n      0x3000000000000000000000000000000000000000000000000000000000000000\n      dup2\n      mstore\n      pop\n      swap1\n      pop\n      jump(tag_269)\n        /* \"@openzeppelin/contracts@4.7.3/utils/Strings.sol\":661:712  if (value == 0) {... */\n    tag_270:\n        /* \"@openzeppelin/contracts@4.7.3/utils/Strings.sol\":721:733  uint256 temp */\n      0x00\n        /* \"@openzeppelin/contracts@4.7.3/utils/Strings.sol\":736:741  value */\n      dup3\n        /* \"@openzeppelin/contracts@4.7.3/utils/Strings.sol\":721:741  uint256 temp = value */\n      swap1\n      pop\n        /* \"@openzeppelin/contracts@4.7.3/utils/Strings.sol\":751:765  uint256 digits */\n      0x00\n        /* \"@openzeppelin/contracts@4.7.3/utils/Strings.sol\":775:850  while (temp != 0) {... */\n    tag_271:\n        /* \"@openzeppelin/contracts@4.7.3/utils/Strings.sol\":790:791  0 */\n      0x00\n        /* \"@openzeppelin/contracts@4.7.3/utils/Strings.sol\":782:786  temp */\n      dup3\n        /* \"@openzeppelin/contracts@4.7.3/utils/Strings.sol\":782:791  temp != 0 */\n      eq\n        /* \"@openzeppelin/contracts@4.7.3/utils/Strings.sol\":775:850  while (temp != 0) {... */\n      tag_272\n      jumpi\n        /* \"@openzeppelin/contracts@4.7.3/utils/Strings.sol\":807:815  digits++ */\n      dup1\n      dup1\n      tag_273\n      swap1\n      tag_274\n      jump\t// in\n    tag_273:\n      swap2\n      pop\n      pop\n        /* \"@openzeppelin/contracts@4.7.3/utils/Strings.sol\":837:839  10 */\n      0x0a\n        /* \"@openzeppelin/contracts@4.7.3/utils/Strings.sol\":829:839  temp /= 10 */\n      dup3\n      tag_275\n      swap2\n      swap1\n      tag_276\n      jump\t// in\n    tag_275:\n      swap2\n      pop\n        /* \"@openzeppelin/contracts@4.7.3/utils/Strings.sol\":775:850  while (temp != 0) {... */\n      jump(tag_271)\n    tag_272:\n        /* \"@openzeppelin/contracts@4.7.3/utils/Strings.sol\":859:878  bytes memory buffer */\n      0x00\n        /* \"@openzeppelin/contracts@4.7.3/utils/Strings.sol\":891:897  digits */\n      dup2\n        /* \"@openzeppelin/contracts@4.7.3/utils/Strings.sol\":881:898  new bytes(digits) */\n      0xffffffffffffffff\n      dup2\n      gt\n      iszero\n      tag_277\n      jumpi\n      mstore(0x00, 0x4e487b7100000000000000000000000000000000000000000000000000000000)\n      mstore(0x04, 0x41)\n      revert(0x00, 0x24)\n    tag_277:\n      mload(0x40)\n      swap1\n      dup1\n      dup3\n      mstore\n      dup1\n      0x1f\n      add\n      not(0x1f)\n      and\n      0x20\n      add\n      dup3\n      add\n      0x40\n      mstore\n      dup1\n      iszero\n      tag_278\n      jumpi\n      dup2\n      0x20\n      add\n      0x01\n      dup3\n      mul\n      dup1\n      calldatasize\n      dup4\n      calldatacopy\n      dup1\n      dup3\n      add\n      swap2\n      pop\n      pop\n      swap1\n      pop\n    tag_278:\n      pop\n        /* \"@openzeppelin/contracts@4.7.3/utils/Strings.sol\":859:898  bytes memory buffer = new bytes(digits) */\n      swap1\n      pop\n        /* \"@openzeppelin/contracts@4.7.3/utils/Strings.sol\":908:1058  while (value != 0) {... */\n    tag_279:\n        /* \"@openzeppelin/contracts@4.7.3/utils/Strings.sol\":924:925  0 */\n      0x00\n        /* \"@openzeppelin/contracts@4.7.3/utils/Strings.sol\":915:920  value */\n      dup6\n        /* \"@openzeppelin/contracts@4.7.3/utils/Strings.sol\":915:925  value != 0 */\n      eq\n        /* \"@openzeppelin/contracts@4.7.3/utils/Strings.sol\":908:1058  while (value != 0) {... */\n      tag_280\n      jumpi\n        /* \"@openzeppelin/contracts@4.7.3/utils/Strings.sol\":951:952  1 */\n      0x01\n        /* \"@openzeppelin/contracts@4.7.3/utils/Strings.sol\":941:952  digits -= 1 */\n      dup3\n      tag_281\n      swap2\n      swap1\n      tag_239\n      jump\t// in\n    tag_281:\n      swap2\n      pop\n        /* \"@openzeppelin/contracts@4.7.3/utils/Strings.sol\":1017:1019  10 */\n      0x0a\n        /* \"@openzeppelin/contracts@4.7.3/utils/Strings.sol\":1009:1014  value */\n      dup6\n        /* \"@openzeppelin/contracts@4.7.3/utils/Strings.sol\":1009:1019  value % 10 */\n      tag_282\n      swap2\n      swap1\n      tag_283\n      jump\t// in\n    tag_282:\n        /* \"@openzeppelin/contracts@4.7.3/utils/Strings.sol\":996:998  48 */\n      0x30\n        /* \"@openzeppelin/contracts@4.7.3/utils/Strings.sol\":996:1020  48 + uint256(value % 10) */\n      tag_284\n      swap2\n      swap1\n      tag_241\n      jump\t// in\n    tag_284:\n        /* \"@openzeppelin/contracts@4.7.3/utils/Strings.sol\":983:1022  bytes1(uint8(48 + uint256(value % 10))) */\n      0xf8\n      shl\n        /* \"@openzeppelin/contracts@4.7.3/utils/Strings.sol\":966:972  buffer */\n      dup2\n        /* \"@openzeppelin/contracts@4.7.3/utils/Strings.sol\":973:979  digits */\n      dup4\n        /* \"@openzeppelin/contracts@4.7.3/utils/Strings.sol\":966:980  buffer[digits] */\n      dup2\n      mload\n      dup2\n      lt\n      tag_285\n      jumpi\n      mstore(0x00, 0x4e487b7100000000000000000000000000000000000000000000000000000000)\n      mstore(0x04, 0x32)\n      revert(0x00, 0x24)\n    tag_285:\n      0x20\n      add\n      add\n        /* \"@openzeppelin/contracts@4.7.3/utils/Strings.sol\":966:1022  buffer[digits] = bytes1(uint8(48 + uint256(value % 10))) */\n      swap1\n      not(0xffffffffffffffffffffffffffffffffffffffffffffffffffffffffffffff)\n      and\n      swap1\n      dup2\n      0x00\n      byte\n      swap1\n      mstore8\n      pop\n        /* \"@openzeppelin/contracts@4.7.3/utils/Strings.sol\":1045:1047  10 */\n      0x0a\n        /* \"@openzeppelin/contracts@4.7.3/utils/Strings.sol\":1036:1047  value /= 10 */\n      dup6\n      tag_286\n      swap2\n      swap1\n      tag_276\n      jump\t// in\n    tag_286:\n      swap5\n      pop\n        /* \"@openzeppelin/contracts@4.7.3/utils/Strings.sol\":908:1058  while (value != 0) {... */\n      jump(tag_279)\n    tag_280:\n        /* \"@openzeppelin/contracts@4.7.3/utils/Strings.sol\":1081:1087  buffer */\n      dup1\n        /* \"@openzeppelin/contracts@4.7.3/utils/Strings.sol\":1067:1088  return string(buffer) */\n      swap4\n      pop\n      pop\n      pop\n      pop\n        /* \"@openzeppelin/contracts@4.7.3/utils/Strings.sol\":392:1095  function toString(uint256 value) internal pure returns (string memory) {... */\n    tag_269:\n      swap2\n      swap1\n      pop\n      jump\t// out\n        /* \"@openzeppelin/contracts@4.7.3/token/ERC721/ERC721.sol\":7034:7159  function _exists(uint256 tokenId) internal view virtual returns (bool) {... */\n    tag_215:\n        /* \"@openzeppelin/contracts@4.7.3/token/ERC721/ERC721.sol\":7099:7103  bool */\n      0x00\n        /* \"@openzeppelin/contracts@4.7.3/token/ERC721/ERC721.sol\":7150:7151  0 */\n      dup1\n        /* \"@openzeppelin/contracts@4.7.3/token/ERC721/ERC721.sol\":7122:7152  _owners[tokenId] != address(0) */\n      0xffffffffffffffffffffffffffffffffffffffff\n      and\n        /* \"@openzeppelin/contracts@4.7.3/token/ERC721/ERC721.sol\":7122:7129  _owners */\n      0x02\n        /* \"@openzeppelin/contracts@4.7.3/token/ERC721/ERC721.sol\":7122:7138  _owners[tokenId] */\n      0x00\n        /* \"@openzeppelin/contracts@4.7.3/token/ERC721/ERC721.sol\":7130:7137  tokenId */\n      dup5\n        /* \"@openzeppelin/contracts@4.7.3/token/ERC721/ERC721.sol\":7122:7138  _owners[tokenId] */\n      dup2\n      mstore\n      0x20\n      add\n      swap1\n      dup2\n      mstore\n      0x20\n      add\n      0x00\n      keccak256\n      0x00\n      swap1\n      sload\n      swap1\n      0x0100\n      exp\n      swap1\n      div\n      0xffffffffffffffffffffffffffffffffffffffff\n      and\n        /* \"@openzeppelin/contracts@4.7.3/token/ERC721/ERC721.sol\":7122:7152  _owners[tokenId] != address(0) */\n      0xffffffffffffffffffffffffffffffffffffffff\n      and\n      eq\n      iszero\n        /* \"@openzeppelin/contracts@4.7.3/token/ERC721/ERC721.sol\":7115:7152  return _owners[tokenId] != address(0) */\n      swap1\n      pop\n        /* \"@openzeppelin/contracts@4.7.3/token/ERC721/ERC721.sol\":7034:7159  function _exists(uint256 tokenId) internal view virtual returns (bool) {... */\n      swap2\n      swap1\n      pop\n      jump\t// out\n        /* \"@openzeppelin/contracts@4.7.3/token/ERC721/ERC721.sol\":13729:13851  function _beforeTokenTransfer(... */\n    tag_236:\n      pop\n      pop\n      pop\n      jump\t// out\n        /* \"@openzeppelin/contracts@4.7.3/token/ERC721/ERC721.sol\":14223:14344  function _afterTokenTransfer(... */\n    tag_243:\n      pop\n      pop\n      pop\n      jump\t// out\n        /* \"@openzeppelin/contracts@4.7.3/token/ERC721/ERC721.sol\":8237:8546  function _safeMint(... */\n    tag_248:\n        /* \"@openzeppelin/contracts@4.7.3/token/ERC721/ERC721.sol\":8361:8379  _mint(to, tokenId) */\n      tag_291\n        /* \"@openzeppelin/contracts@4.7.3/token/ERC721/ERC721.sol\":8367:8369  to */\n      dup4\n        /* \"@openzeppelin/contracts@4.7.3/token/ERC721/ERC721.sol\":8371:8378  tokenId */\n      dup4\n        /* \"@openzeppelin/contracts@4.7.3/token/ERC721/ERC721.sol\":8361:8366  _mint */\n      tag_292\n        /* \"@openzeppelin/contracts@4.7.3/token/ERC721/ERC721.sol\":8361:8379  _mint(to, tokenId) */\n      jump\t// in\n    tag_291:\n        /* \"@openzeppelin/contracts@4.7.3/token/ERC721/ERC721.sol\":8410:8463  _checkOnERC721Received(address(0), to, tokenId, data) */\n      tag_293\n        /* \"@openzeppelin/contracts@4.7.3/token/ERC721/ERC721.sol\":8441:8442  0 */\n      0x00\n        /* \"@openzeppelin/contracts@4.7.3/token/ERC721/ERC721.sol\":8445:8447  to */\n      dup5\n        /* \"@openzeppelin/contracts@4.7.3/token/ERC721/ERC721.sol\":8449:8456  tokenId */\n      dup5\n        /* \"@openzeppelin/contracts@4.7.3/token/ERC721/ERC721.sol\":8458:8462  data */\n      dup5\n        /* \"@openzeppelin/contracts@4.7.3/token/ERC721/ERC721.sol\":8410:8432  _checkOnERC721Received */\n      tag_264\n        /* \"@openzeppelin/contracts@4.7.3/token/ERC721/ERC721.sol\":8410:8463  _checkOnERC721Received(address(0), to, tokenId, data) */\n      jump\t// in\n    tag_293:\n        /* \"@openzeppelin/contracts@4.7.3/token/ERC721/ERC721.sol\":8389:8539  require(... */\n      tag_294\n      jumpi\n      mload(0x40)\n      0x08c379a000000000000000000000000000000000000000000000000000000000\n      dup2\n      mstore\n      0x04\n      add\n      tag_295\n      swap1\n      tag_267\n      jump\t// in\n    tag_295:\n      mload(0x40)\n      dup1\n      swap2\n      sub\n      swap1\n      revert\n    tag_294:\n        /* \"@openzeppelin/contracts@4.7.3/token/ERC721/ERC721.sol\":8237:8546  function _safeMint(... */\n      pop\n      pop\n      pop\n      jump\t// out\n        /* \"@openzeppelin/contracts@4.7.3/token/ERC721/ERC721.sol\":12342:13173  function _checkOnERC721Received(... */\n    tag_264:\n        /* \"@openzeppelin/contracts@4.7.3/token/ERC721/ERC721.sol\":12491:12495  bool */\n      0x00\n        /* \"@openzeppelin/contracts@4.7.3/token/ERC721/ERC721.sol\":12511:12526  to.isContract() */\n      tag_297\n        /* \"@openzeppelin/contracts@4.7.3/token/ERC721/ERC721.sol\":12511:12513  to */\n      dup5\n        /* \"@openzeppelin/contracts@4.7.3/token/ERC721/ERC721.sol\":12511:12524  to.isContract */\n      0xffffffffffffffffffffffffffffffffffffffff\n      and\n      tag_298\n        /* \"@openzeppelin/contracts@4.7.3/token/ERC721/ERC721.sol\":12511:12526  to.isContract() */\n      jump\t// in\n    tag_297:\n        /* \"@openzeppelin/contracts@4.7.3/token/ERC721/ERC721.sol\":12507:13167  if (to.isContract()) {... */\n      iszero\n      tag_299\n      jumpi\n        /* \"@openzeppelin/contracts@4.7.3/token/ERC721/ERC721.sol\":12562:12564  to */\n      dup4\n        /* \"@openzeppelin/contracts@4.7.3/token/ERC721/ERC721.sol\":12546:12582  IERC721Receiver(to).onERC721Received */\n      0xffffffffffffffffffffffffffffffffffffffff\n      and\n      0x150b7a02\n        /* \"@openzeppelin/contracts@4.7.3/token/ERC721/ERC721.sol\":12583:12595  _msgSender() */\n      tag_300\n        /* \"@openzeppelin/contracts@4.7.3/token/ERC721/ERC721.sol\":12583:12593  _msgSender */\n      tag_132\n        /* \"@openzeppelin/contracts@4.7.3/token/ERC721/ERC721.sol\":12583:12595  _msgSender() */\n      jump\t// in\n    tag_300:\n        /* \"@openzeppelin/contracts@4.7.3/token/ERC721/ERC721.sol\":12597:12601  from */\n      dup8\n        /* \"@openzeppelin/contracts@4.7.3/token/ERC721/ERC721.sol\":12603:12610  tokenId */\n      dup7\n        /* \"@openzeppelin/contracts@4.7.3/token/ERC721/ERC721.sol\":12612:12616  data */\n      dup7\n        /* \"@openzeppelin/contracts@4.7.3/token/ERC721/ERC721.sol\":12546:12617  IERC721Receiver(to).onERC721Received(_msgSender(), from, tokenId, data) */\n      mload(0x40)\n      dup6\n      0xffffffff\n      and\n      0xe0\n      shl\n      dup2\n      mstore\n      0x04\n      add\n      tag_301\n      swap5\n      swap4\n      swap3\n      swap2\n      swap1\n      tag_302\n      jump\t// in\n    tag_301:\n      0x20\n      mload(0x40)\n      dup1\n      dup4\n      sub\n      dup2\n      0x00\n      dup8\n      dup1\n      extcodesize\n      iszero\n      dup1\n      iszero\n      tag_303\n      jumpi\n      0x00\n      dup1\n      revert\n    tag_303:\n      pop\n      gas\n      call\n      swap3\n      pop\n      pop\n      pop\n      dup1\n      iszero\n      tag_304\n      jumpi\n      pop\n      mload(0x40)\n      returndatasize\n      not(0x1f)\n      0x1f\n      dup3\n      add\n      and\n      dup3\n      add\n      dup1\n      0x40\n      mstore\n      pop\n      dup2\n      add\n      swap1\n      tag_305\n      swap2\n      swap1\n      tag_306\n      jump\t// in\n    tag_305:\n      0x01\n    tag_304:\n        /* \"@openzeppelin/contracts@4.7.3/token/ERC721/ERC721.sol\":12542:13115  try IERC721Receiver(to).onERC721Received(_msgSender(), from, tokenId, data) returns (bytes4 retval) {... */\n      tag_307\n      jumpi\n      returndatasize\n      dup1\n      0x00\n      dup2\n      eq\n      tag_312\n      jumpi\n      mload(0x40)\n      swap2\n      pop\n      and(add(returndatasize, 0x3f), not(0x1f))\n      dup3\n      add\n      0x40\n      mstore\n      returndatasize\n      dup3\n      mstore\n      returndatasize\n      0x00\n      0x20\n      dup5\n      add\n      returndatacopy\n      jump(tag_311)\n    tag_312:\n      0x60\n      swap2\n      pop\n    tag_311:\n      pop\n        /* \"@openzeppelin/contracts@4.7.3/token/ERC721/ERC721.sol\":12801:12802  0 */\n      0x00\n        /* \"@openzeppelin/contracts@4.7.3/token/ERC721/ERC721.sol\":12784:12790  reason */\n      dup2\n        /* \"@openzeppelin/contracts@4.7.3/token/ERC721/ERC721.sol\":12784:12797  reason.length */\n      mload\n        /* \"@openzeppelin/contracts@4.7.3/token/ERC721/ERC721.sol\":12784:12802  reason.length == 0 */\n      eq\n        /* \"@openzeppelin/contracts@4.7.3/token/ERC721/ERC721.sol\":12780:13101  if (reason.length == 0) {... */\n      iszero\n      tag_313\n      jumpi\n        /* \"@openzeppelin/contracts@4.7.3/token/ERC721/ERC721.sol\":12826:12886  revert(\"ERC721: transfer to non ERC721Receiver implementer\") */\n      mload(0x40)\n      0x08c379a000000000000000000000000000000000000000000000000000000000\n      dup2\n      mstore\n      0x04\n      add\n      tag_314\n      swap1\n      tag_267\n      jump\t// in\n    tag_314:\n      mload(0x40)\n      dup1\n      swap2\n      sub\n      swap1\n      revert\n        /* \"@openzeppelin/contracts@4.7.3/token/ERC721/ERC721.sol\":12780:13101  if (reason.length == 0) {... */\n    tag_313:\n        /* \"@openzeppelin/contracts@4.7.3/token/ERC721/ERC721.sol\":13053:13059  reason */\n      dup1\n        /* \"@openzeppelin/contracts@4.7.3/token/ERC721/ERC721.sol\":13047:13060  mload(reason) */\n      mload\n        /* \"@openzeppelin/contracts@4.7.3/token/ERC721/ERC721.sol\":13038:13044  reason */\n      dup2\n        /* \"@openzeppelin/contracts@4.7.3/token/ERC721/ERC721.sol\":13034:13036  32 */\n      0x20\n        /* \"@openzeppelin/contracts@4.7.3/token/ERC721/ERC721.sol\":13030:13045  add(32, reason) */\n      add\n        /* \"@openzeppelin/contracts@4.7.3/token/ERC721/ERC721.sol\":13023:13061  revert(add(32, reason), mload(reason)) */\n      revert\n        /* \"@openzeppelin/contracts@4.7.3/token/ERC721/ERC721.sol\":12542:13115  try IERC721Receiver(to).onERC721Received(_msgSender(), from, tokenId, data) returns (bytes4 retval) {... */\n    tag_307:\n        /* \"@openzeppelin/contracts@4.7.3/token/ERC721/ERC721.sol\":12677:12718  IERC721Receiver.onERC721Received.selector */\n      shl(0xe0, 0x150b7a02)\n        /* \"@openzeppelin/contracts@4.7.3/token/ERC721/ERC721.sol\":12667:12718  retval == IERC721Receiver.onERC721Received.selector */\n      not(0xffffffffffffffffffffffffffffffffffffffffffffffffffffffff)\n      and\n        /* \"@openzeppelin/contracts@4.7.3/token/ERC721/ERC721.sol\":12667:12673  retval */\n      dup2\n        /* \"@openzeppelin/contracts@4.7.3/token/ERC721/ERC721.sol\":12667:12718  retval == IERC721Receiver.onERC721Received.selector */\n      not(0xffffffffffffffffffffffffffffffffffffffffffffffffffffffff)\n      and\n      eq\n        /* \"@openzeppelin/contracts@4.7.3/token/ERC721/ERC721.sol\":12660:12718  return retval == IERC721Receiver.onERC721Received.selector */\n      swap2\n      pop\n      pop\n      jump(tag_296)\n        /* \"@openzeppelin/contracts@4.7.3/token/ERC721/ERC721.sol\":12507:13167  if (to.isContract()) {... */\n    tag_299:\n        /* \"@openzeppelin/contracts@4.7.3/token/ERC721/ERC721.sol\":13152:13156  true */\n      0x01\n        /* \"@openzeppelin/contracts@4.7.3/token/ERC721/ERC721.sol\":13145:13156  return true */\n      swap1\n      pop\n        /* \"@openzeppelin/contracts@4.7.3/token/ERC721/ERC721.sol\":12342:13173  function _checkOnERC721Received(... */\n    tag_296:\n      swap5\n      swap4\n      pop\n      pop\n      pop\n      pop\n      jump\t// out\n        /* \"@openzeppelin/contracts@4.7.3/token/ERC721/ERC721.sol\":8868:9295  function _mint(address to, uint256 tokenId) internal virtual {... */\n    tag_292:\n        /* \"@openzeppelin/contracts@4.7.3/token/ERC721/ERC721.sol\":8961:8962  0 */\n      0x00\n        /* \"@openzeppelin/contracts@4.7.3/token/ERC721/ERC721.sol\":8947:8963  to != address(0) */\n      0xffffffffffffffffffffffffffffffffffffffff\n      and\n        /* \"@openzeppelin/contracts@4.7.3/token/ERC721/ERC721.sol\":8947:8949  to */\n      dup3\n        /* \"@openzeppelin/contracts@4.7.3/token/ERC721/ERC721.sol\":8947:8963  to != address(0) */\n      0xffffffffffffffffffffffffffffffffffffffff\n      and\n      eq\n      iszero\n        /* \"@openzeppelin/contracts@4.7.3/token/ERC721/ERC721.sol\":8939:9000  require(to != address(0), \"ERC721: mint to the zero address\") */\n      tag_319\n      jumpi\n      mload(0x40)\n      0x08c379a000000000000000000000000000000000000000000000000000000000\n      dup2\n      mstore\n      0x04\n      add\n      tag_320\n      swap1\n      tag_321\n      jump\t// in\n    tag_320:\n      mload(0x40)\n      dup1\n      swap2\n      sub\n      swap1\n      revert\n    tag_319:\n        /* \"@openzeppelin/contracts@4.7.3/token/ERC721/ERC721.sol\":9019:9035  _exists(tokenId) */\n      tag_322\n        /* \"@openzeppelin/contracts@4.7.3/token/ERC721/ERC721.sol\":9027:9034  tokenId */\n      dup2\n        /* \"@openzeppelin/contracts@4.7.3/token/ERC721/ERC721.sol\":9019:9026  _exists */\n      tag_215\n        /* \"@openzeppelin/contracts@4.7.3/token/ERC721/ERC721.sol\":9019:9035  _exists(tokenId) */\n      jump\t// in\n    tag_322:\n        /* \"@openzeppelin/contracts@4.7.3/token/ERC721/ERC721.sol\":9018:9035  !_exists(tokenId) */\n      iszero\n        /* \"@openzeppelin/contracts@4.7.3/token/ERC721/ERC721.sol\":9010:9068  require(!_exists(tokenId), \"ERC721: token already minted\") */\n      tag_323\n      jumpi\n      mload(0x40)\n      0x08c379a000000000000000000000000000000000000000000000000000000000\n      dup2\n      mstore\n      0x04\n      add\n      tag_324\n      swap1\n      tag_325\n      jump\t// in\n    tag_324:\n      mload(0x40)\n      dup1\n      swap2\n      sub\n      swap1\n      revert\n    tag_323:\n        /* \"@openzeppelin/contracts@4.7.3/token/ERC721/ERC721.sol\":9079:9124  _beforeTokenTransfer(address(0), to, tokenId) */\n      tag_326\n        /* \"@openzeppelin/contracts@4.7.3/token/ERC721/ERC721.sol\":9108:9109  0 */\n      0x00\n        /* \"@openzeppelin/contracts@4.7.3/token/ERC721/ERC721.sol\":9112:9114  to */\n      dup4\n        /* \"@openzeppelin/contracts@4.7.3/token/ERC721/ERC721.sol\":9116:9123  tokenId */\n      dup4\n        /* \"@openzeppelin/contracts@4.7.3/token/ERC721/ERC721.sol\":9079:9099  _beforeTokenTransfer */\n      tag_236\n        /* \"@openzeppelin/contracts@4.7.3/token/ERC721/ERC721.sol\":9079:9124  _beforeTokenTransfer(address(0), to, tokenId) */\n      jump\t// in\n    tag_326:\n        /* \"@openzeppelin/contracts@4.7.3/token/ERC721/ERC721.sol\":9152:9153  1 */\n      0x01\n        /* \"@openzeppelin/contracts@4.7.3/token/ERC721/ERC721.sol\":9135:9144  _balances */\n      0x03\n        /* \"@openzeppelin/contracts@4.7.3/token/ERC721/ERC721.sol\":9135:9148  _balances[to] */\n      0x00\n        /* \"@openzeppelin/contracts@4.7.3/token/ERC721/ERC721.sol\":9145:9147  to */\n      dup5\n        /* \"@openzeppelin/contracts@4.7.3/token/ERC721/ERC721.sol\":9135:9148  _balances[to] */\n      0xffffffffffffffffffffffffffffffffffffffff\n      and\n      0xffffffffffffffffffffffffffffffffffffffff\n      and\n      dup2\n      mstore\n      0x20\n      add\n      swap1\n      dup2\n      mstore\n      0x20\n      add\n      0x00\n      keccak256\n      0x00\n        /* \"@openzeppelin/contracts@4.7.3/token/ERC721/ERC721.sol\":9135:9153  _balances[to] += 1 */\n      dup3\n      dup3\n      sload\n      tag_327\n      swap2\n      swap1\n      tag_241\n      jump\t// in\n    tag_327:\n      swap3\n      pop\n      pop\n      dup2\n      swap1\n      sstore\n      pop\n        /* \"@openzeppelin/contracts@4.7.3/token/ERC721/ERC721.sol\":9182:9184  to */\n      dup2\n        /* \"@openzeppelin/contracts@4.7.3/token/ERC721/ERC721.sol\":9163:9170  _owners */\n      0x02\n        /* \"@openzeppelin/contracts@4.7.3/token/ERC721/ERC721.sol\":9163:9179  _owners[tokenId] */\n      0x00\n        /* \"@openzeppelin/contracts@4.7.3/token/ERC721/ERC721.sol\":9171:9178  tokenId */\n      dup4\n        /* \"@openzeppelin/contracts@4.7.3/token/ERC721/ERC721.sol\":9163:9179  _owners[tokenId] */\n      dup2\n      mstore\n      0x20\n      add\n      swap1\n      dup2\n      mstore\n      0x20\n      add\n      0x00\n      keccak256\n      0x00\n        /* \"@openzeppelin/contracts@4.7.3/token/ERC721/ERC721.sol\":9163:9184  _owners[tokenId] = to */\n      0x0100\n      exp\n      dup2\n      sload\n      dup2\n      0xffffffffffffffffffffffffffffffffffffffff\n      mul\n      not\n      and\n      swap1\n      dup4\n      0xffffffffffffffffffffffffffffffffffffffff\n      and\n      mul\n      or\n      swap1\n      sstore\n      pop\n        /* \"@openzeppelin/contracts@4.7.3/token/ERC721/ERC721.sol\":9225:9232  tokenId */\n      dup1\n        /* \"@openzeppelin/contracts@4.7.3/token/ERC721/ERC721.sol\":9221:9223  to */\n      dup3\n        /* \"@openzeppelin/contracts@4.7.3/token/ERC721/ERC721.sol\":9200:9233  Transfer(address(0), to, tokenId) */\n      0xffffffffffffffffffffffffffffffffffffffff\n      and\n        /* \"@openzeppelin/contracts@4.7.3/token/ERC721/ERC721.sol\":9217:9218  0 */\n      0x00\n        /* \"@openzeppelin/contracts@4.7.3/token/ERC721/ERC721.sol\":9200:9233  Transfer(address(0), to, tokenId) */\n      0xffffffffffffffffffffffffffffffffffffffff\n      and\n      0xddf252ad1be2c89b69c2b068fc378daa952ba7f163c4a11628f55a4df523b3ef\n      mload(0x40)\n      mload(0x40)\n      dup1\n      swap2\n      sub\n      swap1\n      log4\n        /* \"@openzeppelin/contracts@4.7.3/token/ERC721/ERC721.sol\":9244:9288  _afterTokenTransfer(address(0), to, tokenId) */\n      tag_328\n        /* \"@openzeppelin/contracts@4.7.3/token/ERC721/ERC721.sol\":9272:9273  0 */\n      0x00\n        /* \"@openzeppelin/contracts@4.7.3/token/ERC721/ERC721.sol\":9276:9278  to */\n      dup4\n        /* \"@openzeppelin/contracts@4.7.3/token/ERC721/ERC721.sol\":9280:9287  tokenId */\n      dup4\n        /* \"@openzeppelin/contracts@4.7.3/token/ERC721/ERC721.sol\":9244:9263  _afterTokenTransfer */\n      tag_243\n        /* \"@openzeppelin/contracts@4.7.3/token/ERC721/ERC721.sol\":9244:9288  _afterTokenTransfer(address(0), to, tokenId) */\n      jump\t// in\n    tag_328:\n        /* \"@openzeppelin/contracts@4.7.3/token/ERC721/ERC721.sol\":8868:9295  function _mint(address to, uint256 tokenId) internal virtual {... */\n      pop\n      pop\n      jump\t// out\n        /* \"@openzeppelin/contracts@4.7.3/utils/Address.sol\":1175:1495  function isContract(address account) internal view returns (bool) {... */\n    tag_298:\n        /* \"@openzeppelin/contracts@4.7.3/utils/Address.sol\":1235:1239  bool */\n      0x00\n        /* \"@openzeppelin/contracts@4.7.3/utils/Address.sol\":1487:1488  0 */\n      dup1\n        /* \"@openzeppelin/contracts@4.7.3/utils/Address.sol\":1465:1472  account */\n      dup3\n        /* \"@openzeppelin/contracts@4.7.3/utils/Address.sol\":1465:1484  account.code.length */\n      0xffffffffffffffffffffffffffffffffffffffff\n      and\n      extcodesize\n        /* \"@openzeppelin/contracts@4.7.3/utils/Address.sol\":1465:1488  account.code.length > 0 */\n      gt\n        /* \"@openzeppelin/contracts@4.7.3/utils/Address.sol\":1458:1488  return account.code.length > 0 */\n      swap1\n      pop\n        /* \"@openzeppelin/contracts@4.7.3/utils/Address.sol\":1175:1495  function isContract(address account) internal view returns (bool) {... */\n      swap2\n      swap1\n      pop\n      jump\t// out\n        /* \"#utility.yul\":7:350   */\n    tag_331:\n        /* \"#utility.yul\":84:89   */\n      0x00\n        /* \"#utility.yul\":109:174   */\n      tag_333\n        /* \"#utility.yul\":125:173   */\n      tag_334\n        /* \"#utility.yul\":166:172   */\n      dup5\n        /* \"#utility.yul\":125:173   */\n      tag_335\n      jump\t// in\n    tag_334:\n        /* \"#utility.yul\":109:174   */\n      tag_336\n      jump\t// in\n    tag_333:\n        /* \"#utility.yul\":100:174   */\n      swap1\n      pop\n        /* \"#utility.yul\":197:203   */\n      dup3\n        /* \"#utility.yul\":190:195   */\n      dup2\n        /* \"#utility.yul\":183:204   */\n      mstore\n        /* \"#utility.yul\":235:239   */\n      0x20\n        /* \"#utility.yul\":228:233   */\n      dup2\n        /* \"#utility.yul\":224:240   */\n      add\n        /* \"#utility.yul\":273:276   */\n      dup5\n        /* \"#utility.yul\":264:270   */\n      dup5\n        /* \"#utility.yul\":259:262   */\n      dup5\n        /* \"#utility.yul\":255:271   */\n      add\n        /* \"#utility.yul\":252:277   */\n      gt\n        /* \"#utility.yul\":249:251   */\n      iszero\n      tag_337\n      jumpi\n        /* \"#utility.yul\":290:291   */\n      0x00\n        /* \"#utility.yul\":287:288   */\n      dup1\n        /* \"#utility.yul\":280:292   */\n      revert\n        /* \"#utility.yul\":249:251   */\n    tag_337:\n        /* \"#utility.yul\":303:344   */\n      tag_338\n        /* \"#utility.yul\":337:343   */\n      dup5\n        /* \"#utility.yul\":332:335   */\n      dup3\n        /* \"#utility.yul\":327:330   */\n      dup6\n        /* \"#utility.yul\":303:344   */\n      tag_339\n      jump\t// in\n    tag_338:\n        /* \"#utility.yul\":90:350   */\n      pop\n      swap4\n      swap3\n      pop\n      pop\n      pop\n      jump\t// out\n        /* \"#utility.yul\":356:495   */\n    tag_340:\n        /* \"#utility.yul\":402:407   */\n      0x00\n        /* \"#utility.yul\":440:446   */\n      dup2\n        /* \"#utility.yul\":427:447   */\n      calldataload\n        /* \"#utility.yul\":418:447   */\n      swap1\n      pop\n        /* \"#utility.yul\":456:489   */\n      tag_342\n        /* \"#utility.yul\":483:488   */\n      dup2\n        /* \"#utility.yul\":456:489   */\n      tag_343\n      jump\t// in\n    tag_342:\n        /* \"#utility.yul\":408:495   */\n      swap3\n      swap2\n      pop\n      pop\n      jump\t// out\n        /* \"#utility.yul\":501:634   */\n    tag_344:\n        /* \"#utility.yul\":544:549   */\n      0x00\n        /* \"#utility.yul\":582:588   */\n      dup2\n        /* \"#utility.yul\":569:589   */\n      calldataload\n        /* \"#utility.yul\":560:589   */\n      swap1\n      pop\n        /* \"#utility.yul\":598:628   */\n      tag_346\n        /* \"#utility.yul\":622:627   */\n      dup2\n        /* \"#utility.yul\":598:628   */\n      tag_347\n      jump\t// in\n    tag_346:\n        /* \"#utility.yul\":550:634   */\n      swap3\n      swap2\n      pop\n      pop\n      jump\t// out\n        /* \"#utility.yul\":640:777   */\n    tag_348:\n        /* \"#utility.yul\":685:690   */\n      0x00\n        /* \"#utility.yul\":723:729   */\n      dup2\n        /* \"#utility.yul\":710:730   */\n      calldataload\n        /* \"#utility.yul\":701:730   */\n      swap1\n      pop\n        /* \"#utility.yul\":739:771   */\n      tag_350\n        /* \"#utility.yul\":765:770   */\n      dup2\n        /* \"#utility.yul\":739:771   */\n      tag_351\n      jump\t// in\n    tag_350:\n        /* \"#utility.yul\":691:777   */\n      swap3\n      swap2\n      pop\n      pop\n      jump\t// out\n        /* \"#utility.yul\":783:924   */\n    tag_352:\n        /* \"#utility.yul\":839:844   */\n      0x00\n        /* \"#utility.yul\":870:876   */\n      dup2\n        /* \"#utility.yul\":864:877   */\n      mload\n        /* \"#utility.yul\":855:877   */\n      swap1\n      pop\n        /* \"#utility.yul\":886:918   */\n      tag_354\n        /* \"#utility.yul\":912:917   */\n      dup2\n        /* \"#utility.yul\":886:918   */\n      tag_351\n      jump\t// in\n    tag_354:\n        /* \"#utility.yul\":845:924   */\n      swap3\n      swap2\n      pop\n      pop\n      jump\t// out\n        /* \"#utility.yul\":943:1214   */\n    tag_355:\n        /* \"#utility.yul\":998:1003   */\n      0x00\n        /* \"#utility.yul\":1047:1050   */\n      dup3\n        /* \"#utility.yul\":1040:1044   */\n      0x1f\n        /* \"#utility.yul\":1032:1038   */\n      dup4\n        /* \"#utility.yul\":1028:1045   */\n      add\n        /* \"#utility.yul\":1024:1051   */\n      slt\n        /* \"#utility.yul\":1014:1016   */\n      tag_357\n      jumpi\n        /* \"#utility.yul\":1065:1066   */\n      0x00\n        /* \"#utility.yul\":1062:1063   */\n      dup1\n        /* \"#utility.yul\":1055:1067   */\n      revert\n        /* \"#utility.yul\":1014:1016   */\n    tag_357:\n        /* \"#utility.yul\":1105:1111   */\n      dup2\n        /* \"#utility.yul\":1092:1112   */\n      calldataload\n        /* \"#utility.yul\":1130:1208   */\n      tag_358\n        /* \"#utility.yul\":1204:1207   */\n      dup5\n        /* \"#utility.yul\":1196:1202   */\n      dup3\n        /* \"#utility.yul\":1189:1193   */\n      0x20\n        /* \"#utility.yul\":1181:1187   */\n      dup7\n        /* \"#utility.yul\":1177:1194   */\n      add\n        /* \"#utility.yul\":1130:1208   */\n      tag_331\n      jump\t// in\n    tag_358:\n        /* \"#utility.yul\":1121:1208   */\n      swap2\n      pop\n        /* \"#utility.yul\":1004:1214   */\n      pop\n      swap3\n      swap2\n      pop\n      pop\n      jump\t// out\n        /* \"#utility.yul\":1220:1359   */\n    tag_359:\n        /* \"#utility.yul\":1266:1271   */\n      0x00\n        /* \"#utility.yul\":1304:1310   */\n      dup2\n        /* \"#utility.yul\":1291:1311   */\n      calldataload\n        /* \"#utility.yul\":1282:1311   */\n      swap1\n      pop\n        /* \"#utility.yul\":1320:1353   */\n      tag_361\n        /* \"#utility.yul\":1347:1352   */\n      dup2\n        /* \"#utility.yul\":1320:1353   */\n      tag_362\n      jump\t// in\n    tag_361:\n        /* \"#utility.yul\":1272:1359   */\n      swap3\n      swap2\n      pop\n      pop\n      jump\t// out\n        /* \"#utility.yul\":1365:1627   */\n    tag_54:\n        /* \"#utility.yul\":1424:1430   */\n      0x00\n        /* \"#utility.yul\":1473:1475   */\n      0x20\n        /* \"#utility.yul\":1461:1470   */\n      dup3\n        /* \"#utility.yul\":1452:1459   */\n      dup5\n        /* \"#utility.yul\":1448:1471   */\n      sub\n        /* \"#utility.yul\":1444:1476   */\n      slt\n        /* \"#utility.yul\":1441:1443   */\n      iszero\n      tag_364\n      jumpi\n        /* \"#utility.yul\":1489:1490   */\n      0x00\n        /* \"#utility.yul\":1486:1487   */\n      dup1\n        /* \"#utility.yul\":1479:1491   */\n      revert\n        /* \"#utility.yul\":1441:1443   */\n    tag_364:\n        /* \"#utility.yul\":1532:1533   */\n      0x00\n        /* \"#utility.yul\":1557:1610   */\n      tag_365\n        /* \"#utility.yul\":1602:1609   */\n      dup5\n        /* \"#utility.yul\":1593:1599   */\n      dup3\n        /* \"#utility.yul\":1582:1591   */\n      dup6\n        /* \"#utility.yul\":1578:1600   */\n      add\n        /* \"#utility.yul\":1557:1610   */\n      tag_340\n      jump\t// in\n    tag_365:\n        /* \"#utility.yul\":1547:1610   */\n      swap2\n      pop\n        /* \"#utility.yul\":1503:1620   */\n      pop\n        /* \"#utility.yul\":1431:1627   */\n      swap3\n      swap2\n      pop\n      pop\n      jump\t// out\n        /* \"#utility.yul\":1633:2040   */\n    tag_104:\n        /* \"#utility.yul\":1701:1707   */\n      0x00\n        /* \"#utility.yul\":1709:1715   */\n      dup1\n        /* \"#utility.yul\":1758:1760   */\n      0x40\n        /* \"#utility.yul\":1746:1755   */\n      dup4\n        /* \"#utility.yul\":1737:1744   */\n      dup6\n        /* \"#utility.yul\":1733:1756   */\n      sub\n        /* \"#utility.yul\":1729:1761   */\n      slt\n        /* \"#utility.yul\":1726:1728   */\n      iszero\n      tag_367\n      jumpi\n        /* \"#utility.yul\":1774:1775   */\n      0x00\n        /* \"#utility.yul\":1771:1772   */\n      dup1\n        /* \"#utility.yul\":1764:1776   */\n      revert\n        /* \"#utility.yul\":1726:1728   */\n    tag_367:\n        /* \"#utility.yul\":1817:1818   */\n      0x00\n        /* \"#utility.yul\":1842:1895   */\n      tag_368\n        /* \"#utility.yul\":1887:1894   */\n      dup6\n        /* \"#utility.yul\":1878:1884   */\n      dup3\n        /* \"#utility.yul\":1867:1876   */\n      dup7\n        /* \"#utility.yul\":1863:1885   */\n      add\n        /* \"#utility.yul\":1842:1895   */\n      tag_340\n      jump\t// in\n    tag_368:\n        /* \"#utility.yul\":1832:1895   */\n      swap3\n      pop\n        /* \"#utility.yul\":1788:1905   */\n      pop\n        /* \"#utility.yul\":1944:1946   */\n      0x20\n        /* \"#utility.yul\":1970:2023   */\n      tag_369\n        /* \"#utility.yul\":2015:2022   */\n      dup6\n        /* \"#utility.yul\":2006:2012   */\n      dup3\n        /* \"#utility.yul\":1995:2004   */\n      dup7\n        /* \"#utility.yul\":1991:2013   */\n      add\n        /* \"#utility.yul\":1970:2023   */\n      tag_340\n      jump\t// in\n    tag_369:\n        /* \"#utility.yul\":1960:2023   */\n      swap2\n      pop\n        /* \"#utility.yul\":1915:2033   */\n      pop\n        /* \"#utility.yul\":1716:2040   */\n      swap3\n      pop\n      swap3\n      swap1\n      pop\n      jump\t// out\n        /* \"#utility.yul\":2046:2598   */\n    tag_50:\n        /* \"#utility.yul\":2123:2129   */\n      0x00\n        /* \"#utility.yul\":2131:2137   */\n      dup1\n        /* \"#utility.yul\":2139:2145   */\n      0x00\n        /* \"#utility.yul\":2188:2190   */\n      0x60\n        /* \"#utility.yul\":2176:2185   */\n      dup5\n        /* \"#utility.yul\":2167:2174   */\n      dup7\n        /* \"#utility.yul\":2163:2186   */\n      sub\n        /* \"#utility.yul\":2159:2191   */\n      slt\n        /* \"#utility.yul\":2156:2158   */\n      iszero\n      tag_371\n      jumpi\n        /* \"#utility.yul\":2204:2205   */\n      0x00\n        /* \"#utility.yul\":2201:2202   */\n      dup1\n        /* \"#utility.yul\":2194:2206   */\n      revert\n        /* \"#utility.yul\":2156:2158   */\n    tag_371:\n        /* \"#utility.yul\":2247:2248   */\n      0x00\n        /* \"#utility.yul\":2272:2325   */\n      tag_372\n        /* \"#utility.yul\":2317:2324   */\n      dup7\n        /* \"#utility.yul\":2308:2314   */\n      dup3\n        /* \"#utility.yul\":2297:2306   */\n      dup8\n        /* \"#utility.yul\":2293:2315   */\n      add\n        /* \"#utility.yul\":2272:2325   */\n      tag_340\n      jump\t// in\n    tag_372:\n        /* \"#utility.yul\":2262:2325   */\n      swap4\n      pop\n        /* \"#utility.yul\":2218:2335   */\n      pop\n        /* \"#utility.yul\":2374:2376   */\n      0x20\n        /* \"#utility.yul\":2400:2453   */\n      tag_373\n        /* \"#utility.yul\":2445:2452   */\n      dup7\n        /* \"#utility.yul\":2436:2442   */\n      dup3\n        /* \"#utility.yul\":2425:2434   */\n      dup8\n        /* \"#utility.yul\":2421:2443   */\n      add\n        /* \"#utility.yul\":2400:2453   */\n      tag_340\n      jump\t// in\n    tag_373:\n        /* \"#utility.yul\":2390:2453   */\n      swap3\n      pop\n        /* \"#utility.yul\":2345:2463   */\n      pop\n        /* \"#utility.yul\":2502:2504   */\n      0x40\n        /* \"#utility.yul\":2528:2581   */\n      tag_374\n        /* \"#utility.yul\":2573:2580   */\n      dup7\n        /* \"#utility.yul\":2564:2570   */\n      dup3\n        /* \"#utility.yul\":2553:2562   */\n      dup8\n        /* \"#utility.yul\":2549:2571   */\n      add\n        /* \"#utility.yul\":2528:2581   */\n      tag_359\n      jump\t// in\n    tag_374:\n        /* \"#utility.yul\":2518:2581   */\n      swap2\n      pop\n        /* \"#utility.yul\":2473:2591   */\n      pop\n        /* \"#utility.yul\":2146:2598   */\n      swap3\n      pop\n      swap3\n      pop\n      swap3\n      jump\t// out\n        /* \"#utility.yul\":2604:3413   */\n    tag_90:\n        /* \"#utility.yul\":2699:2705   */\n      0x00\n        /* \"#utility.yul\":2707:2713   */\n      dup1\n        /* \"#utility.yul\":2715:2721   */\n      0x00\n        /* \"#utility.yul\":2723:2729   */\n      dup1\n        /* \"#utility.yul\":2772:2775   */\n      0x80\n        /* \"#utility.yul\":2760:2769   */\n      dup6\n        /* \"#utility.yul\":2751:2758   */\n      dup8\n        /* \"#utility.yul\":2747:2770   */\n      sub\n        /* \"#utility.yul\":2743:2776   */\n      slt\n        /* \"#utility.yul\":2740:2742   */\n      iszero\n      tag_376\n      jumpi\n        /* \"#utility.yul\":2789:2790   */\n      0x00\n        /* \"#utility.yul\":2786:2787   */\n      dup1\n        /* \"#utility.yul\":2779:2791   */\n      revert\n        /* \"#utility.yul\":2740:2742   */\n    tag_376:\n        /* \"#utility.yul\":2832:2833   */\n      0x00\n        /* \"#utility.yul\":2857:2910   */\n      tag_377\n        /* \"#utility.yul\":2902:2909   */\n      dup8\n        /* \"#utility.yul\":2893:2899   */\n      dup3\n        /* \"#utility.yul\":2882:2891   */\n      dup9\n        /* \"#utility.yul\":2878:2900   */\n      add\n        /* \"#utility.yul\":2857:2910   */\n      tag_340\n      jump\t// in\n    tag_377:\n        /* \"#utility.yul\":2847:2910   */\n      swap5\n      pop\n        /* \"#utility.yul\":2803:2920   */\n      pop\n        /* \"#utility.yul\":2959:2961   */\n      0x20\n        /* \"#utility.yul\":2985:3038   */\n      tag_378\n        /* \"#utility.yul\":3030:3037   */\n      dup8\n        /* \"#utility.yul\":3021:3027   */\n      dup3\n        /* \"#utility.yul\":3010:3019   */\n      dup9\n        /* \"#utility.yul\":3006:3028   */\n      add\n        /* \"#utility.yul\":2985:3038   */\n      tag_340\n      jump\t// in\n    tag_378:\n        /* \"#utility.yul\":2975:3038   */\n      swap4\n      pop\n        /* \"#utility.yul\":2930:3048   */\n      pop\n        /* \"#utility.yul\":3087:3089   */\n      0x40\n        /* \"#utility.yul\":3113:3166   */\n      tag_379\n        /* \"#utility.yul\":3158:3165   */\n      dup8\n        /* \"#utility.yul\":3149:3155   */\n      dup3\n        /* \"#utility.yul\":3138:3147   */\n      dup9\n        /* \"#utility.yul\":3134:3156   */\n      add\n        /* \"#utility.yul\":3113:3166   */\n      tag_359\n      jump\t// in\n    tag_379:\n        /* \"#utility.yul\":3103:3166   */\n      swap3\n      pop\n        /* \"#utility.yul\":3058:3176   */\n      pop\n        /* \"#utility.yul\":3243:3245   */\n      0x60\n        /* \"#utility.yul\":3232:3241   */\n      dup6\n        /* \"#utility.yul\":3228:3246   */\n      add\n        /* \"#utility.yul\":3215:3247   */\n      calldataload\n        /* \"#utility.yul\":3274:3292   */\n      0xffffffffffffffff\n        /* \"#utility.yul\":3266:3272   */\n      dup2\n        /* \"#utility.yul\":3263:3293   */\n      gt\n        /* \"#utility.yul\":3260:3262   */\n      iszero\n      tag_380\n      jumpi\n        /* \"#utility.yul\":3306:3307   */\n      0x00\n        /* \"#utility.yul\":3303:3304   */\n      dup1\n        /* \"#utility.yul\":3296:3308   */\n      revert\n        /* \"#utility.yul\":3260:3262   */\n    tag_380:\n        /* \"#utility.yul\":3334:3396   */\n      tag_381\n        /* \"#utility.yul\":3388:3395   */\n      dup8\n        /* \"#utility.yul\":3379:3385   */\n      dup3\n        /* \"#utility.yul\":3368:3377   */\n      dup9\n        /* \"#utility.yul\":3364:3386   */\n      add\n        /* \"#utility.yul\":3334:3396   */\n      tag_355\n      jump\t// in\n    tag_381:\n        /* \"#utility.yul\":3324:3396   */\n      swap2\n      pop\n        /* \"#utility.yul\":3186:3406   */\n      pop\n        /* \"#utility.yul\":2730:3413   */\n      swap3\n      swap6\n      swap2\n      swap5\n      pop\n      swap3\n      pop\n      jump\t// out\n        /* \"#utility.yul\":3419:3820   */\n    tag_85:\n        /* \"#utility.yul\":3484:3490   */\n      0x00\n        /* \"#utility.yul\":3492:3498   */\n      dup1\n        /* \"#utility.yul\":3541:3543   */\n      0x40\n        /* \"#utility.yul\":3529:3538   */\n      dup4\n        /* \"#utility.yul\":3520:3527   */\n      dup6\n        /* \"#utility.yul\":3516:3539   */\n      sub\n        /* \"#utility.yul\":3512:3544   */\n      slt\n        /* \"#utility.yul\":3509:3511   */\n      iszero\n      tag_383\n      jumpi\n        /* \"#utility.yul\":3557:3558   */\n      0x00\n        /* \"#utility.yul\":3554:3555   */\n      dup1\n        /* \"#utility.yul\":3547:3559   */\n      revert\n        /* \"#utility.yul\":3509:3511   */\n    tag_383:\n        /* \"#utility.yul\":3600:3601   */\n      0x00\n        /* \"#utility.yul\":3625:3678   */\n      tag_384\n        /* \"#utility.yul\":3670:3677   */\n      dup6\n        /* \"#utility.yul\":3661:3667   */\n      dup3\n        /* \"#utility.yul\":3650:3659   */\n      dup7\n        /* \"#utility.yul\":3646:3668   */\n      add\n        /* \"#utility.yul\":3625:3678   */\n      tag_340\n      jump\t// in\n    tag_384:\n        /* \"#utility.yul\":3615:3678   */\n      swap3\n      pop\n        /* \"#utility.yul\":3571:3688   */\n      pop\n        /* \"#utility.yul\":3727:3729   */\n      0x20\n        /* \"#utility.yul\":3753:3803   */\n      tag_385\n        /* \"#utility.yul\":3795:3802   */\n      dup6\n        /* \"#utility.yul\":3786:3792   */\n      dup3\n        /* \"#utility.yul\":3775:3784   */\n      dup7\n        /* \"#utility.yul\":3771:3793   */\n      add\n        /* \"#utility.yul\":3753:3803   */\n      tag_344\n      jump\t// in\n    tag_385:\n        /* \"#utility.yul\":3743:3803   */\n      swap2\n      pop\n        /* \"#utility.yul\":3698:3813   */\n      pop\n        /* \"#utility.yul\":3499:3820   */\n      swap3\n      pop\n      swap3\n      swap1\n      pop\n      jump\t// out\n        /* \"#utility.yul\":3826:4233   */\n    tag_45:\n        /* \"#utility.yul\":3894:3900   */\n      0x00\n        /* \"#utility.yul\":3902:3908   */\n      dup1\n        /* \"#utility.yul\":3951:3953   */\n      0x40\n        /* \"#utility.yul\":3939:3948   */\n      dup4\n        /* \"#utility.yul\":3930:3937   */\n      dup6\n        /* \"#utility.yul\":3926:3949   */\n      sub\n        /* \"#utility.yul\":3922:3954   */\n      slt\n        /* \"#utility.yul\":3919:3921   */\n      iszero\n      tag_387\n      jumpi\n        /* \"#utility.yul\":3967:3968   */\n      0x00\n        /* \"#utility.yul\":3964:3965   */\n      dup1\n        /* \"#utility.yul\":3957:3969   */\n      revert\n        /* \"#utility.yul\":3919:3921   */\n    tag_387:\n        /* \"#utility.yul\":4010:4011   */\n      0x00\n        /* \"#utility.yul\":4035:4088   */\n      tag_388\n        /* \"#utility.yul\":4080:4087   */\n      dup6\n        /* \"#utility.yul\":4071:4077   */\n      dup3\n        /* \"#utility.yul\":4060:4069   */\n      dup7\n        /* \"#utility.yul\":4056:4078   */\n      add\n        /* \"#utility.yul\":4035:4088   */\n      tag_340\n      jump\t// in\n    tag_388:\n        /* \"#utility.yul\":4025:4088   */\n      swap3\n      pop\n        /* \"#utility.yul\":3981:4098   */\n      pop\n        /* \"#utility.yul\":4137:4139   */\n      0x20\n        /* \"#utility.yul\":4163:4216   */\n      tag_389\n        /* \"#utility.yul\":4208:4215   */\n      dup6\n        /* \"#utility.yul\":4199:4205   */\n      dup3\n        /* \"#utility.yul\":4188:4197   */\n      dup7\n        /* \"#utility.yul\":4184:4206   */\n      add\n        /* \"#utility.yul\":4163:4216   */\n      tag_359\n      jump\t// in\n    tag_389:\n        /* \"#utility.yul\":4153:4216   */\n      swap2\n      pop\n        /* \"#utility.yul\":4108:4226   */\n      pop\n        /* \"#utility.yul\":3909:4233   */\n      swap3\n      pop\n      swap3\n      swap1\n      pop\n      jump\t// out\n        /* \"#utility.yul\":4239:4499   */\n    tag_26:\n        /* \"#utility.yul\":4297:4303   */\n      0x00\n        /* \"#utility.yul\":4346:4348   */\n      0x20\n        /* \"#utility.yul\":4334:4343   */\n      dup3\n        /* \"#utility.yul\":4325:4332   */\n      dup5\n        /* \"#utility.yul\":4321:4344   */\n      sub\n        /* \"#utility.yul\":4317:4349   */\n      slt\n        /* \"#utility.yul\":4314:4316   */\n      iszero\n      tag_391\n      jumpi\n        /* \"#utility.yul\":4362:4363   */\n      0x00\n        /* \"#utility.yul\":4359:4360   */\n      dup1\n        /* \"#utility.yul\":4352:4364   */\n      revert\n        /* \"#utility.yul\":4314:4316   */\n    tag_391:\n        /* \"#utility.yul\":4405:4406   */\n      0x00\n        /* \"#utility.yul\":4430:4482   */\n      tag_392\n        /* \"#utility.yul\":4474:4481   */\n      dup5\n        /* \"#utility.yul\":4465:4471   */\n      dup3\n        /* \"#utility.yul\":4454:4463   */\n      dup6\n        /* \"#utility.yul\":4450:4472   */\n      add\n        /* \"#utility.yul\":4430:4482   */\n      tag_348\n      jump\t// in\n    tag_392:\n        /* \"#utility.yul\":4420:4482   */\n      swap2\n      pop\n        /* \"#utility.yul\":4376:4492   */\n      pop\n        /* \"#utility.yul\":4304:4499   */\n      swap3\n      swap2\n      pop\n      pop\n      jump\t// out\n        /* \"#utility.yul\":4505:4787   */\n    tag_306:\n        /* \"#utility.yul\":4574:4580   */\n      0x00\n        /* \"#utility.yul\":4623:4625   */\n      0x20\n        /* \"#utility.yul\":4611:4620   */\n      dup3\n        /* \"#utility.yul\":4602:4609   */\n      dup5\n        /* \"#utility.yul\":4598:4621   */\n      sub\n        /* \"#utility.yul\":4594:4626   */\n      slt\n        /* \"#utility.yul\":4591:4593   */\n      iszero\n      tag_394\n      jumpi\n        /* \"#utility.yul\":4639:4640   */\n      0x00\n        /* \"#utility.yul\":4636:4637   */\n      dup1\n        /* \"#utility.yul\":4629:4641   */\n      revert\n        /* \"#utility.yul\":4591:4593   */\n    tag_394:\n        /* \"#utility.yul\":4682:4683   */\n      0x00\n        /* \"#utility.yul\":4707:4770   */\n      tag_395\n        /* \"#utility.yul\":4762:4769   */\n      dup5\n        /* \"#utility.yul\":4753:4759   */\n      dup3\n        /* \"#utility.yul\":4742:4751   */\n      dup6\n        /* \"#utility.yul\":4738:4760   */\n      add\n        /* \"#utility.yul\":4707:4770   */\n      tag_352\n      jump\t// in\n    tag_395:\n        /* \"#utility.yul\":4697:4770   */\n      swap2\n      pop\n        /* \"#utility.yul\":4653:4780   */\n      pop\n        /* \"#utility.yul\":4581:4787   */\n      swap3\n      swap2\n      pop\n      pop\n      jump\t// out\n        /* \"#utility.yul\":4793:5055   */\n    tag_38:\n        /* \"#utility.yul\":4852:4858   */\n      0x00\n        /* \"#utility.yul\":4901:4903   */\n      0x20\n        /* \"#utility.yul\":4889:4898   */\n      dup3\n        /* \"#utility.yul\":4880:4887   */\n      dup5\n        /* \"#utility.yul\":4876:4899   */\n      sub\n        /* \"#utility.yul\":4872:4904   */\n      slt\n        /* \"#utility.yul\":4869:4871   */\n      iszero\n      tag_397\n      jumpi\n        /* \"#utility.yul\":4917:4918   */\n      0x00\n        /* \"#utility.yul\":4914:4915   */\n      dup1\n        /* \"#utility.yul\":4907:4919   */\n      revert\n        /* \"#utility.yul\":4869:4871   */\n    tag_397:\n        /* \"#utility.yul\":4960:4961   */\n      0x00\n        /* \"#utility.yul\":4985:5038   */\n      tag_398\n        /* \"#utility.yul\":5030:5037   */\n      dup5\n        /* \"#utility.yul\":5021:5027   */\n      dup3\n        /* \"#utility.yul\":5010:5019   */\n      dup6\n        /* \"#utility.yul\":5006:5028   */\n      add\n        /* \"#utility.yul\":4985:5038   */\n      tag_359\n      jump\t// in\n    tag_398:\n        /* \"#utility.yul\":4975:5038   */\n      swap2\n      pop\n        /* \"#utility.yul\":4931:5048   */\n      pop\n        /* \"#utility.yul\":4859:5055   */\n      swap3\n      swap2\n      pop\n      pop\n      jump\t// out\n        /* \"#utility.yul\":5061:5179   */\n    tag_399:\n        /* \"#utility.yul\":5148:5172   */\n      tag_401\n        /* \"#utility.yul\":5166:5171   */\n      dup2\n        /* \"#utility.yul\":5148:5172   */\n      tag_402\n      jump\t// in\n    tag_401:\n        /* \"#utility.yul\":5143:5146   */\n      dup3\n        /* \"#utility.yul\":5136:5173   */\n      mstore\n        /* \"#utility.yul\":5126:5179   */\n      pop\n      pop\n      jump\t// out\n        /* \"#utility.yul\":5185:5294   */\n    tag_403:\n        /* \"#utility.yul\":5266:5287   */\n      tag_405\n        /* \"#utility.yul\":5281:5286   */\n      dup2\n        /* \"#utility.yul\":5266:5287   */\n      tag_406\n      jump\t// in\n    tag_405:\n        /* \"#utility.yul\":5261:5264   */\n      dup3\n        /* \"#utility.yul\":5254:5288   */\n      mstore\n        /* \"#utility.yul\":5244:5294   */\n      pop\n      pop\n      jump\t// out\n        /* \"#utility.yul\":5300:5660   */\n    tag_407:\n        /* \"#utility.yul\":5386:5389   */\n      0x00\n        /* \"#utility.yul\":5414:5452   */\n      tag_409\n        /* \"#utility.yul\":5446:5451   */\n      dup3\n        /* \"#utility.yul\":5414:5452   */\n      tag_410\n      jump\t// in\n    tag_409:\n        /* \"#utility.yul\":5468:5538   */\n      tag_411\n        /* \"#utility.yul\":5531:5537   */\n      dup2\n        /* \"#utility.yul\":5526:5529   */\n      dup6\n        /* \"#utility.yul\":5468:5538   */\n      tag_412\n      jump\t// in\n    tag_411:\n        /* \"#utility.yul\":5461:5538   */\n      swap4\n      pop\n        /* \"#utility.yul\":5547:5599   */\n      tag_413\n        /* \"#utility.yul\":5592:5598   */\n      dup2\n        /* \"#utility.yul\":5587:5590   */\n      dup6\n        /* \"#utility.yul\":5580:5584   */\n      0x20\n        /* \"#utility.yul\":5573:5578   */\n      dup7\n        /* \"#utility.yul\":5569:5585   */\n      add\n        /* \"#utility.yul\":5547:5599   */\n      tag_414\n      jump\t// in\n    tag_413:\n        /* \"#utility.yul\":5624:5653   */\n      tag_415\n        /* \"#utility.yul\":5646:5652   */\n      dup2\n        /* \"#utility.yul\":5624:5653   */\n      tag_416\n      jump\t// in\n    tag_415:\n        /* \"#utility.yul\":5619:5622   */\n      dup5\n        /* \"#utility.yul\":5615:5654   */\n      add\n        /* \"#utility.yul\":5608:5654   */\n      swap2\n      pop\n        /* \"#utility.yul\":5390:5660   */\n      pop\n      swap3\n      swap2\n      pop\n      pop\n      jump\t// out\n        /* \"#utility.yul\":5666:6030   */\n    tag_417:\n        /* \"#utility.yul\":5754:5757   */\n      0x00\n        /* \"#utility.yul\":5782:5821   */\n      tag_419\n        /* \"#utility.yul\":5815:5820   */\n      dup3\n        /* \"#utility.yul\":5782:5821   */\n      tag_420\n      jump\t// in\n    tag_419:\n        /* \"#utility.yul\":5837:5908   */\n      tag_421\n        /* \"#utility.yul\":5901:5907   */\n      dup2\n        /* \"#utility.yul\":5896:5899   */\n      dup6\n        /* \"#utility.yul\":5837:5908   */\n      tag_422\n      jump\t// in\n    tag_421:\n        /* \"#utility.yul\":5830:5908   */\n      swap4\n      pop\n        /* \"#utility.yul\":5917:5969   */\n      tag_423\n        /* \"#utility.yul\":5962:5968   */\n      dup2\n        /* \"#utility.yul\":5957:5960   */\n      dup6\n        /* \"#utility.yul\":5950:5954   */\n      0x20\n        /* \"#utility.yul\":5943:5948   */\n      dup7\n        /* \"#utility.yul\":5939:5955   */\n      add\n        /* \"#utility.yul\":5917:5969   */\n      tag_414\n      jump\t// in\n    tag_423:\n        /* \"#utility.yul\":5994:6023   */\n      tag_424\n        /* \"#utility.yul\":6016:6022   */\n      dup2\n        /* \"#utility.yul\":5994:6023   */\n      tag_416\n      jump\t// in\n    tag_424:\n        /* \"#utility.yul\":5989:5992   */\n      dup5\n        /* \"#utility.yul\":5985:6024   */\n      add\n        /* \"#utility.yul\":5978:6024   */\n      swap2\n      pop\n        /* \"#utility.yul\":5758:6030   */\n      pop\n      swap3\n      swap2\n      pop\n      pop\n      jump\t// out\n        /* \"#utility.yul\":6036:6413   */\n    tag_425:\n        /* \"#utility.yul\":6142:6145   */\n      0x00\n        /* \"#utility.yul\":6170:6209   */\n      tag_427\n        /* \"#utility.yul\":6203:6208   */\n      dup3\n        /* \"#utility.yul\":6170:6209   */\n      tag_420\n      jump\t// in\n    tag_427:\n        /* \"#utility.yul\":6225:6314   */\n      tag_428\n        /* \"#utility.yul\":6307:6313   */\n      dup2\n        /* \"#utility.yul\":6302:6305   */\n      dup6\n        /* \"#utility.yul\":6225:6314   */\n      tag_429\n      jump\t// in\n    tag_428:\n        /* \"#utility.yul\":6218:6314   */\n      swap4\n      pop\n        /* \"#utility.yul\":6323:6375   */\n      tag_430\n        /* \"#utility.yul\":6368:6374   */\n      dup2\n        /* \"#utility.yul\":6363:6366   */\n      dup6\n        /* \"#utility.yul\":6356:6360   */\n      0x20\n        /* \"#utility.yul\":6349:6354   */\n      dup7\n        /* \"#utility.yul\":6345:6361   */\n      add\n        /* \"#utility.yul\":6323:6375   */\n      tag_414\n      jump\t// in\n    tag_430:\n        /* \"#utility.yul\":6400:6406   */\n      dup1\n        /* \"#utility.yul\":6395:6398   */\n      dup5\n        /* \"#utility.yul\":6391:6407   */\n      add\n        /* \"#utility.yul\":6384:6407   */\n      swap2\n      pop\n        /* \"#utility.yul\":6146:6413   */\n      pop\n      swap3\n      swap2\n      pop\n      pop\n      jump\t// out\n        /* \"#utility.yul\":6419:6785   */\n    tag_431:\n        /* \"#utility.yul\":6561:6564   */\n      0x00\n        /* \"#utility.yul\":6582:6649   */\n      tag_433\n        /* \"#utility.yul\":6646:6648   */\n      0x32\n        /* \"#utility.yul\":6641:6644   */\n      dup4\n        /* \"#utility.yul\":6582:6649   */\n      tag_422\n      jump\t// in\n    tag_433:\n        /* \"#utility.yul\":6575:6649   */\n      swap2\n      pop\n        /* \"#utility.yul\":6658:6751   */\n      tag_434\n        /* \"#utility.yul\":6747:6750   */\n      dup3\n        /* \"#utility.yul\":6658:6751   */\n      tag_435\n      jump\t// in\n    tag_434:\n        /* \"#utility.yul\":6776:6778   */\n      0x40\n        /* \"#utility.yul\":6771:6774   */\n      dup3\n        /* \"#utility.yul\":6767:6779   */\n      add\n        /* \"#utility.yul\":6760:6779   */\n      swap1\n      pop\n        /* \"#utility.yul\":6565:6785   */\n      swap2\n      swap1\n      pop\n      jump\t// out\n        /* \"#utility.yul\":6791:7157   */\n    tag_436:\n        /* \"#utility.yul\":6933:6936   */\n      0x00\n        /* \"#utility.yul\":6954:7021   */\n      tag_438\n        /* \"#utility.yul\":7018:7020   */\n      0x26\n        /* \"#utility.yul\":7013:7016   */\n      dup4\n        /* \"#utility.yul\":6954:7021   */\n      tag_422\n      jump\t// in\n    tag_438:\n        /* \"#utility.yul\":6947:7021   */\n      swap2\n      pop\n        /* \"#utility.yul\":7030:7123   */\n      tag_439\n        /* \"#utility.yul\":7119:7122   */\n      dup3\n        /* \"#utility.yul\":7030:7123   */\n      tag_440\n      jump\t// in\n    tag_439:\n        /* \"#utility.yul\":7148:7150   */\n      0x40\n        /* \"#utility.yul\":7143:7146   */\n      dup3\n        /* \"#utility.yul\":7139:7151   */\n      add\n        /* \"#utility.yul\":7132:7151   */\n      swap1\n      pop\n        /* \"#utility.yul\":6937:7157   */\n      swap2\n      swap1\n      pop\n      jump\t// out\n        /* \"#utility.yul\":7163:7529   */\n    tag_441:\n        /* \"#utility.yul\":7305:7308   */\n      0x00\n        /* \"#utility.yul\":7326:7393   */\n      tag_443\n        /* \"#utility.yul\":7390:7392   */\n      0x25\n        /* \"#utility.yul\":7385:7388   */\n      dup4\n        /* \"#utility.yul\":7326:7393   */\n      tag_422\n      jump\t// in\n    tag_443:\n        /* \"#utility.yul\":7319:7393   */\n      swap2\n      pop\n        /* \"#utility.yul\":7402:7495   */\n      tag_444\n        /* \"#utility.yul\":7491:7494   */\n      dup3\n        /* \"#utility.yul\":7402:7495   */\n      tag_445\n      jump\t// in\n    tag_444:\n        /* \"#utility.yul\":7520:7522   */\n      0x40\n        /* \"#utility.yul\":7515:7518   */\n      dup3\n        /* \"#utility.yul\":7511:7523   */\n      add\n        /* \"#utility.yul\":7504:7523   */\n      swap1\n      pop\n        /* \"#utility.yul\":7309:7529   */\n      swap2\n      swap1\n      pop\n      jump\t// out\n        /* \"#utility.yul\":7535:7901   */\n    tag_446:\n        /* \"#utility.yul\":7677:7680   */\n      0x00\n        /* \"#utility.yul\":7698:7765   */\n      tag_448\n        /* \"#utility.yul\":7762:7764   */\n      0x1c\n        /* \"#utility.yul\":7757:7760   */\n      dup4\n        /* \"#utility.yul\":7698:7765   */\n      tag_422\n      jump\t// in\n    tag_448:\n        /* \"#utility.yul\":7691:7765   */\n      swap2\n      pop\n        /* \"#utility.yul\":7774:7867   */\n      tag_449\n        /* \"#utility.yul\":7863:7866   */\n      dup3\n        /* \"#utility.yul\":7774:7867   */\n      tag_450\n      jump\t// in\n    tag_449:\n        /* \"#utility.yul\":7892:7894   */\n      0x20\n        /* \"#utility.yul\":7887:7890   */\n      dup3\n        /* \"#utility.yul\":7883:7895   */\n      add\n        /* \"#utility.yul\":7876:7895   */\n      swap1\n      pop\n        /* \"#utility.yul\":7681:7901   */\n      swap2\n      swap1\n      pop\n      jump\t// out\n        /* \"#utility.yul\":7907:8273   */\n    tag_451:\n        /* \"#utility.yul\":8049:8052   */\n      0x00\n        /* \"#utility.yul\":8070:8137   */\n      tag_453\n        /* \"#utility.yul\":8134:8136   */\n      0x24\n        /* \"#utility.yul\":8129:8132   */\n      dup4\n        /* \"#utility.yul\":8070:8137   */\n      tag_422\n      jump\t// in\n    tag_453:\n        /* \"#utility.yul\":8063:8137   */\n      swap2\n      pop\n        /* \"#utility.yul\":8146:8239   */\n      tag_454\n        /* \"#utility.yul\":8235:8238   */\n      dup3\n        /* \"#utility.yul\":8146:8239   */\n      tag_455\n      jump\t// in\n    tag_454:\n        /* \"#utility.yul\":8264:8266   */\n      0x40\n        /* \"#utility.yul\":8259:8262   */\n      dup3\n        /* \"#utility.yul\":8255:8267   */\n      add\n        /* \"#utility.yul\":8248:8267   */\n      swap1\n      pop\n        /* \"#utility.yul\":8053:8273   */\n      swap2\n      swap1\n      pop\n      jump\t// out\n        /* \"#utility.yul\":8279:8645   */\n    tag_456:\n        /* \"#utility.yul\":8421:8424   */\n      0x00\n        /* \"#utility.yul\":8442:8509   */\n      tag_458\n        /* \"#utility.yul\":8506:8508   */\n      0x19\n        /* \"#utility.yul\":8501:8504   */\n      dup4\n        /* \"#utility.yul\":8442:8509   */\n      tag_422\n      jump\t// in\n    tag_458:\n        /* \"#utility.yul\":8435:8509   */\n      swap2\n      pop\n        /* \"#utility.yul\":8518:8611   */\n      tag_459\n        /* \"#utility.yul\":8607:8610   */\n      dup3\n        /* \"#utility.yul\":8518:8611   */\n      tag_460\n      jump\t// in\n    tag_459:\n        /* \"#utility.yul\":8636:8638   */\n      0x20\n        /* \"#utility.yul\":8631:8634   */\n      dup3\n        /* \"#utility.yul\":8627:8639   */\n      add\n        /* \"#utility.yul\":8620:8639   */\n      swap1\n      pop\n        /* \"#utility.yul\":8425:8645   */\n      swap2\n      swap1\n      pop\n      jump\t// out\n        /* \"#utility.yul\":8651:9017   */\n    tag_461:\n        /* \"#utility.yul\":8793:8796   */\n      0x00\n        /* \"#utility.yul\":8814:8881   */\n      tag_463\n        /* \"#utility.yul\":8878:8880   */\n      0x29\n        /* \"#utility.yul\":8873:8876   */\n      dup4\n        /* \"#utility.yul\":8814:8881   */\n      tag_422\n      jump\t// in\n    tag_463:\n        /* \"#utility.yul\":8807:8881   */\n      swap2\n      pop\n        /* \"#utility.yul\":8890:8983   */\n      tag_464\n        /* \"#utility.yul\":8979:8982   */\n      dup3\n        /* \"#utility.yul\":8890:8983   */\n      tag_465\n      jump\t// in\n    tag_464:\n        /* \"#utility.yul\":9008:9010   */\n      0x40\n        /* \"#utility.yul\":9003:9006   */\n      dup3\n        /* \"#utility.yul\":8999:9011   */\n      add\n        /* \"#utility.yul\":8992:9011   */\n      swap1\n      pop\n        /* \"#utility.yul\":8797:9017   */\n      swap2\n      swap1\n      pop\n      jump\t// out\n        /* \"#utility.yul\":9023:9389   */\n    tag_466:\n        /* \"#utility.yul\":9165:9168   */\n      0x00\n        /* \"#utility.yul\":9186:9253   */\n      tag_468\n        /* \"#utility.yul\":9250:9252   */\n      0x3e\n        /* \"#utility.yul\":9245:9248   */\n      dup4\n        /* \"#utility.yul\":9186:9253   */\n      tag_422\n      jump\t// in\n    tag_468:\n        /* \"#utility.yul\":9179:9253   */\n      swap2\n      pop\n        /* \"#utility.yul\":9262:9355   */\n      tag_469\n        /* \"#utility.yul\":9351:9354   */\n      dup3\n        /* \"#utility.yul\":9262:9355   */\n      tag_470\n      jump\t// in\n    tag_469:\n        /* \"#utility.yul\":9380:9382   */\n      0x40\n        /* \"#utility.yul\":9375:9378   */\n      dup3\n        /* \"#utility.yul\":9371:9383   */\n      add\n        /* \"#utility.yul\":9364:9383   */\n      swap1\n      pop\n        /* \"#utility.yul\":9169:9389   */\n      swap2\n      swap1\n      pop\n      jump\t// out\n        /* \"#utility.yul\":9395:9761   */\n    tag_471:\n        /* \"#utility.yul\":9537:9540   */\n      0x00\n        /* \"#utility.yul\":9558:9625   */\n      tag_473\n        /* \"#utility.yul\":9622:9624   */\n      0x20\n        /* \"#utility.yul\":9617:9620   */\n      dup4\n        /* \"#utility.yul\":9558:9625   */\n      tag_422\n      jump\t// in\n    tag_473:\n        /* \"#utility.yul\":9551:9625   */\n      swap2\n      pop\n        /* \"#utility.yul\":9634:9727   */\n      tag_474\n        /* \"#utility.yul\":9723:9726   */\n      dup3\n        /* \"#utility.yul\":9634:9727   */\n      tag_475\n      jump\t// in\n    tag_474:\n        /* \"#utility.yul\":9752:9754   */\n      0x20\n        /* \"#utility.yul\":9747:9750   */\n      dup3\n        /* \"#utility.yul\":9743:9755   */\n      add\n        /* \"#utility.yul\":9736:9755   */\n      swap1\n      pop\n        /* \"#utility.yul\":9541:9761   */\n      swap2\n      swap1\n      pop\n      jump\t// out\n        /* \"#utility.yul\":9767:10133   */\n    tag_476:\n        /* \"#utility.yul\":9909:9912   */\n      0x00\n        /* \"#utility.yul\":9930:9997   */\n      tag_478\n        /* \"#utility.yul\":9994:9996   */\n      0x20\n        /* \"#utility.yul\":9989:9992   */\n      dup4\n        /* \"#utility.yul\":9930:9997   */\n      tag_422\n      jump\t// in\n    tag_478:\n        /* \"#utility.yul\":9923:9997   */\n      swap2\n      pop\n        /* \"#utility.yul\":10006:10099   */\n      tag_479\n        /* \"#utility.yul\":10095:10098   */\n      dup3\n        /* \"#utility.yul\":10006:10099   */\n      tag_480\n      jump\t// in\n    tag_479:\n        /* \"#utility.yul\":10124:10126   */\n      0x20\n        /* \"#utility.yul\":10119:10122   */\n      dup3\n        /* \"#utility.yul\":10115:10127   */\n      add\n        /* \"#utility.yul\":10108:10127   */\n      swap1\n      pop\n        /* \"#utility.yul\":9913:10133   */\n      swap2\n      swap1\n      pop\n      jump\t// out\n        /* \"#utility.yul\":10139:10505   */\n    tag_481:\n        /* \"#utility.yul\":10281:10284   */\n      0x00\n        /* \"#utility.yul\":10302:10369   */\n      tag_483\n        /* \"#utility.yul\":10366:10368   */\n      0x13\n        /* \"#utility.yul\":10361:10364   */\n      dup4\n        /* \"#utility.yul\":10302:10369   */\n      tag_422\n      jump\t// in\n    tag_483:\n        /* \"#utility.yul\":10295:10369   */\n      swap2\n      pop\n        /* \"#utility.yul\":10378:10471   */\n      tag_484\n        /* \"#utility.yul\":10467:10470   */\n      dup3\n        /* \"#utility.yul\":10378:10471   */\n      tag_485\n      jump\t// in\n    tag_484:\n        /* \"#utility.yul\":10496:10498   */\n      0x20\n        /* \"#utility.yul\":10491:10494   */\n      dup3\n        /* \"#utility.yul\":10487:10499   */\n      add\n        /* \"#utility.yul\":10480:10499   */\n      swap1\n      pop\n        /* \"#utility.yul\":10285:10505   */\n      swap2\n      swap1\n      pop\n      jump\t// out\n        /* \"#utility.yul\":10511:10877   */\n    tag_486:\n        /* \"#utility.yul\":10653:10656   */\n      0x00\n        /* \"#utility.yul\":10674:10741   */\n      tag_488\n        /* \"#utility.yul\":10738:10740   */\n      0x18\n        /* \"#utility.yul\":10733:10736   */\n      dup4\n        /* \"#utility.yul\":10674:10741   */\n      tag_422\n      jump\t// in\n    tag_488:\n        /* \"#utility.yul\":10667:10741   */\n      swap2\n      pop\n        /* \"#utility.yul\":10750:10843   */\n      tag_489\n        /* \"#utility.yul\":10839:10842   */\n      dup3\n        /* \"#utility.yul\":10750:10843   */\n      tag_490\n      jump\t// in\n    tag_489:\n        /* \"#utility.yul\":10868:10870   */\n      0x20\n        /* \"#utility.yul\":10863:10866   */\n      dup3\n        /* \"#utility.yul\":10859:10871   */\n      add\n        /* \"#utility.yul\":10852:10871   */\n      swap1\n      pop\n        /* \"#utility.yul\":10657:10877   */\n      swap2\n      swap1\n      pop\n      jump\t// out\n        /* \"#utility.yul\":10883:11249   */\n    tag_491:\n        /* \"#utility.yul\":11025:11028   */\n      0x00\n        /* \"#utility.yul\":11046:11113   */\n      tag_493\n        /* \"#utility.yul\":11110:11112   */\n      0x21\n        /* \"#utility.yul\":11105:11108   */\n      dup4\n        /* \"#utility.yul\":11046:11113   */\n      tag_422\n      jump\t// in\n    tag_493:\n        /* \"#utility.yul\":11039:11113   */\n      swap2\n      pop\n        /* \"#utility.yul\":11122:11215   */\n      tag_494\n        /* \"#utility.yul\":11211:11214   */\n      dup3\n        /* \"#utility.yul\":11122:11215   */\n      tag_495\n      jump\t// in\n    tag_494:\n        /* \"#utility.yul\":11240:11242   */\n      0x40\n        /* \"#utility.yul\":11235:11238   */\n      dup3\n        /* \"#utility.yul\":11231:11243   */\n      add\n        /* \"#utility.yul\":11224:11243   */\n      swap1\n      pop\n        /* \"#utility.yul\":11029:11249   */\n      swap2\n      swap1\n      pop\n      jump\t// out\n        /* \"#utility.yul\":11255:11621   */\n    tag_496:\n        /* \"#utility.yul\":11397:11400   */\n      0x00\n        /* \"#utility.yul\":11418:11485   */\n      tag_498\n        /* \"#utility.yul\":11482:11484   */\n      0x2e\n        /* \"#utility.yul\":11477:11480   */\n      dup4\n        /* \"#utility.yul\":11418:11485   */\n      tag_422\n      jump\t// in\n    tag_498:\n        /* \"#utility.yul\":11411:11485   */\n      swap2\n      pop\n        /* \"#utility.yul\":11494:11587   */\n      tag_499\n        /* \"#utility.yul\":11583:11586   */\n      dup3\n        /* \"#utility.yul\":11494:11587   */\n      tag_500\n      jump\t// in\n    tag_499:\n        /* \"#utility.yul\":11612:11614   */\n      0x40\n        /* \"#utility.yul\":11607:11610   */\n      dup3\n        /* \"#utility.yul\":11603:11615   */\n      add\n        /* \"#utility.yul\":11596:11615   */\n      swap1\n      pop\n        /* \"#utility.yul\":11401:11621   */\n      swap2\n      swap1\n      pop\n      jump\t// out\n        /* \"#utility.yul\":11627:11745   */\n    tag_501:\n        /* \"#utility.yul\":11714:11738   */\n      tag_503\n        /* \"#utility.yul\":11732:11737   */\n      dup2\n        /* \"#utility.yul\":11714:11738   */\n      tag_504\n      jump\t// in\n    tag_503:\n        /* \"#utility.yul\":11709:11712   */\n      dup3\n        /* \"#utility.yul\":11702:11739   */\n      mstore\n        /* \"#utility.yul\":11692:11745   */\n      pop\n      pop\n      jump\t// out\n        /* \"#utility.yul\":11751:12186   */\n    tag_203:\n        /* \"#utility.yul\":11931:11934   */\n      0x00\n        /* \"#utility.yul\":11953:12048   */\n      tag_506\n        /* \"#utility.yul\":12044:12047   */\n      dup3\n        /* \"#utility.yul\":12035:12041   */\n      dup6\n        /* \"#utility.yul\":11953:12048   */\n      tag_425\n      jump\t// in\n    tag_506:\n        /* \"#utility.yul\":11946:12048   */\n      swap2\n      pop\n        /* \"#utility.yul\":12065:12160   */\n      tag_507\n        /* \"#utility.yul\":12156:12159   */\n      dup3\n        /* \"#utility.yul\":12147:12153   */\n      dup5\n        /* \"#utility.yul\":12065:12160   */\n      tag_425\n      jump\t// in\n    tag_507:\n        /* \"#utility.yul\":12058:12160   */\n      swap2\n      pop\n        /* \"#utility.yul\":12177:12180   */\n      dup2\n        /* \"#utility.yul\":12170:12180   */\n      swap1\n      pop\n        /* \"#utility.yul\":11935:12186   */\n      swap4\n      swap3\n      pop\n      pop\n      pop\n      jump\t// out\n        /* \"#utility.yul\":12192:12414   */\n    tag_41:\n        /* \"#utility.yul\":12285:12289   */\n      0x00\n        /* \"#utility.yul\":12323:12325   */\n      0x20\n        /* \"#utility.yul\":12312:12321   */\n      dup3\n        /* \"#utility.yul\":12308:12326   */\n      add\n        /* \"#utility.yul\":12300:12326   */\n      swap1\n      pop\n        /* \"#utility.yul\":12336:12407   */\n      tag_509\n        /* \"#utility.yul\":12404:12405   */\n      0x00\n        /* \"#utility.yul\":12393:12402   */\n      dup4\n        /* \"#utility.yul\":12389:12406   */\n      add\n        /* \"#utility.yul\":12380:12386   */\n      dup5\n        /* \"#utility.yul\":12336:12407   */\n      tag_399\n      jump\t// in\n    tag_509:\n        /* \"#utility.yul\":12290:12414   */\n      swap3\n      swap2\n      pop\n      pop\n      jump\t// out\n        /* \"#utility.yul\":12420:13060   */\n    tag_302:\n        /* \"#utility.yul\":12615:12619   */\n      0x00\n        /* \"#utility.yul\":12653:12656   */\n      0x80\n        /* \"#utility.yul\":12642:12651   */\n      dup3\n        /* \"#utility.yul\":12638:12657   */\n      add\n        /* \"#utility.yul\":12630:12657   */\n      swap1\n      pop\n        /* \"#utility.yul\":12667:12738   */\n      tag_511\n        /* \"#utility.yul\":12735:12736   */\n      0x00\n        /* \"#utility.yul\":12724:12733   */\n      dup4\n        /* \"#utility.yul\":12720:12737   */\n      add\n        /* \"#utility.yul\":12711:12717   */\n      dup8\n        /* \"#utility.yul\":12667:12738   */\n      tag_399\n      jump\t// in\n    tag_511:\n        /* \"#utility.yul\":12748:12820   */\n      tag_512\n        /* \"#utility.yul\":12816:12818   */\n      0x20\n        /* \"#utility.yul\":12805:12814   */\n      dup4\n        /* \"#utility.yul\":12801:12819   */\n      add\n        /* \"#utility.yul\":12792:12798   */\n      dup7\n        /* \"#utility.yul\":12748:12820   */\n      tag_399\n      jump\t// in\n    tag_512:\n        /* \"#utility.yul\":12830:12902   */\n      tag_513\n        /* \"#utility.yul\":12898:12900   */\n      0x40\n        /* \"#utility.yul\":12887:12896   */\n      dup4\n        /* \"#utility.yul\":12883:12901   */\n      add\n        /* \"#utility.yul\":12874:12880   */\n      dup6\n        /* \"#utility.yul\":12830:12902   */\n      tag_501\n      jump\t// in\n    tag_513:\n        /* \"#utility.yul\":12949:12958   */\n      dup2\n        /* \"#utility.yul\":12943:12947   */\n      dup2\n        /* \"#utility.yul\":12939:12959   */\n      sub\n        /* \"#utility.yul\":12934:12936   */\n      0x60\n        /* \"#utility.yul\":12923:12932   */\n      dup4\n        /* \"#utility.yul\":12919:12937   */\n      add\n        /* \"#utility.yul\":12912:12960   */\n      mstore\n        /* \"#utility.yul\":12977:13053   */\n      tag_514\n        /* \"#utility.yul\":13048:13052   */\n      dup2\n        /* \"#utility.yul\":13039:13045   */\n      dup5\n        /* \"#utility.yul\":12977:13053   */\n      tag_407\n      jump\t// in\n    tag_514:\n        /* \"#utility.yul\":12969:13053   */\n      swap1\n      pop\n        /* \"#utility.yul\":12620:13060   */\n      swap6\n      swap5\n      pop\n      pop\n      pop\n      pop\n      pop\n      jump\t// out\n        /* \"#utility.yul\":13066:13276   */\n    tag_29:\n        /* \"#utility.yul\":13153:13157   */\n      0x00\n        /* \"#utility.yul\":13191:13193   */\n      0x20\n        /* \"#utility.yul\":13180:13189   */\n      dup3\n        /* \"#utility.yul\":13176:13194   */\n      add\n        /* \"#utility.yul\":13168:13194   */\n      swap1\n      pop\n        /* \"#utility.yul\":13204:13269   */\n      tag_516\n        /* \"#utility.yul\":13266:13267   */\n      0x00\n        /* \"#utility.yul\":13255:13264   */\n      dup4\n        /* \"#utility.yul\":13251:13268   */\n      add\n        /* \"#utility.yul\":13242:13248   */\n      dup5\n        /* \"#utility.yul\":13204:13269   */\n      tag_403\n      jump\t// in\n    tag_516:\n        /* \"#utility.yul\":13158:13276   */\n      swap3\n      swap2\n      pop\n      pop\n      jump\t// out\n        /* \"#utility.yul\":13282:13595   */\n    tag_34:\n        /* \"#utility.yul\":13395:13399   */\n      0x00\n        /* \"#utility.yul\":13433:13435   */\n      0x20\n        /* \"#utility.yul\":13422:13431   */\n      dup3\n        /* \"#utility.yul\":13418:13436   */\n      add\n        /* \"#utility.yul\":13410:13436   */\n      swap1\n      pop\n        /* \"#utility.yul\":13482:13491   */\n      dup2\n        /* \"#utility.yul\":13476:13480   */\n      dup2\n        /* \"#utility.yul\":13472:13492   */\n      sub\n        /* \"#utility.yul\":13468:13469   */\n      0x00\n        /* \"#utility.yul\":13457:13466   */\n      dup4\n        /* \"#utility.yul\":13453:13470   */\n      add\n        /* \"#utility.yul\":13446:13493   */\n      mstore\n        /* \"#utility.yul\":13510:13588   */\n      tag_518\n        /* \"#utility.yul\":13583:13587   */\n      dup2\n        /* \"#utility.yul\":13574:13580   */\n      dup5\n        /* \"#utility.yul\":13510:13588   */\n      tag_417\n      jump\t// in\n    tag_518:\n        /* \"#utility.yul\":13502:13588   */\n      swap1\n      pop\n        /* \"#utility.yul\":13400:13595   */\n      swap3\n      swap2\n      pop\n      pop\n      jump\t// out\n        /* \"#utility.yul\":13601:14020   */\n    tag_267:\n        /* \"#utility.yul\":13767:13771   */\n      0x00\n        /* \"#utility.yul\":13805:13807   */\n      0x20\n        /* \"#utility.yul\":13794:13803   */\n      dup3\n        /* \"#utility.yul\":13790:13808   */\n      add\n        /* \"#utility.yul\":13782:13808   */\n      swap1\n      pop\n        /* \"#utility.yul\":13854:13863   */\n      dup2\n        /* \"#utility.yul\":13848:13852   */\n      dup2\n        /* \"#utility.yul\":13844:13864   */\n      sub\n        /* \"#utility.yul\":13840:13841   */\n      0x00\n        /* \"#utility.yul\":13829:13838   */\n      dup4\n        /* \"#utility.yul\":13825:13842   */\n      add\n        /* \"#utility.yul\":13818:13865   */\n      mstore\n        /* \"#utility.yul\":13882:14013   */\n      tag_520\n        /* \"#utility.yul\":14008:14012   */\n      dup2\n        /* \"#utility.yul\":13882:14013   */\n      tag_431\n      jump\t// in\n    tag_520:\n        /* \"#utility.yul\":13874:14013   */\n      swap1\n      pop\n        /* \"#utility.yul\":13772:14020   */\n      swap2\n      swap1\n      pop\n      jump\t// out\n        /* \"#utility.yul\":14026:14445   */\n    tag_210:\n        /* \"#utility.yul\":14192:14196   */\n      0x00\n        /* \"#utility.yul\":14230:14232   */\n      0x20\n        /* \"#utility.yul\":14219:14228   */\n      dup3\n        /* \"#utility.yul\":14215:14233   */\n      add\n        /* \"#utility.yul\":14207:14233   */\n      swap1\n      pop\n        /* \"#utility.yul\":14279:14288   */\n      dup2\n        /* \"#utility.yul\":14273:14277   */\n      dup2\n        /* \"#utility.yul\":14269:14289   */\n      sub\n        /* \"#utility.yul\":14265:14266   */\n      0x00\n        /* \"#utility.yul\":14254:14263   */\n      dup4\n        /* \"#utility.yul\":14250:14267   */\n      add\n        /* \"#utility.yul\":14243:14290   */\n      mstore\n        /* \"#utility.yul\":14307:14438   */\n      tag_522\n        /* \"#utility.yul\":14433:14437   */\n      dup2\n        /* \"#utility.yul\":14307:14438   */\n      tag_436\n      jump\t// in\n    tag_522:\n        /* \"#utility.yul\":14299:14438   */\n      swap1\n      pop\n        /* \"#utility.yul\":14197:14445   */\n      swap2\n      swap1\n      pop\n      jump\t// out\n        /* \"#utility.yul\":14451:14870   */\n    tag_231:\n        /* \"#utility.yul\":14617:14621   */\n      0x00\n        /* \"#utility.yul\":14655:14657   */\n      0x20\n        /* \"#utility.yul\":14644:14653   */\n      dup3\n        /* \"#utility.yul\":14640:14658   */\n      add\n        /* \"#utility.yul\":14632:14658   */\n      swap1\n      pop\n        /* \"#utility.yul\":14704:14713   */\n      dup2\n        /* \"#utility.yul\":14698:14702   */\n      dup2\n        /* \"#utility.yul\":14694:14714   */\n      sub\n        /* \"#utility.yul\":14690:14691   */\n      0x00\n        /* \"#utility.yul\":14679:14688   */\n      dup4\n        /* \"#utility.yul\":14675:14692   */\n      add\n        /* \"#utility.yul\":14668:14715   */\n      mstore\n        /* \"#utility.yul\":14732:14863   */\n      tag_524\n        /* \"#utility.yul\":14858:14862   */\n      dup2\n        /* \"#utility.yul\":14732:14863   */\n      tag_441\n      jump\t// in\n    tag_524:\n        /* \"#utility.yul\":14724:14863   */\n      swap1\n      pop\n        /* \"#utility.yul\":14622:14870   */\n      swap2\n      swap1\n      pop\n      jump\t// out\n        /* \"#utility.yul\":14876:15295   */\n    tag_325:\n        /* \"#utility.yul\":15042:15046   */\n      0x00\n        /* \"#utility.yul\":15080:15082   */\n      0x20\n        /* \"#utility.yul\":15069:15078   */\n      dup3\n        /* \"#utility.yul\":15065:15083   */\n      add\n        /* \"#utility.yul\":15057:15083   */\n      swap1\n      pop\n        /* \"#utility.yul\":15129:15138   */\n      dup2\n        /* \"#utility.yul\":15123:15127   */\n      dup2\n        /* \"#utility.yul\":15119:15139   */\n      sub\n        /* \"#utility.yul\":15115:15116   */\n      0x00\n        /* \"#utility.yul\":15104:15113   */\n      dup4\n        /* \"#utility.yul\":15100:15117   */\n      add\n        /* \"#utility.yul\":15093:15140   */\n      mstore\n        /* \"#utility.yul\":15157:15288   */\n      tag_526\n        /* \"#utility.yul\":15283:15287   */\n      dup2\n        /* \"#utility.yul\":15157:15288   */\n      tag_446\n      jump\t// in\n    tag_526:\n        /* \"#utility.yul\":15149:15288   */\n      swap1\n      pop\n        /* \"#utility.yul\":15047:15295   */\n      swap2\n      swap1\n      pop\n      jump\t// out\n        /* \"#utility.yul\":15301:15720   */\n    tag_234:\n        /* \"#utility.yul\":15467:15471   */\n      0x00\n        /* \"#utility.yul\":15505:15507   */\n      0x20\n        /* \"#utility.yul\":15494:15503   */\n      dup3\n        /* \"#utility.yul\":15490:15508   */\n      add\n        /* \"#utility.yul\":15482:15508   */\n      swap1\n      pop\n        /* \"#utility.yul\":15554:15563   */\n      dup2\n        /* \"#utility.yul\":15548:15552   */\n      dup2\n        /* \"#utility.yul\":15544:15564   */\n      sub\n        /* \"#utility.yul\":15540:15541   */\n      0x00\n        /* \"#utility.yul\":15529:15538   */\n      dup4\n        /* \"#utility.yul\":15525:15542   */\n      add\n        /* \"#utility.yul\":15518:15565   */\n      mstore\n        /* \"#utility.yul\":15582:15713   */\n      tag_528\n        /* \"#utility.yul\":15708:15712   */\n      dup2\n        /* \"#utility.yul\":15582:15713   */\n      tag_451\n      jump\t// in\n    tag_528:\n        /* \"#utility.yul\":15574:15713   */\n      swap1\n      pop\n        /* \"#utility.yul\":15472:15720   */\n      swap2\n      swap1\n      pop\n      jump\t// out\n        /* \"#utility.yul\":15726:16145   */\n    tag_259:\n        /* \"#utility.yul\":15892:15896   */\n      0x00\n        /* \"#utility.yul\":15930:15932   */\n      0x20\n        /* \"#utility.yul\":15919:15928   */\n      dup3\n        /* \"#utility.yul\":15915:15933   */\n      add\n        /* \"#utility.yul\":15907:15933   */\n      swap1\n      pop\n        /* \"#utility.yul\":15979:15988   */\n      dup2\n        /* \"#utility.yul\":15973:15977   */\n      dup2\n        /* \"#utility.yul\":15969:15989   */\n      sub\n        /* \"#utility.yul\":15965:15966   */\n      0x00\n        /* \"#utility.yul\":15954:15963   */\n      dup4\n        /* \"#utility.yul\":15950:15967   */\n      add\n        /* \"#utility.yul\":15943:15990   */\n      mstore\n        /* \"#utility.yul\":16007:16138   */\n      tag_530\n        /* \"#utility.yul\":16133:16137   */\n      dup2\n        /* \"#utility.yul\":16007:16138   */\n      tag_456\n      jump\t// in\n    tag_530:\n        /* \"#utility.yul\":15999:16138   */\n      swap1\n      pop\n        /* \"#utility.yul\":15897:16145   */\n      swap2\n      swap1\n      pop\n      jump\t// out\n        /* \"#utility.yul\":16151:16570   */\n    tag_169:\n        /* \"#utility.yul\":16317:16321   */\n      0x00\n        /* \"#utility.yul\":16355:16357   */\n      0x20\n        /* \"#utility.yul\":16344:16353   */\n      dup3\n        /* \"#utility.yul\":16340:16358   */\n      add\n        /* \"#utility.yul\":16332:16358   */\n      swap1\n      pop\n        /* \"#utility.yul\":16404:16413   */\n      dup2\n        /* \"#utility.yul\":16398:16402   */\n      dup2\n        /* \"#utility.yul\":16394:16414   */\n      sub\n        /* \"#utility.yul\":16390:16391   */\n      0x00\n        /* \"#utility.yul\":16379:16388   */\n      dup4\n        /* \"#utility.yul\":16375:16392   */\n      add\n        /* \"#utility.yul\":16368:16415   */\n      mstore\n        /* \"#utility.yul\":16432:16563   */\n      tag_532\n        /* \"#utility.yul\":16558:16562   */\n      dup2\n        /* \"#utility.yul\":16432:16563   */\n      tag_461\n      jump\t// in\n    tag_532:\n        /* \"#utility.yul\":16424:16563   */\n      swap1\n      pop\n        /* \"#utility.yul\":16322:16570   */\n      swap2\n      swap1\n      pop\n      jump\t// out\n        /* \"#utility.yul\":16576:16995   */\n    tag_138:\n        /* \"#utility.yul\":16742:16746   */\n      0x00\n        /* \"#utility.yul\":16780:16782   */\n      0x20\n        /* \"#utility.yul\":16769:16778   */\n      dup3\n        /* \"#utility.yul\":16765:16783   */\n      add\n        /* \"#utility.yul\":16757:16783   */\n      swap1\n      pop\n        /* \"#utility.yul\":16829:16838   */\n      dup2\n        /* \"#utility.yul\":16823:16827   */\n      dup2\n        /* \"#utility.yul\":16819:16839   */\n      sub\n        /* \"#utility.yul\":16815:16816   */\n      0x00\n        /* \"#utility.yul\":16804:16813   */\n      dup4\n        /* \"#utility.yul\":16800:16817   */\n      add\n        /* \"#utility.yul\":16793:16840   */\n      mstore\n        /* \"#utility.yul\":16857:16988   */\n      tag_534\n        /* \"#utility.yul\":16983:16987   */\n      dup2\n        /* \"#utility.yul\":16857:16988   */\n      tag_466\n      jump\t// in\n    tag_534:\n        /* \"#utility.yul\":16849:16988   */\n      swap1\n      pop\n        /* \"#utility.yul\":16747:16995   */\n      swap2\n      swap1\n      pop\n      jump\t// out\n        /* \"#utility.yul\":17001:17420   */\n    tag_321:\n        /* \"#utility.yul\":17167:17171   */\n      0x00\n        /* \"#utility.yul\":17205:17207   */\n      0x20\n        /* \"#utility.yul\":17194:17203   */\n      dup3\n        /* \"#utility.yul\":17190:17208   */\n      add\n        /* \"#utility.yul\":17182:17208   */\n      swap1\n      pop\n        /* \"#utility.yul\":17254:17263   */\n      dup2\n        /* \"#utility.yul\":17248:17252   */\n      dup2\n        /* \"#utility.yul\":17244:17264   */\n      sub\n        /* \"#utility.yul\":17240:17241   */\n      0x00\n        /* \"#utility.yul\":17229:17238   */\n      dup4\n        /* \"#utility.yul\":17225:17242   */\n      add\n        /* \"#utility.yul\":17218:17265   */\n      mstore\n        /* \"#utility.yul\":17282:17413   */\n      tag_536\n        /* \"#utility.yul\":17408:17412   */\n      dup2\n        /* \"#utility.yul\":17282:17413   */\n      tag_471\n      jump\t// in\n    tag_536:\n        /* \"#utility.yul\":17274:17413   */\n      swap1\n      pop\n        /* \"#utility.yul\":17172:17420   */\n      swap2\n      swap1\n      pop\n      jump\t// out\n        /* \"#utility.yul\":17426:17845   */\n    tag_254:\n        /* \"#utility.yul\":17592:17596   */\n      0x00\n        /* \"#utility.yul\":17630:17632   */\n      0x20\n        /* \"#utility.yul\":17619:17628   */\n      dup3\n        /* \"#utility.yul\":17615:17633   */\n      add\n        /* \"#utility.yul\":17607:17633   */\n      swap1\n      pop\n        /* \"#utility.yul\":17679:17688   */\n      dup2\n        /* \"#utility.yul\":17673:17677   */\n      dup2\n        /* \"#utility.yul\":17669:17689   */\n      sub\n        /* \"#utility.yul\":17665:17666   */\n      0x00\n        /* \"#utility.yul\":17654:17663   */\n      dup4\n        /* \"#utility.yul\":17650:17667   */\n      add\n        /* \"#utility.yul\":17643:17690   */\n      mstore\n        /* \"#utility.yul\":17707:17838   */\n      tag_538\n        /* \"#utility.yul\":17833:17837   */\n      dup2\n        /* \"#utility.yul\":17707:17838   */\n      tag_476\n      jump\t// in\n    tag_538:\n        /* \"#utility.yul\":17699:17838   */\n      swap1\n      pop\n        /* \"#utility.yul\":17597:17845   */\n      swap2\n      swap1\n      pop\n      jump\t// out\n        /* \"#utility.yul\":17851:18270   */\n    tag_153:\n        /* \"#utility.yul\":18017:18021   */\n      0x00\n        /* \"#utility.yul\":18055:18057   */\n      0x20\n        /* \"#utility.yul\":18044:18053   */\n      dup3\n        /* \"#utility.yul\":18040:18058   */\n      add\n        /* \"#utility.yul\":18032:18058   */\n      swap1\n      pop\n        /* \"#utility.yul\":18104:18113   */\n      dup2\n        /* \"#utility.yul\":18098:18102   */\n      dup2\n        /* \"#utility.yul\":18094:18114   */\n      sub\n        /* \"#utility.yul\":18090:18091   */\n      0x00\n        /* \"#utility.yul\":18079:18088   */\n      dup4\n        /* \"#utility.yul\":18075:18092   */\n      add\n        /* \"#utility.yul\":18068:18115   */\n      mstore\n        /* \"#utility.yul\":18132:18263   */\n      tag_540\n        /* \"#utility.yul\":18258:18262   */\n      dup2\n        /* \"#utility.yul\":18132:18263   */\n      tag_481\n      jump\t// in\n    tag_540:\n        /* \"#utility.yul\":18124:18263   */\n      swap1\n      pop\n        /* \"#utility.yul\":18022:18270   */\n      swap2\n      swap1\n      pop\n      jump\t// out\n        /* \"#utility.yul\":18276:18695   */\n    tag_165:\n        /* \"#utility.yul\":18442:18446   */\n      0x00\n        /* \"#utility.yul\":18480:18482   */\n      0x20\n        /* \"#utility.yul\":18469:18478   */\n      dup3\n        /* \"#utility.yul\":18465:18483   */\n      add\n        /* \"#utility.yul\":18457:18483   */\n      swap1\n      pop\n        /* \"#utility.yul\":18529:18538   */\n      dup2\n        /* \"#utility.yul\":18523:18527   */\n      dup2\n        /* \"#utility.yul\":18519:18539   */\n      sub\n        /* \"#utility.yul\":18515:18516   */\n      0x00\n        /* \"#utility.yul\":18504:18513   */\n      dup4\n        /* \"#utility.yul\":18500:18517   */\n      add\n        /* \"#utility.yul\":18493:18540   */\n      mstore\n        /* \"#utility.yul\":18557:18688   */\n      tag_542\n        /* \"#utility.yul\":18683:18687   */\n      dup2\n        /* \"#utility.yul\":18557:18688   */\n      tag_486\n      jump\t// in\n    tag_542:\n        /* \"#utility.yul\":18549:18688   */\n      swap1\n      pop\n        /* \"#utility.yul\":18447:18695   */\n      swap2\n      swap1\n      pop\n      jump\t// out\n        /* \"#utility.yul\":18701:19120   */\n    tag_130:\n        /* \"#utility.yul\":18867:18871   */\n      0x00\n        /* \"#utility.yul\":18905:18907   */\n      0x20\n        /* \"#utility.yul\":18894:18903   */\n      dup3\n        /* \"#utility.yul\":18890:18908   */\n      add\n        /* \"#utility.yul\":18882:18908   */\n      swap1\n      pop\n        /* \"#utility.yul\":18954:18963   */\n      dup2\n        /* \"#utility.yul\":18948:18952   */\n      dup2\n        /* \"#utility.yul\":18944:18964   */\n      sub\n        /* \"#utility.yul\":18940:18941   */\n      0x00\n        /* \"#utility.yul\":18929:18938   */\n      dup4\n        /* \"#utility.yul\":18925:18942   */\n      add\n        /* \"#utility.yul\":18918:18965   */\n      mstore\n        /* \"#utility.yul\":18982:19113   */\n      tag_544\n        /* \"#utility.yul\":19108:19112   */\n      dup2\n        /* \"#utility.yul\":18982:19113   */\n      tag_491\n      jump\t// in\n    tag_544:\n        /* \"#utility.yul\":18974:19113   */\n      swap1\n      pop\n        /* \"#utility.yul\":18872:19120   */\n      swap2\n      swap1\n      pop\n      jump\t// out\n        /* \"#utility.yul\":19126:19545   */\n    tag_147:\n        /* \"#utility.yul\":19292:19296   */\n      0x00\n        /* \"#utility.yul\":19330:19332   */\n      0x20\n        /* \"#utility.yul\":19319:19328   */\n      dup3\n        /* \"#utility.yul\":19315:19333   */\n      add\n        /* \"#utility.yul\":19307:19333   */\n      swap1\n      pop\n        /* \"#utility.yul\":19379:19388   */\n      dup2\n        /* \"#utility.yul\":19373:19377   */\n      dup2\n        /* \"#utility.yul\":19369:19389   */\n      sub\n        /* \"#utility.yul\":19365:19366   */\n      0x00\n        /* \"#utility.yul\":19354:19363   */\n      dup4\n        /* \"#utility.yul\":19350:19367   */\n      add\n        /* \"#utility.yul\":19343:19390   */\n      mstore\n        /* \"#utility.yul\":19407:19538   */\n      tag_546\n        /* \"#utility.yul\":19533:19537   */\n      dup2\n        /* \"#utility.yul\":19407:19538   */\n      tag_496\n      jump\t// in\n    tag_546:\n        /* \"#utility.yul\":19399:19538   */\n      swap1\n      pop\n        /* \"#utility.yul\":19297:19545   */\n      swap2\n      swap1\n      pop\n      jump\t// out\n        /* \"#utility.yul\":19551:19773   */\n    tag_70:\n        /* \"#utility.yul\":19644:19648   */\n      0x00\n        /* \"#utility.yul\":19682:19684   */\n      0x20\n        /* \"#utility.yul\":19671:19680   */\n      dup3\n        /* \"#utility.yul\":19667:19685   */\n      add\n        /* \"#utility.yul\":19659:19685   */\n      swap1\n      pop\n        /* \"#utility.yul\":19695:19766   */\n      tag_548\n        /* \"#utility.yul\":19763:19764   */\n      0x00\n        /* \"#utility.yul\":19752:19761   */\n      dup4\n        /* \"#utility.yul\":19748:19765   */\n      add\n        /* \"#utility.yul\":19739:19745   */\n      dup5\n        /* \"#utility.yul\":19695:19766   */\n      tag_501\n      jump\t// in\n    tag_548:\n        /* \"#utility.yul\":19649:19773   */\n      swap3\n      swap2\n      pop\n      pop\n      jump\t// out\n        /* \"#utility.yul\":19779:19908   */\n    tag_336:\n        /* \"#utility.yul\":19813:19819   */\n      0x00\n        /* \"#utility.yul\":19840:19860   */\n      tag_550\n      tag_551\n      jump\t// in\n    tag_550:\n        /* \"#utility.yul\":19830:19860   */\n      swap1\n      pop\n        /* \"#utility.yul\":19869:19902   */\n      tag_552\n        /* \"#utility.yul\":19897:19901   */\n      dup3\n        /* \"#utility.yul\":19889:19895   */\n      dup3\n        /* \"#utility.yul\":19869:19902   */\n      tag_553\n      jump\t// in\n    tag_552:\n        /* \"#utility.yul\":19820:19908   */\n      swap2\n      swap1\n      pop\n      jump\t// out\n        /* \"#utility.yul\":19914:19989   */\n    tag_551:\n        /* \"#utility.yul\":19947:19953   */\n      0x00\n        /* \"#utility.yul\":19980:19982   */\n      0x40\n        /* \"#utility.yul\":19974:19983   */\n      mload\n        /* \"#utility.yul\":19964:19983   */\n      swap1\n      pop\n        /* \"#utility.yul\":19954:19989   */\n      swap1\n      jump\t// out\n        /* \"#utility.yul\":19995:20302   */\n    tag_335:\n        /* \"#utility.yul\":20056:20060   */\n      0x00\n        /* \"#utility.yul\":20146:20164   */\n      0xffffffffffffffff\n        /* \"#utility.yul\":20138:20144   */\n      dup3\n        /* \"#utility.yul\":20135:20165   */\n      gt\n        /* \"#utility.yul\":20132:20134   */\n      iszero\n      tag_556\n      jumpi\n        /* \"#utility.yul\":20168:20186   */\n      tag_557\n      tag_558\n      jump\t// in\n    tag_557:\n        /* \"#utility.yul\":20132:20134   */\n    tag_556:\n        /* \"#utility.yul\":20206:20235   */\n      tag_559\n        /* \"#utility.yul\":20228:20234   */\n      dup3\n        /* \"#utility.yul\":20206:20235   */\n      tag_416\n      jump\t// in\n    tag_559:\n        /* \"#utility.yul\":20198:20235   */\n      swap1\n      pop\n        /* \"#utility.yul\":20290:20294   */\n      0x20\n        /* \"#utility.yul\":20284:20288   */\n      dup2\n        /* \"#utility.yul\":20280:20295   */\n      add\n        /* \"#utility.yul\":20272:20295   */\n      swap1\n      pop\n        /* \"#utility.yul\":20061:20302   */\n      swap2\n      swap1\n      pop\n      jump\t// out\n        /* \"#utility.yul\":20308:20406   */\n    tag_410:\n        /* \"#utility.yul\":20359:20365   */\n      0x00\n        /* \"#utility.yul\":20393:20398   */\n      dup2\n        /* \"#utility.yul\":20387:20399   */\n      mload\n        /* \"#utility.yul\":20377:20399   */\n      swap1\n      pop\n        /* \"#utility.yul\":20366:20406   */\n      swap2\n      swap1\n      pop\n      jump\t// out\n        /* \"#utility.yul\":20412:20511   */\n    tag_420:\n        /* \"#utility.yul\":20464:20470   */\n      0x00\n        /* \"#utility.yul\":20498:20503   */\n      dup2\n        /* \"#utility.yul\":20492:20504   */\n      mload\n        /* \"#utility.yul\":20482:20504   */\n      swap1\n      pop\n        /* \"#utility.yul\":20471:20511   */\n      swap2\n      swap1\n      pop\n      jump\t// out\n        /* \"#utility.yul\":20517:20685   */\n    tag_412:\n        /* \"#utility.yul\":20600:20611   */\n      0x00\n        /* \"#utility.yul\":20634:20640   */\n      dup3\n        /* \"#utility.yul\":20629:20632   */\n      dup3\n        /* \"#utility.yul\":20622:20641   */\n      mstore\n        /* \"#utility.yul\":20674:20678   */\n      0x20\n        /* \"#utility.yul\":20669:20672   */\n      dup3\n        /* \"#utility.yul\":20665:20679   */\n      add\n        /* \"#utility.yul\":20650:20679   */\n      swap1\n      pop\n        /* \"#utility.yul\":20612:20685   */\n      swap3\n      swap2\n      pop\n      pop\n      jump\t// out\n        /* \"#utility.yul\":20691:20860   */\n    tag_422:\n        /* \"#utility.yul\":20775:20786   */\n      0x00\n        /* \"#utility.yul\":20809:20815   */\n      dup3\n        /* \"#utility.yul\":20804:20807   */\n      dup3\n        /* \"#utility.yul\":20797:20816   */\n      mstore\n        /* \"#utility.yul\":20849:20853   */\n      0x20\n        /* \"#utility.yul\":20844:20847   */\n      dup3\n        /* \"#utility.yul\":20840:20854   */\n      add\n        /* \"#utility.yul\":20825:20854   */\n      swap1\n      pop\n        /* \"#utility.yul\":20787:20860   */\n      swap3\n      swap2\n      pop\n      pop\n      jump\t// out\n        /* \"#utility.yul\":20866:21014   */\n    tag_429:\n        /* \"#utility.yul\":20968:20979   */\n      0x00\n        /* \"#utility.yul\":21005:21008   */\n      dup2\n        /* \"#utility.yul\":20990:21008   */\n      swap1\n      pop\n        /* \"#utility.yul\":20980:21014   */\n      swap3\n      swap2\n      pop\n      pop\n      jump\t// out\n        /* \"#utility.yul\":21020:21325   */\n    tag_241:\n        /* \"#utility.yul\":21060:21063   */\n      0x00\n        /* \"#utility.yul\":21079:21099   */\n      tag_566\n        /* \"#utility.yul\":21097:21098   */\n      dup3\n        /* \"#utility.yul\":21079:21099   */\n      tag_504\n      jump\t// in\n    tag_566:\n        /* \"#utility.yul\":21074:21099   */\n      swap2\n      pop\n        /* \"#utility.yul\":21113:21133   */\n      tag_567\n        /* \"#utility.yul\":21131:21132   */\n      dup4\n        /* \"#utility.yul\":21113:21133   */\n      tag_504\n      jump\t// in\n    tag_567:\n        /* \"#utility.yul\":21108:21133   */\n      swap3\n      pop\n        /* \"#utility.yul\":21267:21268   */\n      dup3\n        /* \"#utility.yul\":21199:21265   */\n      0xffffffffffffffffffffffffffffffffffffffffffffffffffffffffffffffff\n        /* \"#utility.yul\":21195:21269   */\n      sub\n        /* \"#utility.yul\":21192:21193   */\n      dup3\n        /* \"#utility.yul\":21189:21270   */\n      gt\n        /* \"#utility.yul\":21186:21188   */\n      iszero\n      tag_568\n      jumpi\n        /* \"#utility.yul\":21273:21291   */\n      tag_569\n      tag_570\n      jump\t// in\n    tag_569:\n        /* \"#utility.yul\":21186:21188   */\n    tag_568:\n        /* \"#utility.yul\":21317:21318   */\n      dup3\n        /* \"#utility.yul\":21314:21315   */\n      dup3\n        /* \"#utility.yul\":21310:21319   */\n      add\n        /* \"#utility.yul\":21303:21319   */\n      swap1\n      pop\n        /* \"#utility.yul\":21064:21325   */\n      swap3\n      swap2\n      pop\n      pop\n      jump\t// out\n        /* \"#utility.yul\":21331:21516   */\n    tag_276:\n        /* \"#utility.yul\":21371:21372   */\n      0x00\n        /* \"#utility.yul\":21388:21408   */\n      tag_572\n        /* \"#utility.yul\":21406:21407   */\n      dup3\n        /* \"#utility.yul\":21388:21408   */\n      tag_504\n      jump\t// in\n    tag_572:\n        /* \"#utility.yul\":21383:21408   */\n      swap2\n      pop\n        /* \"#utility.yul\":21422:21442   */\n      tag_573\n        /* \"#utility.yul\":21440:21441   */\n      dup4\n        /* \"#utility.yul\":21422:21442   */\n      tag_504\n      jump\t// in\n    tag_573:\n        /* \"#utility.yul\":21417:21442   */\n      swap3\n      pop\n        /* \"#utility.yul\":21461:21462   */\n      dup3\n        /* \"#utility.yul\":21451:21453   */\n      tag_574\n      jumpi\n        /* \"#utility.yul\":21466:21484   */\n      tag_575\n      tag_576\n      jump\t// in\n    tag_575:\n        /* \"#utility.yul\":21451:21453   */\n    tag_574:\n        /* \"#utility.yul\":21508:21509   */\n      dup3\n        /* \"#utility.yul\":21505:21506   */\n      dup3\n        /* \"#utility.yul\":21501:21510   */\n      div\n        /* \"#utility.yul\":21496:21510   */\n      swap1\n      pop\n        /* \"#utility.yul\":21373:21516   */\n      swap3\n      swap2\n      pop\n      pop\n      jump\t// out\n        /* \"#utility.yul\":21522:21713   */\n    tag_239:\n        /* \"#utility.yul\":21562:21566   */\n      0x00\n        /* \"#utility.yul\":21582:21602   */\n      tag_578\n        /* \"#utility.yul\":21600:21601   */\n      dup3\n        /* \"#utility.yul\":21582:21602   */\n      tag_504\n      jump\t// in\n    tag_578:\n        /* \"#utility.yul\":21577:21602   */\n      swap2\n      pop\n        /* \"#utility.yul\":21616:21636   */\n      tag_579\n        /* \"#utility.yul\":21634:21635   */\n      dup4\n        /* \"#utility.yul\":21616:21636   */\n      tag_504\n      jump\t// in\n    tag_579:\n        /* \"#utility.yul\":21611:21636   */\n      swap3\n      pop\n        /* \"#utility.yul\":21655:21656   */\n      dup3\n        /* \"#utility.yul\":21652:21653   */\n      dup3\n        /* \"#utility.yul\":21649:21657   */\n      lt\n        /* \"#utility.yul\":21646:21648   */\n      iszero\n      tag_580\n      jumpi\n        /* \"#utility.yul\":21660:21678   */\n      tag_581\n      tag_570\n      jump\t// in\n    tag_581:\n        /* \"#utility.yul\":21646:21648   */\n    tag_580:\n        /* \"#utility.yul\":21705:21706   */\n      dup3\n        /* \"#utility.yul\":21702:21703   */\n      dup3\n        /* \"#utility.yul\":21698:21707   */\n      sub\n        /* \"#utility.yul\":21690:21707   */\n      swap1\n      pop\n        /* \"#utility.yul\":21567:21713   */\n      swap3\n      swap2\n      pop\n      pop\n      jump\t// out\n        /* \"#utility.yul\":21719:21815   */\n    tag_402:\n        /* \"#utility.yul\":21756:21763   */\n      0x00\n        /* \"#utility.yul\":21785:21809   */\n      tag_583\n        /* \"#utility.yul\":21803:21808   */\n      dup3\n        /* \"#utility.yul\":21785:21809   */\n      tag_584\n      jump\t// in\n    tag_583:\n        /* \"#utility.yul\":21774:21809   */\n      swap1\n      pop\n        /* \"#utility.yul\":21764:21815   */\n      swap2\n      swap1\n      pop\n      jump\t// out\n        /* \"#utility.yul\":21821:21911   */\n    tag_406:\n        /* \"#utility.yul\":21855:21862   */\n      0x00\n        /* \"#utility.yul\":21898:21903   */\n      dup2\n        /* \"#utility.yul\":21891:21904   */\n      iszero\n        /* \"#utility.yul\":21884:21905   */\n      iszero\n        /* \"#utility.yul\":21873:21905   */\n      swap1\n      pop\n        /* \"#utility.yul\":21863:21911   */\n      swap2\n      swap1\n      pop\n      jump\t// out\n        /* \"#utility.yul\":21917:22066   */\n    tag_586:\n        /* \"#utility.yul\":21953:21960   */\n      0x00\n        /* \"#utility.yul\":21993:22059   */\n      0xffffffff00000000000000000000000000000000000000000000000000000000\n        /* \"#utility.yul\":21986:21991   */\n      dup3\n        /* \"#utility.yul\":21982:22060   */\n      and\n        /* \"#utility.yul\":21971:22060   */\n      swap1\n      pop\n        /* \"#utility.yul\":21961:22066   */\n      swap2\n      swap1\n      pop\n      jump\t// out\n        /* \"#utility.yul\":22072:22198   */\n    tag_584:\n        /* \"#utility.yul\":22109:22116   */\n      0x00\n        /* \"#utility.yul\":22149:22191   */\n      0xffffffffffffffffffffffffffffffffffffffff\n        /* \"#utility.yul\":22142:22147   */\n      dup3\n        /* \"#utility.yul\":22138:22192   */\n      and\n        /* \"#utility.yul\":22127:22192   */\n      swap1\n      pop\n        /* \"#utility.yul\":22117:22198   */\n      swap2\n      swap1\n      pop\n      jump\t// out\n        /* \"#utility.yul\":22204:22281   */\n    tag_504:\n        /* \"#utility.yul\":22241:22248   */\n      0x00\n        /* \"#utility.yul\":22270:22275   */\n      dup2\n        /* \"#utility.yul\":22259:22275   */\n      swap1\n      pop\n        /* \"#utility.yul\":22249:22281   */\n      swap2\n      swap1\n      pop\n      jump\t// out\n        /* \"#utility.yul\":22287:22441   */\n    tag_339:\n        /* \"#utility.yul\":22371:22377   */\n      dup3\n        /* \"#utility.yul\":22366:22369   */\n      dup2\n        /* \"#utility.yul\":22361:22364   */\n      dup4\n        /* \"#utility.yul\":22348:22378   */\n      calldatacopy\n        /* \"#utility.yul\":22433:22434   */\n      0x00\n        /* \"#utility.yul\":22424:22430   */\n      dup4\n        /* \"#utility.yul\":22419:22422   */\n      dup4\n        /* \"#utility.yul\":22415:22431   */\n      add\n        /* \"#utility.yul\":22408:22435   */\n      mstore\n        /* \"#utility.yul\":22338:22441   */\n      pop\n      pop\n      pop\n      jump\t// out\n        /* \"#utility.yul\":22447:22754   */\n    tag_414:\n        /* \"#utility.yul\":22515:22516   */\n      0x00\n        /* \"#utility.yul\":22525:22638   */\n    tag_592:\n        /* \"#utility.yul\":22539:22545   */\n      dup4\n        /* \"#utility.yul\":22536:22537   */\n      dup2\n        /* \"#utility.yul\":22533:22546   */\n      lt\n        /* \"#utility.yul\":22525:22638   */\n      iszero\n      tag_594\n      jumpi\n        /* \"#utility.yul\":22624:22625   */\n      dup1\n        /* \"#utility.yul\":22619:22622   */\n      dup3\n        /* \"#utility.yul\":22615:22626   */\n      add\n        /* \"#utility.yul\":22609:22627   */\n      mload\n        /* \"#utility.yul\":22605:22606   */\n      dup2\n        /* \"#utility.yul\":22600:22603   */\n      dup5\n        /* \"#utility.yul\":22596:22607   */\n      add\n        /* \"#utility.yul\":22589:22628   */\n      mstore\n        /* \"#utility.yul\":22561:22563   */\n      0x20\n        /* \"#utility.yul\":22558:22559   */\n      dup2\n        /* \"#utility.yul\":22554:22564   */\n      add\n        /* \"#utility.yul\":22549:22564   */\n      swap1\n      pop\n        /* \"#utility.yul\":22525:22638   */\n      jump(tag_592)\n    tag_594:\n        /* \"#utility.yul\":22656:22662   */\n      dup4\n        /* \"#utility.yul\":22653:22654   */\n      dup2\n        /* \"#utility.yul\":22650:22663   */\n      gt\n        /* \"#utility.yul\":22647:22649   */\n      iszero\n      tag_595\n      jumpi\n        /* \"#utility.yul\":22736:22737   */\n      0x00\n        /* \"#utility.yul\":22727:22733   */\n      dup5\n        /* \"#utility.yul\":22722:22725   */\n      dup5\n        /* \"#utility.yul\":22718:22734   */\n      add\n        /* \"#utility.yul\":22711:22738   */\n      mstore\n        /* \"#utility.yul\":22647:22649   */\n    tag_595:\n        /* \"#utility.yul\":22496:22754   */\n      pop\n      pop\n      pop\n      pop\n      jump\t// out\n        /* \"#utility.yul\":22760:23080   */\n    tag_118:\n        /* \"#utility.yul\":22804:22810   */\n      0x00\n        /* \"#utility.yul\":22841:22842   */\n      0x02\n        /* \"#utility.yul\":22835:22839   */\n      dup3\n        /* \"#utility.yul\":22831:22843   */\n      div\n        /* \"#utility.yul\":22821:22843   */\n      swap1\n      pop\n        /* \"#utility.yul\":22888:22889   */\n      0x01\n        /* \"#utility.yul\":22882:22886   */\n      dup3\n        /* \"#utility.yul\":22878:22890   */\n      and\n        /* \"#utility.yul\":22909:22927   */\n      dup1\n        /* \"#utility.yul\":22899:22901   */\n      tag_597\n      jumpi\n        /* \"#utility.yul\":22965:22969   */\n      0x7f\n        /* \"#utility.yul\":22957:22963   */\n      dup3\n        /* \"#utility.yul\":22953:22970   */\n      and\n        /* \"#utility.yul\":22943:22970   */\n      swap2\n      pop\n        /* \"#utility.yul\":22899:22901   */\n    tag_597:\n        /* \"#utility.yul\":23027:23029   */\n      0x20\n        /* \"#utility.yul\":23019:23025   */\n      dup3\n        /* \"#utility.yul\":23016:23030   */\n      lt\n        /* \"#utility.yul\":22996:23014   */\n      dup2\n        /* \"#utility.yul\":22993:23031   */\n      eq\n        /* \"#utility.yul\":22990:22992   */\n      iszero\n      tag_598\n      jumpi\n        /* \"#utility.yul\":23046:23064   */\n      tag_599\n      tag_600\n      jump\t// in\n    tag_599:\n        /* \"#utility.yul\":22990:22992   */\n    tag_598:\n        /* \"#utility.yul\":22811:23080   */\n      pop\n      swap2\n      swap1\n      pop\n      jump\t// out\n        /* \"#utility.yul\":23086:23367   */\n    tag_553:\n        /* \"#utility.yul\":23169:23196   */\n      tag_602\n        /* \"#utility.yul\":23191:23195   */\n      dup3\n        /* \"#utility.yul\":23169:23196   */\n      tag_416\n      jump\t// in\n    tag_602:\n        /* \"#utility.yul\":23161:23167   */\n      dup2\n        /* \"#utility.yul\":23157:23197   */\n      add\n        /* \"#utility.yul\":23299:23305   */\n      dup2\n        /* \"#utility.yul\":23287:23297   */\n      dup2\n        /* \"#utility.yul\":23284:23306   */\n      lt\n        /* \"#utility.yul\":23263:23281   */\n      0xffffffffffffffff\n        /* \"#utility.yul\":23251:23261   */\n      dup3\n        /* \"#utility.yul\":23248:23282   */\n      gt\n        /* \"#utility.yul\":23245:23307   */\n      or\n        /* \"#utility.yul\":23242:23244   */\n      iszero\n      tag_603\n      jumpi\n        /* \"#utility.yul\":23310:23328   */\n      tag_604\n      tag_558\n      jump\t// in\n    tag_604:\n        /* \"#utility.yul\":23242:23244   */\n    tag_603:\n        /* \"#utility.yul\":23350:23360   */\n      dup1\n        /* \"#utility.yul\":23346:23348   */\n      0x40\n        /* \"#utility.yul\":23339:23361   */\n      mstore\n        /* \"#utility.yul\":23129:23367   */\n      pop\n      pop\n      pop\n      jump\t// out\n        /* \"#utility.yul\":23373:23606   */\n    tag_274:\n        /* \"#utility.yul\":23412:23415   */\n      0x00\n        /* \"#utility.yul\":23435:23459   */\n      tag_606\n        /* \"#utility.yul\":23453:23458   */\n      dup3\n        /* \"#utility.yul\":23435:23459   */\n      tag_504\n      jump\t// in\n    tag_606:\n        /* \"#utility.yul\":23426:23459   */\n      swap2\n      pop\n        /* \"#utility.yul\":23481:23547   */\n      0xffffffffffffffffffffffffffffffffffffffffffffffffffffffffffffffff\n        /* \"#utility.yul\":23474:23479   */\n      dup3\n        /* \"#utility.yul\":23471:23548   */\n      eq\n        /* \"#utility.yul\":23468:23470   */\n      iszero\n      tag_607\n      jumpi\n        /* \"#utility.yul\":23551:23569   */\n      tag_608\n      tag_570\n      jump\t// in\n    tag_608:\n        /* \"#utility.yul\":23468:23470   */\n    tag_607:\n        /* \"#utility.yul\":23598:23599   */\n      0x01\n        /* \"#utility.yul\":23591:23596   */\n      dup3\n        /* \"#utility.yul\":23587:23600   */\n      add\n        /* \"#utility.yul\":23580:23600   */\n      swap1\n      pop\n        /* \"#utility.yul\":23416:23606   */\n      swap2\n      swap1\n      pop\n      jump\t// out\n        /* \"#utility.yul\":23612:23788   */\n    tag_283:\n        /* \"#utility.yul\":23644:23645   */\n      0x00\n        /* \"#utility.yul\":23661:23681   */\n      tag_610\n        /* \"#utility.yul\":23679:23680   */\n      dup3\n        /* \"#utility.yul\":23661:23681   */\n      tag_504\n      jump\t// in\n    tag_610:\n        /* \"#utility.yul\":23656:23681   */\n      swap2\n      pop\n        /* \"#utility.yul\":23695:23715   */\n      tag_611\n        /* \"#utility.yul\":23713:23714   */\n      dup4\n        /* \"#utility.yul\":23695:23715   */\n      tag_504\n      jump\t// in\n    tag_611:\n        /* \"#utility.yul\":23690:23715   */\n      swap3\n      pop\n        /* \"#utility.yul\":23734:23735   */\n      dup3\n        /* \"#utility.yul\":23724:23726   */\n      tag_612\n      jumpi\n        /* \"#utility.yul\":23739:23757   */\n      tag_613\n      tag_576\n      jump\t// in\n    tag_613:\n        /* \"#utility.yul\":23724:23726   */\n    tag_612:\n        /* \"#utility.yul\":23780:23781   */\n      dup3\n        /* \"#utility.yul\":23777:23778   */\n      dup3\n        /* \"#utility.yul\":23773:23782   */\n      mod\n        /* \"#utility.yul\":23768:23782   */\n      swap1\n      pop\n        /* \"#utility.yul\":23646:23788   */\n      swap3\n      swap2\n      pop\n      pop\n      jump\t// out\n        /* \"#utility.yul\":23794:23974   */\n    tag_570:\n        /* \"#utility.yul\":23842:23919   */\n      0x4e487b7100000000000000000000000000000000000000000000000000000000\n        /* \"#utility.yul\":23839:23840   */\n      0x00\n        /* \"#utility.yul\":23832:23920   */\n      mstore\n        /* \"#utility.yul\":23939:23943   */\n      0x11\n        /* \"#utility.yul\":23936:23937   */\n      0x04\n        /* \"#utility.yul\":23929:23944   */\n      mstore\n        /* \"#utility.yul\":23963:23967   */\n      0x24\n        /* \"#utility.yul\":23960:23961   */\n      0x00\n        /* \"#utility.yul\":23953:23968   */\n      revert\n        /* \"#utility.yul\":23980:24160   */\n    tag_576:\n        /* \"#utility.yul\":24028:24105   */\n      0x4e487b7100000000000000000000000000000000000000000000000000000000\n        /* \"#utility.yul\":24025:24026   */\n      0x00\n        /* \"#utility.yul\":24018:24106   */\n      mstore\n        /* \"#utility.yul\":24125:24129   */\n      0x12\n        /* \"#utility.yul\":24122:24123   */\n      0x04\n        /* \"#utility.yul\":24115:24130   */\n      mstore\n        /* \"#utility.yul\":24149:24153   */\n      0x24\n        /* \"#utility.yul\":24146:24147   */\n      0x00\n        /* \"#utility.yul\":24139:24154   */\n      revert\n        /* \"#utility.yul\":24166:24346   */\n    tag_600:\n        /* \"#utility.yul\":24214:24291   */\n      0x4e487b7100000000000000000000000000000000000000000000000000000000\n        /* \"#utility.yul\":24211:24212   */\n      0x00\n        /* \"#utility.yul\":24204:24292   */\n      mstore\n        /* \"#utility.yul\":24311:24315   */\n      0x22\n        /* \"#utility.yul\":24308:24309   */\n      0x04\n        /* \"#utility.yul\":24301:24316   */\n      mstore\n        /* \"#utility.yul\":24335:24339   */\n      0x24\n        /* \"#utility.yul\":24332:24333   */\n      0x00\n        /* \"#utility.yul\":24325:24340   */\n      revert\n        /* \"#utility.yul\":24352:24532   */\n    tag_558:\n        /* \"#utility.yul\":24400:24477   */\n      0x4e487b7100000000000000000000000000000000000000000000000000000000\n        /* \"#utility.yul\":24397:24398   */\n      0x00\n        /* \"#utility.yul\":24390:24478   */\n      mstore\n        /* \"#utility.yul\":24497:24501   */\n      0x41\n        /* \"#utility.yul\":24494:24495   */\n      0x04\n        /* \"#utility.yul\":24487:24502   */\n      mstore\n        /* \"#utility.yul\":24521:24525   */\n      0x24\n        /* \"#utility.yul\":24518:24519   */\n      0x00\n        /* \"#utility.yul\":24511:24526   */\n      revert\n        /* \"#utility.yul\":24538:24640   */\n    tag_416:\n        /* \"#utility.yul\":24579:24585   */\n      0x00\n        /* \"#utility.yul\":24630:24632   */\n      0x1f\n        /* \"#utility.yul\":24626:24633   */\n      not\n        /* \"#utility.yul\":24621:24623   */\n      0x1f\n        /* \"#utility.yul\":24614:24619   */\n      dup4\n        /* \"#utility.yul\":24610:24624   */\n      add\n        /* \"#utility.yul\":24606:24634   */\n      and\n        /* \"#utility.yul\":24596:24634   */\n      swap1\n      pop\n        /* \"#utility.yul\":24586:24640   */\n      swap2\n      swap1\n      pop\n      jump\t// out\n        /* \"#utility.yul\":24646:24883   */\n    tag_435:\n        /* \"#utility.yul\":24786:24820   */\n      0x4552433732313a207472616e7366657220746f206e6f6e204552433732315265\n        /* \"#utility.yul\":24782:24783   */\n      0x00\n        /* \"#utility.yul\":24774:24780   */\n      dup3\n        /* \"#utility.yul\":24770:24784   */\n      add\n        /* \"#utility.yul\":24763:24821   */\n      mstore\n        /* \"#utility.yul\":24855:24875   */\n      0x63656976657220696d706c656d656e7465720000000000000000000000000000\n        /* \"#utility.yul\":24850:24852   */\n      0x20\n        /* \"#utility.yul\":24842:24848   */\n      dup3\n        /* \"#utility.yul\":24838:24853   */\n      add\n        /* \"#utility.yul\":24831:24876   */\n      mstore\n        /* \"#utility.yul\":24752:24883   */\n      pop\n      jump\t// out\n        /* \"#utility.yul\":24889:25114   */\n    tag_440:\n        /* \"#utility.yul\":25029:25063   */\n      0x4f776e61626c653a206e6577206f776e657220697320746865207a65726f2061\n        /* \"#utility.yul\":25025:25026   */\n      0x00\n        /* \"#utility.yul\":25017:25023   */\n      dup3\n        /* \"#utility.yul\":25013:25027   */\n      add\n        /* \"#utility.yul\":25006:25064   */\n      mstore\n        /* \"#utility.yul\":25098:25106   */\n      0x6464726573730000000000000000000000000000000000000000000000000000\n        /* \"#utility.yul\":25093:25095   */\n      0x20\n        /* \"#utility.yul\":25085:25091   */\n      dup3\n        /* \"#utility.yul\":25081:25096   */\n      add\n        /* \"#utility.yul\":25074:25107   */\n      mstore\n        /* \"#utility.yul\":24995:25114   */\n      pop\n      jump\t// out\n        /* \"#utility.yul\":25120:25344   */\n    tag_445:\n        /* \"#utility.yul\":25260:25294   */\n      0x4552433732313a207472616e736665722066726f6d20696e636f727265637420\n        /* \"#utility.yul\":25256:25257   */\n      0x00\n        /* \"#utility.yul\":25248:25254   */\n      dup3\n        /* \"#utility.yul\":25244:25258   */\n      add\n        /* \"#utility.yul\":25237:25295   */\n      mstore\n        /* \"#utility.yul\":25329:25336   */\n      0x6f776e6572000000000000000000000000000000000000000000000000000000\n        /* \"#utility.yul\":25324:25326   */\n      0x20\n        /* \"#utility.yul\":25316:25322   */\n      dup3\n        /* \"#utility.yul\":25312:25327   */\n      add\n        /* \"#utility.yul\":25305:25337   */\n      mstore\n        /* \"#utility.yul\":25226:25344   */\n      pop\n      jump\t// out\n        /* \"#utility.yul\":25350:25528   */\n    tag_450:\n        /* \"#utility.yul\":25490:25520   */\n      0x4552433732313a20746f6b656e20616c7265616479206d696e74656400000000\n        /* \"#utility.yul\":25486:25487   */\n      0x00\n        /* \"#utility.yul\":25478:25484   */\n      dup3\n        /* \"#utility.yul\":25474:25488   */\n      add\n        /* \"#utility.yul\":25467:25521   */\n      mstore\n        /* \"#utility.yul\":25456:25528   */\n      pop\n      jump\t// out\n        /* \"#utility.yul\":25534:25757   */\n    tag_455:\n        /* \"#utility.yul\":25674:25708   */\n      0x4552433732313a207472616e7366657220746f20746865207a65726f20616464\n        /* \"#utility.yul\":25670:25671   */\n      0x00\n        /* \"#utility.yul\":25662:25668   */\n      dup3\n        /* \"#utility.yul\":25658:25672   */\n      add\n        /* \"#utility.yul\":25651:25709   */\n      mstore\n        /* \"#utility.yul\":25743:25749   */\n      0x7265737300000000000000000000000000000000000000000000000000000000\n        /* \"#utility.yul\":25738:25740   */\n      0x20\n        /* \"#utility.yul\":25730:25736   */\n      dup3\n        /* \"#utility.yul\":25726:25741   */\n      add\n        /* \"#utility.yul\":25719:25750   */\n      mstore\n        /* \"#utility.yul\":25640:25757   */\n      pop\n      jump\t// out\n        /* \"#utility.yul\":25763:25938   */\n    tag_460:\n        /* \"#utility.yul\":25903:25930   */\n      0x4552433732313a20617070726f766520746f2063616c6c657200000000000000\n        /* \"#utility.yul\":25899:25900   */\n      0x00\n        /* \"#utility.yul\":25891:25897   */\n      dup3\n        /* \"#utility.yul\":25887:25901   */\n      add\n        /* \"#utility.yul\":25880:25931   */\n      mstore\n        /* \"#utility.yul\":25869:25938   */\n      pop\n      jump\t// out\n        /* \"#utility.yul\":25944:26172   */\n    tag_465:\n        /* \"#utility.yul\":26084:26118   */\n      0x4552433732313a2061646472657373207a65726f206973206e6f742061207661\n        /* \"#utility.yul\":26080:26081   */\n      0x00\n        /* \"#utility.yul\":26072:26078   */\n      dup3\n        /* \"#utility.yul\":26068:26082   */\n      add\n        /* \"#utility.yul\":26061:26119   */\n      mstore\n        /* \"#utility.yul\":26153:26164   */\n      0x6c6964206f776e65720000000000000000000000000000000000000000000000\n        /* \"#utility.yul\":26148:26150   */\n      0x20\n        /* \"#utility.yul\":26140:26146   */\n      dup3\n        /* \"#utility.yul\":26136:26151   */\n      add\n        /* \"#utility.yul\":26129:26165   */\n      mstore\n        /* \"#utility.yul\":26050:26172   */\n      pop\n      jump\t// out\n        /* \"#utility.yul\":26178:26427   */\n    tag_470:\n        /* \"#utility.yul\":26318:26352   */\n      0x4552433732313a20617070726f76652063616c6c6572206973206e6f7420746f\n        /* \"#utility.yul\":26314:26315   */\n      0x00\n        /* \"#utility.yul\":26306:26312   */\n      dup3\n        /* \"#utility.yul\":26302:26316   */\n      add\n        /* \"#utility.yul\":26295:26353   */\n      mstore\n        /* \"#utility.yul\":26387:26419   */\n      0x6b656e206f776e6572206e6f7220617070726f76656420666f7220616c6c0000\n        /* \"#utility.yul\":26382:26384   */\n      0x20\n        /* \"#utility.yul\":26374:26380   */\n      dup3\n        /* \"#utility.yul\":26370:26385   */\n      add\n        /* \"#utility.yul\":26363:26420   */\n      mstore\n        /* \"#utility.yul\":26284:26427   */\n      pop\n      jump\t// out\n        /* \"#utility.yul\":26433:26615   */\n    tag_475:\n        /* \"#utility.yul\":26573:26607   */\n      0x4552433732313a206d696e7420746f20746865207a65726f2061646472657373\n        /* \"#utility.yul\":26569:26570   */\n      0x00\n        /* \"#utility.yul\":26561:26567   */\n      dup3\n        /* \"#utility.yul\":26557:26571   */\n      add\n        /* \"#utility.yul\":26550:26608   */\n      mstore\n        /* \"#utility.yul\":26539:26615   */\n      pop\n      jump\t// out\n        /* \"#utility.yul\":26621:26803   */\n    tag_480:\n        /* \"#utility.yul\":26761:26795   */\n      0x4f776e61626c653a2063616c6c6572206973206e6f7420746865206f776e6572\n        /* \"#utility.yul\":26757:26758   */\n      0x00\n        /* \"#utility.yul\":26749:26755   */\n      dup3\n        /* \"#utility.yul\":26745:26759   */\n      add\n        /* \"#utility.yul\":26738:26796   */\n      mstore\n        /* \"#utility.yul\":26727:26803   */\n      pop\n      jump\t// out\n        /* \"#utility.yul\":26809:26978   */\n    tag_485:\n        /* \"#utility.yul\":26949:26970   */\n      0x4e6f7420656e6f756768204554482073656e7400000000000000000000000000\n        /* \"#utility.yul\":26945:26946   */\n      0x00\n        /* \"#utility.yul\":26937:26943   */\n      dup3\n        /* \"#utility.yul\":26933:26947   */\n      add\n        /* \"#utility.yul\":26926:26971   */\n      mstore\n        /* \"#utility.yul\":26915:26978   */\n      pop\n      jump\t// out\n        /* \"#utility.yul\":26984:27158   */\n    tag_490:\n        /* \"#utility.yul\":27124:27150   */\n      0x4552433732313a20696e76616c696420746f6b656e2049440000000000000000\n        /* \"#utility.yul\":27120:27121   */\n      0x00\n        /* \"#utility.yul\":27112:27118   */\n      dup3\n        /* \"#utility.yul\":27108:27122   */\n      add\n        /* \"#utility.yul\":27101:27151   */\n      mstore\n        /* \"#utility.yul\":27090:27158   */\n      pop\n      jump\t// out\n        /* \"#utility.yul\":27164:27384   */\n    tag_495:\n        /* \"#utility.yul\":27304:27338   */\n      0x4552433732313a20617070726f76616c20746f2063757272656e74206f776e65\n        /* \"#utility.yul\":27300:27301   */\n      0x00\n        /* \"#utility.yul\":27292:27298   */\n      dup3\n        /* \"#utility.yul\":27288:27302   */\n      add\n        /* \"#utility.yul\":27281:27339   */\n      mstore\n        /* \"#utility.yul\":27373:27376   */\n      0x7200000000000000000000000000000000000000000000000000000000000000\n        /* \"#utility.yul\":27368:27370   */\n      0x20\n        /* \"#utility.yul\":27360:27366   */\n      dup3\n        /* \"#utility.yul\":27356:27371   */\n      add\n        /* \"#utility.yul\":27349:27377   */\n      mstore\n        /* \"#utility.yul\":27270:27384   */\n      pop\n      jump\t// out\n        /* \"#utility.yul\":27390:27623   */\n    tag_500:\n        /* \"#utility.yul\":27530:27564   */\n      0x4552433732313a2063616c6c6572206973206e6f7420746f6b656e206f776e65\n        /* \"#utility.yul\":27526:27527   */\n      0x00\n        /* \"#utility.yul\":27518:27524   */\n      dup3\n        /* \"#utility.yul\":27514:27528   */\n      add\n        /* \"#utility.yul\":27507:27565   */\n      mstore\n        /* \"#utility.yul\":27599:27615   */\n      0x72206e6f7220617070726f766564000000000000000000000000000000000000\n        /* \"#utility.yul\":27594:27596   */\n      0x20\n        /* \"#utility.yul\":27586:27592   */\n      dup3\n        /* \"#utility.yul\":27582:27597   */\n      add\n        /* \"#utility.yul\":27575:27616   */\n      mstore\n        /* \"#utility.yul\":27496:27623   */\n      pop\n      jump\t// out\n        /* \"#utility.yul\":27629:27751   */\n    tag_343:\n        /* \"#utility.yul\":27702:27726   */\n      tag_634\n        /* \"#utility.yul\":27720:27725   */\n      dup2\n        /* \"#utility.yul\":27702:27726   */\n      tag_402\n      jump\t// in\n    tag_634:\n        /* \"#utility.yul\":27695:27700   */\n      dup2\n        /* \"#utility.yul\":27692:27727   */\n      eq\n        /* \"#utility.yul\":27682:27684   */\n      tag_635\n      jumpi\n        /* \"#utility.yul\":27741:27742   */\n      0x00\n        /* \"#utility.yul\":27738:27739   */\n      dup1\n        /* \"#utility.yul\":27731:27743   */\n      revert\n        /* \"#utility.yul\":27682:27684   */\n    tag_635:\n        /* \"#utility.yul\":27672:27751   */\n      pop\n      jump\t// out\n        /* \"#utility.yul\":27757:27873   */\n    tag_347:\n        /* \"#utility.yul\":27827:27848   */\n      tag_637\n        /* \"#utility.yul\":27842:27847   */\n      dup2\n        /* \"#utility.yul\":27827:27848   */\n      tag_406\n      jump\t// in\n    tag_637:\n        /* \"#utility.yul\":27820:27825   */\n      dup2\n        /* \"#utility.yul\":27817:27849   */\n      eq\n        /* \"#utility.yul\":27807:27809   */\n      tag_638\n      jumpi\n        /* \"#utility.yul\":27863:27864   */\n      0x00\n        /* \"#utility.yul\":27860:27861   */\n      dup1\n        /* \"#utility.yul\":27853:27865   */\n      revert\n        /* \"#utility.yul\":27807:27809   */\n    tag_638:\n        /* \"#utility.yul\":27797:27873   */\n      pop\n      jump\t// out\n        /* \"#utility.yul\":27879:27999   */\n    tag_351:\n        /* \"#utility.yul\":27951:27974   */\n      tag_640\n        /* \"#utility.yul\":27968:27973   */\n      dup2\n        /* \"#utility.yul\":27951:27974   */\n      tag_586\n      jump\t// in\n    tag_640:\n        /* \"#utility.yul\":27944:27949   */\n      dup2\n        /* \"#utility.yul\":27941:27975   */\n      eq\n        /* \"#utility.yul\":27931:27933   */\n      tag_641\n      jumpi\n        /* \"#utility.yul\":27989:27990   */\n      0x00\n        /* \"#utility.yul\":27986:27987   */\n      dup1\n        /* \"#utility.yul\":27979:27991   */\n      revert\n        /* \"#utility.yul\":27931:27933   */\n    tag_641:\n        /* \"#utility.yul\":27921:27999   */\n      pop\n      jump\t// out\n        /* \"#utility.yul\":28005:28127   */\n    tag_362:\n        /* \"#utility.yul\":28078:28102   */\n      tag_643\n        /* \"#utility.yul\":28096:28101   */\n      dup2\n        /* \"#utility.yul\":28078:28102   */\n      tag_504\n      jump\t// in\n    tag_643:\n        /* \"#utility.yul\":28071:28076   */\n      dup2\n        /* \"#utility.yul\":28068:28103   */\n      eq\n        /* \"#utility.yul\":28058:28060   */\n      tag_644\n      jumpi\n        /* \"#utility.yul\":28117:28118   */\n      0x00\n        /* \"#utility.yul\":28114:28115   */\n      dup1\n        /* \"#utility.yul\":28107:28119   */\n      revert\n        /* \"#utility.yul\":28058:28060   */\n    tag_644:\n        /* \"#utility.yul\":28048:28127   */\n      pop\n      jump\t// out\n\n    auxdata: 0xa2646970667358221220d968b2f37fe22be5456d4eef0b9ece3559b914cfccefcbb4b55ea023cd9f350064736f6c63430008040033\n}\n",
				"bytecode": {
					"linkReferences": {},
					"object": "60806040526601c6bf526340006007553480156200001c57600080fd5b506040518060400160405280600c81526020017f4469706c6f6d61546f6b656e00000000000000000000000000000000000000008152506040518060400160405280600381526020017f44544b00000000000000000000000000000000000000000000000000000000008152508160009080519060200190620000a1929190620001b1565b508060019080519060200190620000ba929190620001b1565b505050620000dd620000d1620000e360201b60201c565b620000eb60201b60201c565b620002c6565b600033905090565b6000600660009054906101000a900473ffffffffffffffffffffffffffffffffffffffff16905081600660006101000a81548173ffffffffffffffffffffffffffffffffffffffff021916908373ffffffffffffffffffffffffffffffffffffffff1602179055508173ffffffffffffffffffffffffffffffffffffffff168173ffffffffffffffffffffffffffffffffffffffff167f8be0079c531659141344cd1fd0a4f28419497f9722a3daafe3b4186f6b6457e060405160405180910390a35050565b828054620001bf9062000261565b90600052602060002090601f016020900481019282620001e357600085556200022f565b82601f10620001fe57805160ff19168380011785556200022f565b828001600101855582156200022f579182015b828111156200022e57825182559160200191906001019062000211565b5b5090506200023e919062000242565b5090565b5b808211156200025d57600081600090555060010162000243565b5090565b600060028204905060018216806200027a57607f821691505b6020821081141562000291576200029062000297565b5b50919050565b7f4e487b7100000000000000000000000000000000000000000000000000000000600052602260045260246000fd5b612a5980620002d66000396000f3fe6080604052600436106101095760003560e01c8063715018a611610095578063b88d4fde11610064578063b88d4fde1461035a578063c002d23d14610383578063c87b56dd146103ae578063e985e9c5146103eb578063f2fde38b1461042857610109565b8063715018a6146102c45780638da5cb5b146102db57806395d89b4114610306578063a22cb4651461033157610109565b806323b872dd116100dc57806323b872dd146101dc57806340d097c31461020557806342842e0e146102215780636352211e1461024a57806370a082311461028757610109565b806301ffc9a71461010e57806306fdde031461014b578063081812fc14610176578063095ea7b3146101b3575b600080fd5b34801561011a57600080fd5b5061013560048036038101906101309190611ccd565b610451565b604051610142919061208d565b60405180910390f35b34801561015757600080fd5b50610160610533565b60405161016d91906120a8565b60405180910390f35b34801561018257600080fd5b5061019d60048036038101906101989190611d1f565b6105c5565b6040516101aa9190612026565b60405180910390f35b3480156101bf57600080fd5b506101da60048036038101906101d59190611c91565b61060b565b005b3480156101e857600080fd5b5061020360048036038101906101fe9190611b8b565b610723565b005b61021f600480360381019061021a9190611b26565b610783565b005b34801561022d57600080fd5b5061024860048036038101906102439190611b8b565b6107ed565b005b34801561025657600080fd5b50610271600480360381019061026c9190611d1f565b61080d565b60405161027e9190612026565b60405180910390f35b34801561029357600080fd5b506102ae60048036038101906102a99190611b26565b6108bf565b6040516102bb919061228a565b60405180910390f35b3480156102d057600080fd5b506102d9610977565b005b3480156102e757600080fd5b506102f061098b565b6040516102fd9190612026565b60405180910390f35b34801561031257600080fd5b5061031b6109b5565b60405161032891906120a8565b60405180910390f35b34801561033d57600080fd5b5061035860048036038101906103539190611c55565b610a47565b005b34801561036657600080fd5b50610381600480360381019061037c9190611bda565b610a5d565b005b34801561038f57600080fd5b50610398610abf565b6040516103a5919061228a565b60405180910390f35b3480156103ba57600080fd5b506103d560048036038101906103d09190611d1f565b610ac5565b6040516103e291906120a8565b60405180910390f35b3480156103f757600080fd5b50610412600480360381019061040d9190611b4f565b610b2d565b60405161041f919061208d565b60405180910390f35b34801561043457600080fd5b5061044f600480360381019061044a9190611b26565b610bc1565b005b60007f80ac58cd000000000000000000000000000000000000000000000000000000007bffffffffffffffffffffffffffffffffffffffffffffffffffffffff1916827bffffffffffffffffffffffffffffffffffffffffffffffffffffffff1916148061051c57507f5b5e139f000000000000000000000000000000000000000000000000000000007bffffffffffffffffffffffffffffffffffffffffffffffffffffffff1916827bffffffffffffffffffffffffffffffffffffffffffffffffffffffff1916145b8061052c575061052b82610c45565b5b9050919050565b606060008054610542906124af565b80601f016020809104026020016040519081016040528092919081815260200182805461056e906124af565b80156105bb5780601f10610590576101008083540402835291602001916105bb565b820191906000526020600020905b81548152906001019060200180831161059e57829003601f168201915b5050505050905090565b60006105d082610caf565b6004600083815260200190815260200160002060009054906101000a900473ffffffffffffffffffffffffffffffffffffffff169050919050565b60006106168261080d565b90508073ffffffffffffffffffffffffffffffffffffffff168373ffffffffffffffffffffffffffffffffffffffff161415610687576040517f08c379a000000000000000000000000000000000000000000000000000000000815260040161067e9061224a565b60405180910390fd5b8073ffffffffffffffffffffffffffffffffffffffff166106a6610cfa565b73ffffffffffffffffffffffffffffffffffffffff1614806106d557506106d4816106cf610cfa565b610b2d565b5b610714576040517f08c379a000000000000000000000000000000000000000000000000000000000815260040161070b906121aa565b60405180910390fd5b61071e8383610d02565b505050565b61073461072e610cfa565b82610dbb565b610773576040517f08c379a000000000000000000000000000000000000000000000000000000000815260040161076a9061226a565b60405180910390fd5b61077e838383610e50565b505050565b60075434116107c7576040517f08c379a00000000000000000000000000000000000000000000000000000000081526004016107be9061220a565b60405180910390fd5b60006107d360086110b7565b90506107df60086110c5565b6107e982826110db565b5050565b61080883838360405180602001604052806000815250610a5d565b505050565b6000806002600084815260200190815260200160002060009054906101000a900473ffffffffffffffffffffffffffffffffffffffff169050600073ffffffffffffffffffffffffffffffffffffffff168173ffffffffffffffffffffffffffffffffffffffff1614156108b6576040517f08c379a00000000000000000000000000000000000000000000000000000000081526004016108ad9061222a565b60405180910390fd5b80915050919050565b60008073ffffffffffffffffffffffffffffffffffffffff168273ffffffffffffffffffffffffffffffffffffffff161415610930576040517f08c379a00000000000000000000000000000000000000000000000000000000081526004016109279061218a565b60405180910390fd5b600360008373ffffffffffffffffffffffffffffffffffffffff1673ffffffffffffffffffffffffffffffffffffffff168152602001908152602001600020549050919050565b61097f6110f9565b6109896000611177565b565b6000600660009054906101000a900473ffffffffffffffffffffffffffffffffffffffff16905090565b6060600180546109c4906124af565b80601f01602080910402602001604051908101604052809291908181526020018280546109f0906124af565b8015610a3d5780601f10610a1257610100808354040283529160200191610a3d565b820191906000526020600020905b815481529060010190602001808311610a2057829003601f168201915b5050505050905090565b610a59610a52610cfa565b838361123d565b5050565b610a6e610a68610cfa565b83610dbb565b610aad576040517f08c379a0000000000000000000000000000000000000000000000000000000008152600401610aa49061226a565b60405180910390fd5b610ab9848484846113aa565b50505050565b60075481565b6060610ad082610caf565b6000610ada611406565b90506000815111610afa5760405180602001604052806000815250610b25565b80610b0484611443565b604051602001610b15929190612002565b6040516020818303038152906040525b915050919050565b6000600560008473ffffffffffffffffffffffffffffffffffffffff1673ffffffffffffffffffffffffffffffffffffffff16815260200190815260200160002060008373ffffffffffffffffffffffffffffffffffffffff1673ffffffffffffffffffffffffffffffffffffffff16815260200190815260200160002060009054906101000a900460ff16905092915050565b610bc96110f9565b600073ffffffffffffffffffffffffffffffffffffffff168173ffffffffffffffffffffffffffffffffffffffff161415610c39576040517f08c379a0000000000000000000000000000000000000000000000000000000008152600401610c30906120ea565b60405180910390fd5b610c4281611177565b50565b60007f01ffc9a7000000000000000000000000000000000000000000000000000000007bffffffffffffffffffffffffffffffffffffffffffffffffffffffff1916827bffffffffffffffffffffffffffffffffffffffffffffffffffffffff1916149050919050565b610cb8816115f0565b610cf7576040517f08c379a0000000000000000000000000000000000000000000000000000000008152600401610cee9061222a565b60405180910390fd5b50565b600033905090565b816004600083815260200190815260200160002060006101000a81548173ffffffffffffffffffffffffffffffffffffffff021916908373ffffffffffffffffffffffffffffffffffffffff160217905550808273ffffffffffffffffffffffffffffffffffffffff16610d758361080d565b73ffffffffffffffffffffffffffffffffffffffff167f8c5be1e5ebec7d5bd14f71427d1e84f3dd0314c0f7b2291e5b200ac8c7c3b92560405160405180910390a45050565b600080610dc78361080d565b90508073ffffffffffffffffffffffffffffffffffffffff168473ffffffffffffffffffffffffffffffffffffffff161480610e095750610e088185610b2d565b5b80610e4757508373ffffffffffffffffffffffffffffffffffffffff16610e2f846105c5565b73ffffffffffffffffffffffffffffffffffffffff16145b91505092915050565b8273ffffffffffffffffffffffffffffffffffffffff16610e708261080d565b73ffffffffffffffffffffffffffffffffffffffff1614610ec6576040517f08c379a0000000000000000000000000000000000000000000000000000000008152600401610ebd9061210a565b60405180910390fd5b600073ffffffffffffffffffffffffffffffffffffffff168273ffffffffffffffffffffffffffffffffffffffff161415610f36576040517f08c379a0000000000000000000000000000000000000000000000000000000008152600401610f2d9061214a565b60405180910390fd5b610f4183838361165c565b610f4c600082610d02565b6001600360008573ffffffffffffffffffffffffffffffffffffffff1673ffffffffffffffffffffffffffffffffffffffff1681526020019081526020016000206000828254610f9c91906123c5565b925050819055506001600360008473ffffffffffffffffffffffffffffffffffffffff1673ffffffffffffffffffffffffffffffffffffffff1681526020019081526020016000206000828254610ff3919061233e565b92505081905550816002600083815260200190815260200160002060006101000a81548173ffffffffffffffffffffffffffffffffffffffff021916908373ffffffffffffffffffffffffffffffffffffffff160217905550808273ffffffffffffffffffffffffffffffffffffffff168473ffffffffffffffffffffffffffffffffffffffff167fddf252ad1be2c89b69c2b068fc378daa952ba7f163c4a11628f55a4df523b3ef60405160405180910390a46110b2838383611661565b505050565b600081600001549050919050565b6001816000016000828254019250508190555050565b6110f5828260405180602001604052806000815250611666565b5050565b611101610cfa565b73ffffffffffffffffffffffffffffffffffffffff1661111f61098b565b73ffffffffffffffffffffffffffffffffffffffff1614611175576040517f08c379a000000000000000000000000000000000000000000000000000000000815260040161116c906121ea565b60405180910390fd5b565b6000600660009054906101000a900473ffffffffffffffffffffffffffffffffffffffff16905081600660006101000a81548173ffffffffffffffffffffffffffffffffffffffff021916908373ffffffffffffffffffffffffffffffffffffffff1602179055508173ffffffffffffffffffffffffffffffffffffffff168173ffffffffffffffffffffffffffffffffffffffff167f8be0079c531659141344cd1fd0a4f28419497f9722a3daafe3b4186f6b6457e060405160405180910390a35050565b8173ffffffffffffffffffffffffffffffffffffffff168373ffffffffffffffffffffffffffffffffffffffff1614156112ac576040517f08c379a00000000000000000000000000000000000000000000000000000000081526004016112a39061216a565b60405180910390fd5b80600560008573ffffffffffffffffffffffffffffffffffffffff1673ffffffffffffffffffffffffffffffffffffffff16815260200190815260200160002060008473ffffffffffffffffffffffffffffffffffffffff1673ffffffffffffffffffffffffffffffffffffffff16815260200190815260200160002060006101000a81548160ff0219169083151502179055508173ffffffffffffffffffffffffffffffffffffffff168373ffffffffffffffffffffffffffffffffffffffff167f17307eab39ab6107e8899845ad3d59bd9653f200f220920489ca2b5937696c318360405161139d919061208d565b60405180910390a3505050565b6113b5848484610e50565b6113c1848484846116c1565b611400576040517f08c379a00000000000000000000000000000000000000000000000000000000081526004016113f7906120ca565b60405180910390fd5b50505050565b60606040518060400160405280601681526020017f697066733a2f2f4469706c6f6d61426173655552492f00000000000000000000815250905090565b6060600082141561148b576040518060400160405280600181526020017f300000000000000000000000000000000000000000000000000000000000000081525090506115eb565b600082905060005b600082146114bd5780806114a690612512565b915050600a826114b69190612394565b9150611493565b60008167ffffffffffffffff8111156114ff577f4e487b7100000000000000000000000000000000000000000000000000000000600052604160045260246000fd5b6040519080825280601f01601f1916602001820160405280156115315781602001600182028036833780820191505090505b5090505b600085146115e45760018261154a91906123c5565b9150600a85611559919061255b565b6030611565919061233e565b60f81b8183815181106115a1577f4e487b7100000000000000000000000000000000000000000000000000000000600052603260045260246000fd5b60200101907effffffffffffffffffffffffffffffffffffffffffffffffffffffffffffff1916908160001a905350600a856115dd9190612394565b9450611535565b8093505050505b919050565b60008073ffffffffffffffffffffffffffffffffffffffff166002600084815260200190815260200160002060009054906101000a900473ffffffffffffffffffffffffffffffffffffffff1673ffffffffffffffffffffffffffffffffffffffff1614159050919050565b505050565b505050565b6116708383611858565b61167d60008484846116c1565b6116bc576040517f08c379a00000000000000000000000000000000000000000000000000000000081526004016116b3906120ca565b60405180910390fd5b505050565b60006116e28473ffffffffffffffffffffffffffffffffffffffff16611a32565b1561184b578373ffffffffffffffffffffffffffffffffffffffff1663150b7a0261170b610cfa565b8786866040518563ffffffff1660e01b815260040161172d9493929190612041565b602060405180830381600087803b15801561174757600080fd5b505af192505050801561177857506040513d601f19601f820116820180604052508101906117759190611cf6565b60015b6117fb573d80600081146117a8576040519150601f19603f3d011682016040523d82523d6000602084013e6117ad565b606091505b506000815114156117f3576040517f08c379a00000000000000000000000000000000000000000000000000000000081526004016117ea906120ca565b60405180910390fd5b805181602001fd5b63150b7a0260e01b7bffffffffffffffffffffffffffffffffffffffffffffffffffffffff1916817bffffffffffffffffffffffffffffffffffffffffffffffffffffffff191614915050611850565b600190505b949350505050565b600073ffffffffffffffffffffffffffffffffffffffff168273ffffffffffffffffffffffffffffffffffffffff1614156118c8576040517f08c379a00000000000000000000000000000000000000000000000000000000081526004016118bf906121ca565b60405180910390fd5b6118d1816115f0565b15611911576040517f08c379a00000000000000000000000000000000000000000000000000000000081526004016119089061212a565b60405180910390fd5b61191d6000838361165c565b6001600360008473ffffffffffffffffffffffffffffffffffffffff1673ffffffffffffffffffffffffffffffffffffffff168152602001908152602001600020600082825461196d919061233e565b92505081905550816002600083815260200190815260200160002060006101000a81548173ffffffffffffffffffffffffffffffffffffffff021916908373ffffffffffffffffffffffffffffffffffffffff160217905550808273ffffffffffffffffffffffffffffffffffffffff16600073ffffffffffffffffffffffffffffffffffffffff167fddf252ad1be2c89b69c2b068fc378daa952ba7f163c4a11628f55a4df523b3ef60405160405180910390a4611a2e60008383611661565b5050565b6000808273ffffffffffffffffffffffffffffffffffffffff163b119050919050565b6000611a68611a63846122ca565b6122a5565b905082815260208101848484011115611a8057600080fd5b611a8b84828561246d565b509392505050565b600081359050611aa2816129c7565b92915050565b600081359050611ab7816129de565b92915050565b600081359050611acc816129f5565b92915050565b600081519050611ae1816129f5565b92915050565b600082601f830112611af857600080fd5b8135611b08848260208601611a55565b91505092915050565b600081359050611b2081612a0c565b92915050565b600060208284031215611b3857600080fd5b6000611b4684828501611a93565b91505092915050565b60008060408385031215611b6257600080fd5b6000611b7085828601611a93565b9250506020611b8185828601611a93565b9150509250929050565b600080600060608486031215611ba057600080fd5b6000611bae86828701611a93565b9350506020611bbf86828701611a93565b9250506040611bd086828701611b11565b9150509250925092565b60008060008060808587031215611bf057600080fd5b6000611bfe87828801611a93565b9450506020611c0f87828801611a93565b9350506040611c2087828801611b11565b925050606085013567ffffffffffffffff811115611c3d57600080fd5b611c4987828801611ae7565b91505092959194509250565b60008060408385031215611c6857600080fd5b6000611c7685828601611a93565b9250506020611c8785828601611aa8565b9150509250929050565b60008060408385031215611ca457600080fd5b6000611cb285828601611a93565b9250506020611cc385828601611b11565b9150509250929050565b600060208284031215611cdf57600080fd5b6000611ced84828501611abd565b91505092915050565b600060208284031215611d0857600080fd5b6000611d1684828501611ad2565b91505092915050565b600060208284031215611d3157600080fd5b6000611d3f84828501611b11565b91505092915050565b611d51816123f9565b82525050565b611d608161240b565b82525050565b6000611d71826122fb565b611d7b8185612311565b9350611d8b81856020860161247c565b611d9481612648565b840191505092915050565b6000611daa82612306565b611db48185612322565b9350611dc481856020860161247c565b611dcd81612648565b840191505092915050565b6000611de382612306565b611ded8185612333565b9350611dfd81856020860161247c565b80840191505092915050565b6000611e16603283612322565b9150611e2182612659565b604082019050919050565b6000611e39602683612322565b9150611e44826126a8565b604082019050919050565b6000611e5c602583612322565b9150611e67826126f7565b604082019050919050565b6000611e7f601c83612322565b9150611e8a82612746565b602082019050919050565b6000611ea2602483612322565b9150611ead8261276f565b604082019050919050565b6000611ec5601983612322565b9150611ed0826127be565b602082019050919050565b6000611ee8602983612322565b9150611ef3826127e7565b604082019050919050565b6000611f0b603e83612322565b9150611f1682612836565b604082019050919050565b6000611f2e602083612322565b9150611f3982612885565b602082019050919050565b6000611f51602083612322565b9150611f5c826128ae565b602082019050919050565b6000611f74601383612322565b9150611f7f826128d7565b602082019050919050565b6000611f97601883612322565b9150611fa282612900565b602082019050919050565b6000611fba602183612322565b9150611fc582612929565b604082019050919050565b6000611fdd602e83612322565b9150611fe882612978565b604082019050919050565b611ffc81612463565b82525050565b600061200e8285611dd8565b915061201a8284611dd8565b91508190509392505050565b600060208201905061203b6000830184611d48565b92915050565b60006080820190506120566000830187611d48565b6120636020830186611d48565b6120706040830185611ff3565b81810360608301526120828184611d66565b905095945050505050565b60006020820190506120a26000830184611d57565b92915050565b600060208201905081810360008301526120c28184611d9f565b905092915050565b600060208201905081810360008301526120e381611e09565b9050919050565b6000602082019050818103600083015261210381611e2c565b9050919050565b6000602082019050818103600083015261212381611e4f565b9050919050565b6000602082019050818103600083015261214381611e72565b9050919050565b6000602082019050818103600083015261216381611e95565b9050919050565b6000602082019050818103600083015261218381611eb8565b9050919050565b600060208201905081810360008301526121a381611edb565b9050919050565b600060208201905081810360008301526121c381611efe565b9050919050565b600060208201905081810360008301526121e381611f21565b9050919050565b6000602082019050818103600083015261220381611f44565b9050919050565b6000602082019050818103600083015261222381611f67565b9050919050565b6000602082019050818103600083015261224381611f8a565b9050919050565b6000602082019050818103600083015261226381611fad565b9050919050565b6000602082019050818103600083015261228381611fd0565b9050919050565b600060208201905061229f6000830184611ff3565b92915050565b60006122af6122c0565b90506122bb82826124e1565b919050565b6000604051905090565b600067ffffffffffffffff8211156122e5576122e4612619565b5b6122ee82612648565b9050602081019050919050565b600081519050919050565b600081519050919050565b600082825260208201905092915050565b600082825260208201905092915050565b600081905092915050565b600061234982612463565b915061235483612463565b9250827fffffffffffffffffffffffffffffffffffffffffffffffffffffffffffffffff038211156123895761238861258c565b5b828201905092915050565b600061239f82612463565b91506123aa83612463565b9250826123ba576123b96125bb565b5b828204905092915050565b60006123d082612463565b91506123db83612463565b9250828210156123ee576123ed61258c565b5b828203905092915050565b600061240482612443565b9050919050565b60008115159050919050565b60007fffffffff0000000000000000000000000000000000000000000000000000000082169050919050565b600073ffffffffffffffffffffffffffffffffffffffff82169050919050565b6000819050919050565b82818337600083830152505050565b60005b8381101561249a57808201518184015260208101905061247f565b838111156124a9576000848401525b50505050565b600060028204905060018216806124c757607f821691505b602082108114156124db576124da6125ea565b5b50919050565b6124ea82612648565b810181811067ffffffffffffffff8211171561250957612508612619565b5b80604052505050565b600061251d82612463565b91507fffffffffffffffffffffffffffffffffffffffffffffffffffffffffffffffff8214156125505761254f61258c565b5b600182019050919050565b600061256682612463565b915061257183612463565b925082612581576125806125bb565b5b828206905092915050565b7f4e487b7100000000000000000000000000000000000000000000000000000000600052601160045260246000fd5b7f4e487b7100000000000000000000000000000000000000000000000000000000600052601260045260246000fd5b7f4e487b7100000000000000000000000000000000000000000000000000000000600052602260045260246000fd5b7f4e487b7100000000000000000000000000000000000000000000000000000000600052604160045260246000fd5b6000601f19601f8301169050919050565b7f4552433732313a207472616e7366657220746f206e6f6e20455243373231526560008201527f63656976657220696d706c656d656e7465720000000000000000000000000000602082015250565b7f4f776e61626c653a206e6577206f776e657220697320746865207a65726f206160008201527f6464726573730000000000000000000000000000000000000000000000000000602082015250565b7f4552433732313a207472616e736665722066726f6d20696e636f72726563742060008201527f6f776e6572000000000000000000000000000000000000000000000000000000602082015250565b7f4552433732313a20746f6b656e20616c7265616479206d696e74656400000000600082015250565b7f4552433732313a207472616e7366657220746f20746865207a65726f2061646460008201527f7265737300000000000000000000000000000000000000000000000000000000602082015250565b7f4552433732313a20617070726f766520746f2063616c6c657200000000000000600082015250565b7f4552433732313a2061646472657373207a65726f206973206e6f74206120766160008201527f6c6964206f776e65720000000000000000000000000000000000000000000000602082015250565b7f4552433732313a20617070726f76652063616c6c6572206973206e6f7420746f60008201527f6b656e206f776e6572206e6f7220617070726f76656420666f7220616c6c0000602082015250565b7f4552433732313a206d696e7420746f20746865207a65726f2061646472657373600082015250565b7f4f776e61626c653a2063616c6c6572206973206e6f7420746865206f776e6572600082015250565b7f4e6f7420656e6f756768204554482073656e7400000000000000000000000000600082015250565b7f4552433732313a20696e76616c696420746f6b656e2049440000000000000000600082015250565b7f4552433732313a20617070726f76616c20746f2063757272656e74206f776e6560008201527f7200000000000000000000000000000000000000000000000000000000000000602082015250565b7f4552433732313a2063616c6c6572206973206e6f7420746f6b656e206f776e6560008201527f72206e6f7220617070726f766564000000000000000000000000000000000000602082015250565b6129d0816123f9565b81146129db57600080fd5b50565b6129e78161240b565b81146129f257600080fd5b50565b6129fe81612417565b8114612a0957600080fd5b50565b612a1581612463565b8114612a2057600080fd5b5056fea2646970667358221220d968b2f37fe22be5456d4eef0b9ece3559b914cfccefcbb4b55ea023cd9f350064736f6c63430008040033",
					"opcodes": "PUSH1 0x80 PUSH1 0x40 MSTORE PUSH7 0x1C6BF52634000 PUSH1 0x7 SSTORE CALLVALUE DUP1 ISZERO PUSH3 0x1C JUMPI PUSH1 0x0 DUP1 REVERT JUMPDEST POP PUSH1 0x40 MLOAD DUP1 PUSH1 0x40 ADD PUSH1 0x40 MSTORE DUP1 PUSH1 0xC DUP2 MSTORE PUSH1 0x20 ADD PUSH32 0x4469706C6F6D61546F6B656E0000000000000000000000000000000000000000 DUP2 MSTORE POP PUSH1 0x40 MLOAD DUP1 PUSH1 0x40 ADD PUSH1 0x40 MSTORE DUP1 PUSH1 0x3 DUP2 MSTORE PUSH1 0x20 ADD PUSH32 0x44544B0000000000000000000000000000000000000000000000000000000000 DUP2 MSTORE POP DUP2 PUSH1 0x0 SWAP1 DUP1 MLOAD SWAP1 PUSH1 0x20 ADD SWAP1 PUSH3 0xA1 SWAP3 SWAP2 SWAP1 PUSH3 0x1B1 JUMP JUMPDEST POP DUP1 PUSH1 0x1 SWAP1 DUP1 MLOAD SWAP1 PUSH1 0x20 ADD SWAP1 PUSH3 0xBA SWAP3 SWAP2 SWAP1 PUSH3 0x1B1 JUMP JUMPDEST POP POP POP PUSH3 0xDD PUSH3 0xD1 PUSH3 0xE3 PUSH1 0x20 SHL PUSH1 0x20 SHR JUMP JUMPDEST PUSH3 0xEB PUSH1 0x20 SHL PUSH1 0x20 SHR JUMP JUMPDEST PUSH3 0x2C6 JUMP JUMPDEST PUSH1 0x0 CALLER SWAP1 POP SWAP1 JUMP JUMPDEST PUSH1 0x0 PUSH1 0x6 PUSH1 0x0 SWAP1 SLOAD SWAP1 PUSH2 0x100 EXP SWAP1 DIV PUSH20 0xFFFFFFFFFFFFFFFFFFFFFFFFFFFFFFFFFFFFFFFF AND SWAP1 POP DUP2 PUSH1 0x6 PUSH1 0x0 PUSH2 0x100 EXP DUP2 SLOAD DUP2 PUSH20 0xFFFFFFFFFFFFFFFFFFFFFFFFFFFFFFFFFFFFFFFF MUL NOT AND SWAP1 DUP4 PUSH20 0xFFFFFFFFFFFFFFFFFFFFFFFFFFFFFFFFFFFFFFFF AND MUL OR SWAP1 SSTORE POP DUP2 PUSH20 0xFFFFFFFFFFFFFFFFFFFFFFFFFFFFFFFFFFFFFFFF AND DUP2 PUSH20 0xFFFFFFFFFFFFFFFFFFFFFFFFFFFFFFFFFFFFFFFF AND PUSH32 0x8BE0079C531659141344CD1FD0A4F28419497F9722A3DAAFE3B4186F6B6457E0 PUSH1 0x40 MLOAD PUSH1 0x40 MLOAD DUP1 SWAP2 SUB SWAP1 LOG3 POP POP JUMP JUMPDEST DUP3 DUP1 SLOAD PUSH3 0x1BF SWAP1 PUSH3 0x261 JUMP JUMPDEST SWAP1 PUSH1 0x0 MSTORE PUSH1 0x20 PUSH1 0x0 KECCAK256 SWAP1 PUSH1 0x1F ADD PUSH1 0x20 SWAP1 DIV DUP2 ADD SWAP3 DUP3 PUSH3 0x1E3 JUMPI PUSH1 0x0 DUP6 SSTORE PUSH3 0x22F JUMP JUMPDEST DUP3 PUSH1 0x1F LT PUSH3 0x1FE JUMPI DUP1 MLOAD PUSH1 0xFF NOT AND DUP4 DUP1 ADD OR DUP6 SSTORE PUSH3 0x22F JUMP JUMPDEST DUP3 DUP1 ADD PUSH1 0x1 ADD DUP6 SSTORE DUP3 ISZERO PUSH3 0x22F JUMPI SWAP2 DUP3 ADD JUMPDEST DUP3 DUP2 GT ISZERO PUSH3 0x22E JUMPI DUP3 MLOAD DUP3 SSTORE SWAP2 PUSH1 0x20 ADD SWAP2 SWAP1 PUSH1 0x1 ADD SWAP1 PUSH3 0x211 JUMP JUMPDEST JUMPDEST POP SWAP1 POP PUSH3 0x23E SWAP2 SWAP1 PUSH3 0x242 JUMP JUMPDEST POP SWAP1 JUMP JUMPDEST JUMPDEST DUP1 DUP3 GT ISZERO PUSH3 0x25D JUMPI PUSH1 0x0 DUP2 PUSH1 0x0 SWAP1 SSTORE POP PUSH1 0x1 ADD PUSH3 0x243 JUMP JUMPDEST POP SWAP1 JUMP JUMPDEST PUSH1 0x0 PUSH1 0x2 DUP3 DIV SWAP1 POP PUSH1 0x1 DUP3 AND DUP1 PUSH3 0x27A JUMPI PUSH1 0x7F DUP3 AND SWAP2 POP JUMPDEST PUSH1 0x20 DUP3 LT DUP2 EQ ISZERO PUSH3 0x291 JUMPI PUSH3 0x290 PUSH3 0x297 JUMP JUMPDEST JUMPDEST POP SWAP2 SWAP1 POP JUMP JUMPDEST PUSH32 0x4E487B7100000000000000000000000000000000000000000000000000000000 PUSH1 0x0 MSTORE PUSH1 0x22 PUSH1 0x4 MSTORE PUSH1 0x24 PUSH1 0x0 REVERT JUMPDEST PUSH2 0x2A59 DUP1 PUSH3 0x2D6 PUSH1 0x0 CODECOPY PUSH1 0x0 RETURN INVALID PUSH1 0x80 PUSH1 0x40 MSTORE PUSH1 0x4 CALLDATASIZE LT PUSH2 0x109 JUMPI PUSH1 0x0 CALLDATALOAD PUSH1 0xE0 SHR DUP1 PUSH4 0x715018A6 GT PUSH2 0x95 JUMPI DUP1 PUSH4 0xB88D4FDE GT PUSH2 0x64 JUMPI DUP1 PUSH4 0xB88D4FDE EQ PUSH2 0x35A JUMPI DUP1 PUSH4 0xC002D23D EQ PUSH2 0x383 JUMPI DUP1 PUSH4 0xC87B56DD EQ PUSH2 0x3AE JUMPI DUP1 PUSH4 0xE985E9C5 EQ PUSH2 0x3EB JUMPI DUP1 PUSH4 0xF2FDE38B EQ PUSH2 0x428 JUMPI PUSH2 0x109 JUMP JUMPDEST DUP1 PUSH4 0x715018A6 EQ PUSH2 0x2C4 JUMPI DUP1 PUSH4 0x8DA5CB5B EQ PUSH2 0x2DB JUMPI DUP1 PUSH4 0x95D89B41 EQ PUSH2 0x306 JUMPI DUP1 PUSH4 0xA22CB465 EQ PUSH2 0x331 JUMPI PUSH2 0x109 JUMP JUMPDEST DUP1 PUSH4 0x23B872DD GT PUSH2 0xDC JUMPI DUP1 PUSH4 0x23B872DD EQ PUSH2 0x1DC JUMPI DUP1 PUSH4 0x40D097C3 EQ PUSH2 0x205 JUMPI DUP1 PUSH4 0x42842E0E EQ PUSH2 0x221 JUMPI DUP1 PUSH4 0x6352211E EQ PUSH2 0x24A JUMPI DUP1 PUSH4 0x70A08231 EQ PUSH2 0x287 JUMPI PUSH2 0x109 JUMP JUMPDEST DUP1 PUSH4 0x1FFC9A7 EQ PUSH2 0x10E JUMPI DUP1 PUSH4 0x6FDDE03 EQ PUSH2 0x14B JUMPI DUP1 PUSH4 0x81812FC EQ PUSH2 0x176 JUMPI DUP1 PUSH4 0x95EA7B3 EQ PUSH2 0x1B3 JUMPI JUMPDEST PUSH1 0x0 DUP1 REVERT JUMPDEST CALLVALUE DUP1 ISZERO PUSH2 0x11A JUMPI PUSH1 0x0 DUP1 REVERT JUMPDEST POP PUSH2 0x135 PUSH1 0x4 DUP1 CALLDATASIZE SUB DUP2 ADD SWAP1 PUSH2 0x130 SWAP2 SWAP1 PUSH2 0x1CCD JUMP JUMPDEST PUSH2 0x451 JUMP JUMPDEST PUSH1 0x40 MLOAD PUSH2 0x142 SWAP2 SWAP1 PUSH2 0x208D JUMP JUMPDEST PUSH1 0x40 MLOAD DUP1 SWAP2 SUB SWAP1 RETURN JUMPDEST CALLVALUE DUP1 ISZERO PUSH2 0x157 JUMPI PUSH1 0x0 DUP1 REVERT JUMPDEST POP PUSH2 0x160 PUSH2 0x533 JUMP JUMPDEST PUSH1 0x40 MLOAD PUSH2 0x16D SWAP2 SWAP1 PUSH2 0x20A8 JUMP JUMPDEST PUSH1 0x40 MLOAD DUP1 SWAP2 SUB SWAP1 RETURN JUMPDEST CALLVALUE DUP1 ISZERO PUSH2 0x182 JUMPI PUSH1 0x0 DUP1 REVERT JUMPDEST POP PUSH2 0x19D PUSH1 0x4 DUP1 CALLDATASIZE SUB DUP2 ADD SWAP1 PUSH2 0x198 SWAP2 SWAP1 PUSH2 0x1D1F JUMP JUMPDEST PUSH2 0x5C5 JUMP JUMPDEST PUSH1 0x40 MLOAD PUSH2 0x1AA SWAP2 SWAP1 PUSH2 0x2026 JUMP JUMPDEST PUSH1 0x40 MLOAD DUP1 SWAP2 SUB SWAP1 RETURN JUMPDEST CALLVALUE DUP1 ISZERO PUSH2 0x1BF JUMPI PUSH1 0x0 DUP1 REVERT JUMPDEST POP PUSH2 0x1DA PUSH1 0x4 DUP1 CALLDATASIZE SUB DUP2 ADD SWAP1 PUSH2 0x1D5 SWAP2 SWAP1 PUSH2 0x1C91 JUMP JUMPDEST PUSH2 0x60B JUMP JUMPDEST STOP JUMPDEST CALLVALUE DUP1 ISZERO PUSH2 0x1E8 JUMPI PUSH1 0x0 DUP1 REVERT JUMPDEST POP PUSH2 0x203 PUSH1 0x4 DUP1 CALLDATASIZE SUB DUP2 ADD SWAP1 PUSH2 0x1FE SWAP2 SWAP1 PUSH2 0x1B8B JUMP JUMPDEST PUSH2 0x723 JUMP JUMPDEST STOP JUMPDEST PUSH2 0x21F PUSH1 0x4 DUP1 CALLDATASIZE SUB DUP2 ADD SWAP1 PUSH2 0x21A SWAP2 SWAP1 PUSH2 0x1B26 JUMP JUMPDEST PUSH2 0x783 JUMP JUMPDEST STOP JUMPDEST CALLVALUE DUP1 ISZERO PUSH2 0x22D JUMPI PUSH1 0x0 DUP1 REVERT JUMPDEST POP PUSH2 0x248 PUSH1 0x4 DUP1 CALLDATASIZE SUB DUP2 ADD SWAP1 PUSH2 0x243 SWAP2 SWAP1 PUSH2 0x1B8B JUMP JUMPDEST PUSH2 0x7ED JUMP JUMPDEST STOP JUMPDEST CALLVALUE DUP1 ISZERO PUSH2 0x256 JUMPI PUSH1 0x0 DUP1 REVERT JUMPDEST POP PUSH2 0x271 PUSH1 0x4 DUP1 CALLDATASIZE SUB DUP2 ADD SWAP1 PUSH2 0x26C SWAP2 SWAP1 PUSH2 0x1D1F JUMP JUMPDEST PUSH2 0x80D JUMP JUMPDEST PUSH1 0x40 MLOAD PUSH2 0x27E SWAP2 SWAP1 PUSH2 0x2026 JUMP JUMPDEST PUSH1 0x40 MLOAD DUP1 SWAP2 SUB SWAP1 RETURN JUMPDEST CALLVALUE DUP1 ISZERO PUSH2 0x293 JUMPI PUSH1 0x0 DUP1 REVERT JUMPDEST POP PUSH2 0x2AE PUSH1 0x4 DUP1 CALLDATASIZE SUB DUP2 ADD SWAP1 PUSH2 0x2A9 SWAP2 SWAP1 PUSH2 0x1B26 JUMP JUMPDEST PUSH2 0x8BF JUMP JUMPDEST PUSH1 0x40 MLOAD PUSH2 0x2BB SWAP2 SWAP1 PUSH2 0x228A JUMP JUMPDEST PUSH1 0x40 MLOAD DUP1 SWAP2 SUB SWAP1 RETURN JUMPDEST CALLVALUE DUP1 ISZERO PUSH2 0x2D0 JUMPI PUSH1 0x0 DUP1 REVERT JUMPDEST POP PUSH2 0x2D9 PUSH2 0x977 JUMP JUMPDEST STOP JUMPDEST CALLVALUE DUP1 ISZERO PUSH2 0x2E7 JUMPI PUSH1 0x0 DUP1 REVERT JUMPDEST POP PUSH2 0x2F0 PUSH2 0x98B JUMP JUMPDEST PUSH1 0x40 MLOAD PUSH2 0x2FD SWAP2 SWAP1 PUSH2 0x2026 JUMP JUMPDEST PUSH1 0x40 MLOAD DUP1 SWAP2 SUB SWAP1 RETURN JUMPDEST CALLVALUE DUP1 ISZERO PUSH2 0x312 JUMPI PUSH1 0x0 DUP1 REVERT JUMPDEST POP PUSH2 0x31B PUSH2 0x9B5 JUMP JUMPDEST PUSH1 0x40 MLOAD PUSH2 0x328 SWAP2 SWAP1 PUSH2 0x20A8 JUMP JUMPDEST PUSH1 0x40 MLOAD DUP1 SWAP2 SUB SWAP1 RETURN JUMPDEST CALLVALUE DUP1 ISZERO PUSH2 0x33D JUMPI PUSH1 0x0 DUP1 REVERT JUMPDEST POP PUSH2 0x358 PUSH1 0x4 DUP1 CALLDATASIZE SUB DUP2 ADD SWAP1 PUSH2 0x353 SWAP2 SWAP1 PUSH2 0x1C55 JUMP JUMPDEST PUSH2 0xA47 JUMP JUMPDEST STOP JUMPDEST CALLVALUE DUP1 ISZERO PUSH2 0x366 JUMPI PUSH1 0x0 DUP1 REVERT JUMPDEST POP PUSH2 0x381 PUSH1 0x4 DUP1 CALLDATASIZE SUB DUP2 ADD SWAP1 PUSH2 0x37C SWAP2 SWAP1 PUSH2 0x1BDA JUMP JUMPDEST PUSH2 0xA5D JUMP JUMPDEST STOP JUMPDEST CALLVALUE DUP1 ISZERO PUSH2 0x38F JUMPI PUSH1 0x0 DUP1 REVERT JUMPDEST POP PUSH2 0x398 PUSH2 0xABF JUMP JUMPDEST PUSH1 0x40 MLOAD PUSH2 0x3A5 SWAP2 SWAP1 PUSH2 0x228A JUMP JUMPDEST PUSH1 0x40 MLOAD DUP1 SWAP2 SUB SWAP1 RETURN JUMPDEST CALLVALUE DUP1 ISZERO PUSH2 0x3BA JUMPI PUSH1 0x0 DUP1 REVERT JUMPDEST POP PUSH2 0x3D5 PUSH1 0x4 DUP1 CALLDATASIZE SUB DUP2 ADD SWAP1 PUSH2 0x3D0 SWAP2 SWAP1 PUSH2 0x1D1F JUMP JUMPDEST PUSH2 0xAC5 JUMP JUMPDEST PUSH1 0x40 MLOAD PUSH2 0x3E2 SWAP2 SWAP1 PUSH2 0x20A8 JUMP JUMPDEST PUSH1 0x40 MLOAD DUP1 SWAP2 SUB SWAP1 RETURN JUMPDEST CALLVALUE DUP1 ISZERO PUSH2 0x3F7 JUMPI PUSH1 0x0 DUP1 REVERT JUMPDEST POP PUSH2 0x412 PUSH1 0x4 DUP1 CALLDATASIZE SUB DUP2 ADD SWAP1 PUSH2 0x40D SWAP2 SWAP1 PUSH2 0x1B4F JUMP JUMPDEST PUSH2 0xB2D JUMP JUMPDEST PUSH1 0x40 MLOAD PUSH2 0x41F SWAP2 SWAP1 PUSH2 0x208D JUMP JUMPDEST PUSH1 0x40 MLOAD DUP1 SWAP2 SUB SWAP1 RETURN JUMPDEST CALLVALUE DUP1 ISZERO PUSH2 0x434 JUMPI PUSH1 0x0 DUP1 REVERT JUMPDEST POP PUSH2 0x44F PUSH1 0x4 DUP1 CALLDATASIZE SUB DUP2 ADD SWAP1 PUSH2 0x44A SWAP2 SWAP1 PUSH2 0x1B26 JUMP JUMPDEST PUSH2 0xBC1 JUMP JUMPDEST STOP JUMPDEST PUSH1 0x0 PUSH32 0x80AC58CD00000000000000000000000000000000000000000000000000000000 PUSH28 0xFFFFFFFFFFFFFFFFFFFFFFFFFFFFFFFFFFFFFFFFFFFFFFFFFFFFFFFF NOT AND DUP3 PUSH28 0xFFFFFFFFFFFFFFFFFFFFFFFFFFFFFFFFFFFFFFFFFFFFFFFFFFFFFFFF NOT AND EQ DUP1 PUSH2 0x51C JUMPI POP PUSH32 0x5B5E139F00000000000000000000000000000000000000000000000000000000 PUSH28 0xFFFFFFFFFFFFFFFFFFFFFFFFFFFFFFFFFFFFFFFFFFFFFFFFFFFFFFFF NOT AND DUP3 PUSH28 0xFFFFFFFFFFFFFFFFFFFFFFFFFFFFFFFFFFFFFFFFFFFFFFFFFFFFFFFF NOT AND EQ JUMPDEST DUP1 PUSH2 0x52C JUMPI POP PUSH2 0x52B DUP3 PUSH2 0xC45 JUMP JUMPDEST JUMPDEST SWAP1 POP SWAP2 SWAP1 POP JUMP JUMPDEST PUSH1 0x60 PUSH1 0x0 DUP1 SLOAD PUSH2 0x542 SWAP1 PUSH2 0x24AF JUMP JUMPDEST DUP1 PUSH1 0x1F ADD PUSH1 0x20 DUP1 SWAP2 DIV MUL PUSH1 0x20 ADD PUSH1 0x40 MLOAD SWAP1 DUP2 ADD PUSH1 0x40 MSTORE DUP1 SWAP3 SWAP2 SWAP1 DUP2 DUP2 MSTORE PUSH1 0x20 ADD DUP3 DUP1 SLOAD PUSH2 0x56E SWAP1 PUSH2 0x24AF JUMP JUMPDEST DUP1 ISZERO PUSH2 0x5BB JUMPI DUP1 PUSH1 0x1F LT PUSH2 0x590 JUMPI PUSH2 0x100 DUP1 DUP4 SLOAD DIV MUL DUP4 MSTORE SWAP2 PUSH1 0x20 ADD SWAP2 PUSH2 0x5BB JUMP JUMPDEST DUP3 ADD SWAP2 SWAP1 PUSH1 0x0 MSTORE PUSH1 0x20 PUSH1 0x0 KECCAK256 SWAP1 JUMPDEST DUP2 SLOAD DUP2 MSTORE SWAP1 PUSH1 0x1 ADD SWAP1 PUSH1 0x20 ADD DUP1 DUP4 GT PUSH2 0x59E JUMPI DUP3 SWAP1 SUB PUSH1 0x1F AND DUP3 ADD SWAP2 JUMPDEST POP POP POP POP POP SWAP1 POP SWAP1 JUMP JUMPDEST PUSH1 0x0 PUSH2 0x5D0 DUP3 PUSH2 0xCAF JUMP JUMPDEST PUSH1 0x4 PUSH1 0x0 DUP4 DUP2 MSTORE PUSH1 0x20 ADD SWAP1 DUP2 MSTORE PUSH1 0x20 ADD PUSH1 0x0 KECCAK256 PUSH1 0x0 SWAP1 SLOAD SWAP1 PUSH2 0x100 EXP SWAP1 DIV PUSH20 0xFFFFFFFFFFFFFFFFFFFFFFFFFFFFFFFFFFFFFFFF AND SWAP1 POP SWAP2 SWAP1 POP JUMP JUMPDEST PUSH1 0x0 PUSH2 0x616 DUP3 PUSH2 0x80D JUMP JUMPDEST SWAP1 POP DUP1 PUSH20 0xFFFFFFFFFFFFFFFFFFFFFFFFFFFFFFFFFFFFFFFF AND DUP4 PUSH20 0xFFFFFFFFFFFFFFFFFFFFFFFFFFFFFFFFFFFFFFFF AND EQ ISZERO PUSH2 0x687 JUMPI PUSH1 0x40 MLOAD PUSH32 0x8C379A000000000000000000000000000000000000000000000000000000000 DUP2 MSTORE PUSH1 0x4 ADD PUSH2 0x67E SWAP1 PUSH2 0x224A JUMP JUMPDEST PUSH1 0x40 MLOAD DUP1 SWAP2 SUB SWAP1 REVERT JUMPDEST DUP1 PUSH20 0xFFFFFFFFFFFFFFFFFFFFFFFFFFFFFFFFFFFFFFFF AND PUSH2 0x6A6 PUSH2 0xCFA JUMP JUMPDEST PUSH20 0xFFFFFFFFFFFFFFFFFFFFFFFFFFFFFFFFFFFFFFFF AND EQ DUP1 PUSH2 0x6D5 JUMPI POP PUSH2 0x6D4 DUP2 PUSH2 0x6CF PUSH2 0xCFA JUMP JUMPDEST PUSH2 0xB2D JUMP JUMPDEST JUMPDEST PUSH2 0x714 JUMPI PUSH1 0x40 MLOAD PUSH32 0x8C379A000000000000000000000000000000000000000000000000000000000 DUP2 MSTORE PUSH1 0x4 ADD PUSH2 0x70B SWAP1 PUSH2 0x21AA JUMP JUMPDEST PUSH1 0x40 MLOAD DUP1 SWAP2 SUB SWAP1 REVERT JUMPDEST PUSH2 0x71E DUP4 DUP4 PUSH2 0xD02 JUMP JUMPDEST POP POP POP JUMP JUMPDEST PUSH2 0x734 PUSH2 0x72E PUSH2 0xCFA JUMP JUMPDEST DUP3 PUSH2 0xDBB JUMP JUMPDEST PUSH2 0x773 JUMPI PUSH1 0x40 MLOAD PUSH32 0x8C379A000000000000000000000000000000000000000000000000000000000 DUP2 MSTORE PUSH1 0x4 ADD PUSH2 0x76A SWAP1 PUSH2 0x226A JUMP JUMPDEST PUSH1 0x40 MLOAD DUP1 SWAP2 SUB SWAP1 REVERT JUMPDEST PUSH2 0x77E DUP4 DUP4 DUP4 PUSH2 0xE50 JUMP JUMPDEST POP POP POP JUMP JUMPDEST PUSH1 0x7 SLOAD CALLVALUE GT PUSH2 0x7C7 JUMPI PUSH1 0x40 MLOAD PUSH32 0x8C379A000000000000000000000000000000000000000000000000000000000 DUP2 MSTORE PUSH1 0x4 ADD PUSH2 0x7BE SWAP1 PUSH2 0x220A JUMP JUMPDEST PUSH1 0x40 MLOAD DUP1 SWAP2 SUB SWAP1 REVERT JUMPDEST PUSH1 0x0 PUSH2 0x7D3 PUSH1 0x8 PUSH2 0x10B7 JUMP JUMPDEST SWAP1 POP PUSH2 0x7DF PUSH1 0x8 PUSH2 0x10C5 JUMP JUMPDEST PUSH2 0x7E9 DUP3 DUP3 PUSH2 0x10DB JUMP JUMPDEST POP POP JUMP JUMPDEST PUSH2 0x808 DUP4 DUP4 DUP4 PUSH1 0x40 MLOAD DUP1 PUSH1 0x20 ADD PUSH1 0x40 MSTORE DUP1 PUSH1 0x0 DUP2 MSTORE POP PUSH2 0xA5D JUMP JUMPDEST POP POP POP JUMP JUMPDEST PUSH1 0x0 DUP1 PUSH1 0x2 PUSH1 0x0 DUP5 DUP2 MSTORE PUSH1 0x20 ADD SWAP1 DUP2 MSTORE PUSH1 0x20 ADD PUSH1 0x0 KECCAK256 PUSH1 0x0 SWAP1 SLOAD SWAP1 PUSH2 0x100 EXP SWAP1 DIV PUSH20 0xFFFFFFFFFFFFFFFFFFFFFFFFFFFFFFFFFFFFFFFF AND SWAP1 POP PUSH1 0x0 PUSH20 0xFFFFFFFFFFFFFFFFFFFFFFFFFFFFFFFFFFFFFFFF AND DUP2 PUSH20 0xFFFFFFFFFFFFFFFFFFFFFFFFFFFFFFFFFFFFFFFF AND EQ ISZERO PUSH2 0x8B6 JUMPI PUSH1 0x40 MLOAD PUSH32 0x8C379A000000000000000000000000000000000000000000000000000000000 DUP2 MSTORE PUSH1 0x4 ADD PUSH2 0x8AD SWAP1 PUSH2 0x222A JUMP JUMPDEST PUSH1 0x40 MLOAD DUP1 SWAP2 SUB SWAP1 REVERT JUMPDEST DUP1 SWAP2 POP POP SWAP2 SWAP1 POP JUMP JUMPDEST PUSH1 0x0 DUP1 PUSH20 0xFFFFFFFFFFFFFFFFFFFFFFFFFFFFFFFFFFFFFFFF AND DUP3 PUSH20 0xFFFFFFFFFFFFFFFFFFFFFFFFFFFFFFFFFFFFFFFF AND EQ ISZERO PUSH2 0x930 JUMPI PUSH1 0x40 MLOAD PUSH32 0x8C379A000000000000000000000000000000000000000000000000000000000 DUP2 MSTORE PUSH1 0x4 ADD PUSH2 0x927 SWAP1 PUSH2 0x218A JUMP JUMPDEST PUSH1 0x40 MLOAD DUP1 SWAP2 SUB SWAP1 REVERT JUMPDEST PUSH1 0x3 PUSH1 0x0 DUP4 PUSH20 0xFFFFFFFFFFFFFFFFFFFFFFFFFFFFFFFFFFFFFFFF AND PUSH20 0xFFFFFFFFFFFFFFFFFFFFFFFFFFFFFFFFFFFFFFFF AND DUP2 MSTORE PUSH1 0x20 ADD SWAP1 DUP2 MSTORE PUSH1 0x20 ADD PUSH1 0x0 KECCAK256 SLOAD SWAP1 POP SWAP2 SWAP1 POP JUMP JUMPDEST PUSH2 0x97F PUSH2 0x10F9 JUMP JUMPDEST PUSH2 0x989 PUSH1 0x0 PUSH2 0x1177 JUMP JUMPDEST JUMP JUMPDEST PUSH1 0x0 PUSH1 0x6 PUSH1 0x0 SWAP1 SLOAD SWAP1 PUSH2 0x100 EXP SWAP1 DIV PUSH20 0xFFFFFFFFFFFFFFFFFFFFFFFFFFFFFFFFFFFFFFFF AND SWAP1 POP SWAP1 JUMP JUMPDEST PUSH1 0x60 PUSH1 0x1 DUP1 SLOAD PUSH2 0x9C4 SWAP1 PUSH2 0x24AF JUMP JUMPDEST DUP1 PUSH1 0x1F ADD PUSH1 0x20 DUP1 SWAP2 DIV MUL PUSH1 0x20 ADD PUSH1 0x40 MLOAD SWAP1 DUP2 ADD PUSH1 0x40 MSTORE DUP1 SWAP3 SWAP2 SWAP1 DUP2 DUP2 MSTORE PUSH1 0x20 ADD DUP3 DUP1 SLOAD PUSH2 0x9F0 SWAP1 PUSH2 0x24AF JUMP JUMPDEST DUP1 ISZERO PUSH2 0xA3D JUMPI DUP1 PUSH1 0x1F LT PUSH2 0xA12 JUMPI PUSH2 0x100 DUP1 DUP4 SLOAD DIV MUL DUP4 MSTORE SWAP2 PUSH1 0x20 ADD SWAP2 PUSH2 0xA3D JUMP JUMPDEST DUP3 ADD SWAP2 SWAP1 PUSH1 0x0 MSTORE PUSH1 0x20 PUSH1 0x0 KECCAK256 SWAP1 JUMPDEST DUP2 SLOAD DUP2 MSTORE SWAP1 PUSH1 0x1 ADD SWAP1 PUSH1 0x20 ADD DUP1 DUP4 GT PUSH2 0xA20 JUMPI DUP3 SWAP1 SUB PUSH1 0x1F AND DUP3 ADD SWAP2 JUMPDEST POP POP POP POP POP SWAP1 POP SWAP1 JUMP JUMPDEST PUSH2 0xA59 PUSH2 0xA52 PUSH2 0xCFA JUMP JUMPDEST DUP4 DUP4 PUSH2 0x123D JUMP JUMPDEST POP POP JUMP JUMPDEST PUSH2 0xA6E PUSH2 0xA68 PUSH2 0xCFA JUMP JUMPDEST DUP4 PUSH2 0xDBB JUMP JUMPDEST PUSH2 0xAAD JUMPI PUSH1 0x40 MLOAD PUSH32 0x8C379A000000000000000000000000000000000000000000000000000000000 DUP2 MSTORE PUSH1 0x4 ADD PUSH2 0xAA4 SWAP1 PUSH2 0x226A JUMP JUMPDEST PUSH1 0x40 MLOAD DUP1 SWAP2 SUB SWAP1 REVERT JUMPDEST PUSH2 0xAB9 DUP5 DUP5 DUP5 DUP5 PUSH2 0x13AA JUMP JUMPDEST POP POP POP POP JUMP JUMPDEST PUSH1 0x7 SLOAD DUP2 JUMP JUMPDEST PUSH1 0x60 PUSH2 0xAD0 DUP3 PUSH2 0xCAF JUMP JUMPDEST PUSH1 0x0 PUSH2 0xADA PUSH2 0x1406 JUMP JUMPDEST SWAP1 POP PUSH1 0x0 DUP2 MLOAD GT PUSH2 0xAFA JUMPI PUSH1 0x40 MLOAD DUP1 PUSH1 0x20 ADD PUSH1 0x40 MSTORE DUP1 PUSH1 0x0 DUP2 MSTORE POP PUSH2 0xB25 JUMP JUMPDEST DUP1 PUSH2 0xB04 DUP5 PUSH2 0x1443 JUMP JUMPDEST PUSH1 0x40 MLOAD PUSH1 0x20 ADD PUSH2 0xB15 SWAP3 SWAP2 SWAP1 PUSH2 0x2002 JUMP JUMPDEST PUSH1 0x40 MLOAD PUSH1 0x20 DUP2 DUP4 SUB SUB DUP2 MSTORE SWAP1 PUSH1 0x40 MSTORE JUMPDEST SWAP2 POP POP SWAP2 SWAP1 POP JUMP JUMPDEST PUSH1 0x0 PUSH1 0x5 PUSH1 0x0 DUP5 PUSH20 0xFFFFFFFFFFFFFFFFFFFFFFFFFFFFFFFFFFFFFFFF AND PUSH20 0xFFFFFFFFFFFFFFFFFFFFFFFFFFFFFFFFFFFFFFFF AND DUP2 MSTORE PUSH1 0x20 ADD SWAP1 DUP2 MSTORE PUSH1 0x20 ADD PUSH1 0x0 KECCAK256 PUSH1 0x0 DUP4 PUSH20 0xFFFFFFFFFFFFFFFFFFFFFFFFFFFFFFFFFFFFFFFF AND PUSH20 0xFFFFFFFFFFFFFFFFFFFFFFFFFFFFFFFFFFFFFFFF AND DUP2 MSTORE PUSH1 0x20 ADD SWAP1 DUP2 MSTORE PUSH1 0x20 ADD PUSH1 0x0 KECCAK256 PUSH1 0x0 SWAP1 SLOAD SWAP1 PUSH2 0x100 EXP SWAP1 DIV PUSH1 0xFF AND SWAP1 POP SWAP3 SWAP2 POP POP JUMP JUMPDEST PUSH2 0xBC9 PUSH2 0x10F9 JUMP JUMPDEST PUSH1 0x0 PUSH20 0xFFFFFFFFFFFFFFFFFFFFFFFFFFFFFFFFFFFFFFFF AND DUP2 PUSH20 0xFFFFFFFFFFFFFFFFFFFFFFFFFFFFFFFFFFFFFFFF AND EQ ISZERO PUSH2 0xC39 JUMPI PUSH1 0x40 MLOAD PUSH32 0x8C379A000000000000000000000000000000000000000000000000000000000 DUP2 MSTORE PUSH1 0x4 ADD PUSH2 0xC30 SWAP1 PUSH2 0x20EA JUMP JUMPDEST PUSH1 0x40 MLOAD DUP1 SWAP2 SUB SWAP1 REVERT JUMPDEST PUSH2 0xC42 DUP2 PUSH2 0x1177 JUMP JUMPDEST POP JUMP JUMPDEST PUSH1 0x0 PUSH32 0x1FFC9A700000000000000000000000000000000000000000000000000000000 PUSH28 0xFFFFFFFFFFFFFFFFFFFFFFFFFFFFFFFFFFFFFFFFFFFFFFFFFFFFFFFF NOT AND DUP3 PUSH28 0xFFFFFFFFFFFFFFFFFFFFFFFFFFFFFFFFFFFFFFFFFFFFFFFFFFFFFFFF NOT AND EQ SWAP1 POP SWAP2 SWAP1 POP JUMP JUMPDEST PUSH2 0xCB8 DUP2 PUSH2 0x15F0 JUMP JUMPDEST PUSH2 0xCF7 JUMPI PUSH1 0x40 MLOAD PUSH32 0x8C379A000000000000000000000000000000000000000000000000000000000 DUP2 MSTORE PUSH1 0x4 ADD PUSH2 0xCEE SWAP1 PUSH2 0x222A JUMP JUMPDEST PUSH1 0x40 MLOAD DUP1 SWAP2 SUB SWAP1 REVERT JUMPDEST POP JUMP JUMPDEST PUSH1 0x0 CALLER SWAP1 POP SWAP1 JUMP JUMPDEST DUP2 PUSH1 0x4 PUSH1 0x0 DUP4 DUP2 MSTORE PUSH1 0x20 ADD SWAP1 DUP2 MSTORE PUSH1 0x20 ADD PUSH1 0x0 KECCAK256 PUSH1 0x0 PUSH2 0x100 EXP DUP2 SLOAD DUP2 PUSH20 0xFFFFFFFFFFFFFFFFFFFFFFFFFFFFFFFFFFFFFFFF MUL NOT AND SWAP1 DUP4 PUSH20 0xFFFFFFFFFFFFFFFFFFFFFFFFFFFFFFFFFFFFFFFF AND MUL OR SWAP1 SSTORE POP DUP1 DUP3 PUSH20 0xFFFFFFFFFFFFFFFFFFFFFFFFFFFFFFFFFFFFFFFF AND PUSH2 0xD75 DUP4 PUSH2 0x80D JUMP JUMPDEST PUSH20 0xFFFFFFFFFFFFFFFFFFFFFFFFFFFFFFFFFFFFFFFF AND PUSH32 0x8C5BE1E5EBEC7D5BD14F71427D1E84F3DD0314C0F7B2291E5B200AC8C7C3B925 PUSH1 0x40 MLOAD PUSH1 0x40 MLOAD DUP1 SWAP2 SUB SWAP1 LOG4 POP POP JUMP JUMPDEST PUSH1 0x0 DUP1 PUSH2 0xDC7 DUP4 PUSH2 0x80D JUMP JUMPDEST SWAP1 POP DUP1 PUSH20 0xFFFFFFFFFFFFFFFFFFFFFFFFFFFFFFFFFFFFFFFF AND DUP5 PUSH20 0xFFFFFFFFFFFFFFFFFFFFFFFFFFFFFFFFFFFFFFFF AND EQ DUP1 PUSH2 0xE09 JUMPI POP PUSH2 0xE08 DUP2 DUP6 PUSH2 0xB2D JUMP JUMPDEST JUMPDEST DUP1 PUSH2 0xE47 JUMPI POP DUP4 PUSH20 0xFFFFFFFFFFFFFFFFFFFFFFFFFFFFFFFFFFFFFFFF AND PUSH2 0xE2F DUP5 PUSH2 0x5C5 JUMP JUMPDEST PUSH20 0xFFFFFFFFFFFFFFFFFFFFFFFFFFFFFFFFFFFFFFFF AND EQ JUMPDEST SWAP2 POP POP SWAP3 SWAP2 POP POP JUMP JUMPDEST DUP3 PUSH20 0xFFFFFFFFFFFFFFFFFFFFFFFFFFFFFFFFFFFFFFFF AND PUSH2 0xE70 DUP3 PUSH2 0x80D JUMP JUMPDEST PUSH20 0xFFFFFFFFFFFFFFFFFFFFFFFFFFFFFFFFFFFFFFFF AND EQ PUSH2 0xEC6 JUMPI PUSH1 0x40 MLOAD PUSH32 0x8C379A000000000000000000000000000000000000000000000000000000000 DUP2 MSTORE PUSH1 0x4 ADD PUSH2 0xEBD SWAP1 PUSH2 0x210A JUMP JUMPDEST PUSH1 0x40 MLOAD DUP1 SWAP2 SUB SWAP1 REVERT JUMPDEST PUSH1 0x0 PUSH20 0xFFFFFFFFFFFFFFFFFFFFFFFFFFFFFFFFFFFFFFFF AND DUP3 PUSH20 0xFFFFFFFFFFFFFFFFFFFFFFFFFFFFFFFFFFFFFFFF AND EQ ISZERO PUSH2 0xF36 JUMPI PUSH1 0x40 MLOAD PUSH32 0x8C379A000000000000000000000000000000000000000000000000000000000 DUP2 MSTORE PUSH1 0x4 ADD PUSH2 0xF2D SWAP1 PUSH2 0x214A JUMP JUMPDEST PUSH1 0x40 MLOAD DUP1 SWAP2 SUB SWAP1 REVERT JUMPDEST PUSH2 0xF41 DUP4 DUP4 DUP4 PUSH2 0x165C JUMP JUMPDEST PUSH2 0xF4C PUSH1 0x0 DUP3 PUSH2 0xD02 JUMP JUMPDEST PUSH1 0x1 PUSH1 0x3 PUSH1 0x0 DUP6 PUSH20 0xFFFFFFFFFFFFFFFFFFFFFFFFFFFFFFFFFFFFFFFF AND PUSH20 0xFFFFFFFFFFFFFFFFFFFFFFFFFFFFFFFFFFFFFFFF AND DUP2 MSTORE PUSH1 0x20 ADD SWAP1 DUP2 MSTORE PUSH1 0x20 ADD PUSH1 0x0 KECCAK256 PUSH1 0x0 DUP3 DUP3 SLOAD PUSH2 0xF9C SWAP2 SWAP1 PUSH2 0x23C5 JUMP JUMPDEST SWAP3 POP POP DUP2 SWAP1 SSTORE POP PUSH1 0x1 PUSH1 0x3 PUSH1 0x0 DUP5 PUSH20 0xFFFFFFFFFFFFFFFFFFFFFFFFFFFFFFFFFFFFFFFF AND PUSH20 0xFFFFFFFFFFFFFFFFFFFFFFFFFFFFFFFFFFFFFFFF AND DUP2 MSTORE PUSH1 0x20 ADD SWAP1 DUP2 MSTORE PUSH1 0x20 ADD PUSH1 0x0 KECCAK256 PUSH1 0x0 DUP3 DUP3 SLOAD PUSH2 0xFF3 SWAP2 SWAP1 PUSH2 0x233E JUMP JUMPDEST SWAP3 POP POP DUP2 SWAP1 SSTORE POP DUP2 PUSH1 0x2 PUSH1 0x0 DUP4 DUP2 MSTORE PUSH1 0x20 ADD SWAP1 DUP2 MSTORE PUSH1 0x20 ADD PUSH1 0x0 KECCAK256 PUSH1 0x0 PUSH2 0x100 EXP DUP2 SLOAD DUP2 PUSH20 0xFFFFFFFFFFFFFFFFFFFFFFFFFFFFFFFFFFFFFFFF MUL NOT AND SWAP1 DUP4 PUSH20 0xFFFFFFFFFFFFFFFFFFFFFFFFFFFFFFFFFFFFFFFF AND MUL OR SWAP1 SSTORE POP DUP1 DUP3 PUSH20 0xFFFFFFFFFFFFFFFFFFFFFFFFFFFFFFFFFFFFFFFF AND DUP5 PUSH20 0xFFFFFFFFFFFFFFFFFFFFFFFFFFFFFFFFFFFFFFFF AND PUSH32 0xDDF252AD1BE2C89B69C2B068FC378DAA952BA7F163C4A11628F55A4DF523B3EF PUSH1 0x40 MLOAD PUSH1 0x40 MLOAD DUP1 SWAP2 SUB SWAP1 LOG4 PUSH2 0x10B2 DUP4 DUP4 DUP4 PUSH2 0x1661 JUMP JUMPDEST POP POP POP JUMP JUMPDEST PUSH1 0x0 DUP2 PUSH1 0x0 ADD SLOAD SWAP1 POP SWAP2 SWAP1 POP JUMP JUMPDEST PUSH1 0x1 DUP2 PUSH1 0x0 ADD PUSH1 0x0 DUP3 DUP3 SLOAD ADD SWAP3 POP POP DUP2 SWAP1 SSTORE POP POP JUMP JUMPDEST PUSH2 0x10F5 DUP3 DUP3 PUSH1 0x40 MLOAD DUP1 PUSH1 0x20 ADD PUSH1 0x40 MSTORE DUP1 PUSH1 0x0 DUP2 MSTORE POP PUSH2 0x1666 JUMP JUMPDEST POP POP JUMP JUMPDEST PUSH2 0x1101 PUSH2 0xCFA JUMP JUMPDEST PUSH20 0xFFFFFFFFFFFFFFFFFFFFFFFFFFFFFFFFFFFFFFFF AND PUSH2 0x111F PUSH2 0x98B JUMP JUMPDEST PUSH20 0xFFFFFFFFFFFFFFFFFFFFFFFFFFFFFFFFFFFFFFFF AND EQ PUSH2 0x1175 JUMPI PUSH1 0x40 MLOAD PUSH32 0x8C379A000000000000000000000000000000000000000000000000000000000 DUP2 MSTORE PUSH1 0x4 ADD PUSH2 0x116C SWAP1 PUSH2 0x21EA JUMP JUMPDEST PUSH1 0x40 MLOAD DUP1 SWAP2 SUB SWAP1 REVERT JUMPDEST JUMP JUMPDEST PUSH1 0x0 PUSH1 0x6 PUSH1 0x0 SWAP1 SLOAD SWAP1 PUSH2 0x100 EXP SWAP1 DIV PUSH20 0xFFFFFFFFFFFFFFFFFFFFFFFFFFFFFFFFFFFFFFFF AND SWAP1 POP DUP2 PUSH1 0x6 PUSH1 0x0 PUSH2 0x100 EXP DUP2 SLOAD DUP2 PUSH20 0xFFFFFFFFFFFFFFFFFFFFFFFFFFFFFFFFFFFFFFFF MUL NOT AND SWAP1 DUP4 PUSH20 0xFFFFFFFFFFFFFFFFFFFFFFFFFFFFFFFFFFFFFFFF AND MUL OR SWAP1 SSTORE POP DUP2 PUSH20 0xFFFFFFFFFFFFFFFFFFFFFFFFFFFFFFFFFFFFFFFF AND DUP2 PUSH20 0xFFFFFFFFFFFFFFFFFFFFFFFFFFFFFFFFFFFFFFFF AND PUSH32 0x8BE0079C531659141344CD1FD0A4F28419497F9722A3DAAFE3B4186F6B6457E0 PUSH1 0x40 MLOAD PUSH1 0x40 MLOAD DUP1 SWAP2 SUB SWAP1 LOG3 POP POP JUMP JUMPDEST DUP2 PUSH20 0xFFFFFFFFFFFFFFFFFFFFFFFFFFFFFFFFFFFFFFFF AND DUP4 PUSH20 0xFFFFFFFFFFFFFFFFFFFFFFFFFFFFFFFFFFFFFFFF AND EQ ISZERO PUSH2 0x12AC JUMPI PUSH1 0x40 MLOAD PUSH32 0x8C379A000000000000000000000000000000000000000000000000000000000 DUP2 MSTORE PUSH1 0x4 ADD PUSH2 0x12A3 SWAP1 PUSH2 0x216A JUMP JUMPDEST PUSH1 0x40 MLOAD DUP1 SWAP2 SUB SWAP1 REVERT JUMPDEST DUP1 PUSH1 0x5 PUSH1 0x0 DUP6 PUSH20 0xFFFFFFFFFFFFFFFFFFFFFFFFFFFFFFFFFFFFFFFF AND PUSH20 0xFFFFFFFFFFFFFFFFFFFFFFFFFFFFFFFFFFFFFFFF AND DUP2 MSTORE PUSH1 0x20 ADD SWAP1 DUP2 MSTORE PUSH1 0x20 ADD PUSH1 0x0 KECCAK256 PUSH1 0x0 DUP5 PUSH20 0xFFFFFFFFFFFFFFFFFFFFFFFFFFFFFFFFFFFFFFFF AND PUSH20 0xFFFFFFFFFFFFFFFFFFFFFFFFFFFFFFFFFFFFFFFF AND DUP2 MSTORE PUSH1 0x20 ADD SWAP1 DUP2 MSTORE PUSH1 0x20 ADD PUSH1 0x0 KECCAK256 PUSH1 0x0 PUSH2 0x100 EXP DUP2 SLOAD DUP2 PUSH1 0xFF MUL NOT AND SWAP1 DUP4 ISZERO ISZERO MUL OR SWAP1 SSTORE POP DUP2 PUSH20 0xFFFFFFFFFFFFFFFFFFFFFFFFFFFFFFFFFFFFFFFF AND DUP4 PUSH20 0xFFFFFFFFFFFFFFFFFFFFFFFFFFFFFFFFFFFFFFFF AND PUSH32 0x17307EAB39AB6107E8899845AD3D59BD9653F200F220920489CA2B5937696C31 DUP4 PUSH1 0x40 MLOAD PUSH2 0x139D SWAP2 SWAP1 PUSH2 0x208D JUMP JUMPDEST PUSH1 0x40 MLOAD DUP1 SWAP2 SUB SWAP1 LOG3 POP POP POP JUMP JUMPDEST PUSH2 0x13B5 DUP5 DUP5 DUP5 PUSH2 0xE50 JUMP JUMPDEST PUSH2 0x13C1 DUP5 DUP5 DUP5 DUP5 PUSH2 0x16C1 JUMP JUMPDEST PUSH2 0x1400 JUMPI PUSH1 0x40 MLOAD PUSH32 0x8C379A000000000000000000000000000000000000000000000000000000000 DUP2 MSTORE PUSH1 0x4 ADD PUSH2 0x13F7 SWAP1 PUSH2 0x20CA JUMP JUMPDEST PUSH1 0x40 MLOAD DUP1 SWAP2 SUB SWAP1 REVERT JUMPDEST POP POP POP POP JUMP JUMPDEST PUSH1 0x60 PUSH1 0x40 MLOAD DUP1 PUSH1 0x40 ADD PUSH1 0x40 MSTORE DUP1 PUSH1 0x16 DUP2 MSTORE PUSH1 0x20 ADD PUSH32 0x697066733A2F2F4469706C6F6D61426173655552492F00000000000000000000 DUP2 MSTORE POP SWAP1 POP SWAP1 JUMP JUMPDEST PUSH1 0x60 PUSH1 0x0 DUP3 EQ ISZERO PUSH2 0x148B JUMPI PUSH1 0x40 MLOAD DUP1 PUSH1 0x40 ADD PUSH1 0x40 MSTORE DUP1 PUSH1 0x1 DUP2 MSTORE PUSH1 0x20 ADD PUSH32 0x3000000000000000000000000000000000000000000000000000000000000000 DUP2 MSTORE POP SWAP1 POP PUSH2 0x15EB JUMP JUMPDEST PUSH1 0x0 DUP3 SWAP1 POP PUSH1 0x0 JUMPDEST PUSH1 0x0 DUP3 EQ PUSH2 0x14BD JUMPI DUP1 DUP1 PUSH2 0x14A6 SWAP1 PUSH2 0x2512 JUMP JUMPDEST SWAP2 POP POP PUSH1 0xA DUP3 PUSH2 0x14B6 SWAP2 SWAP1 PUSH2 0x2394 JUMP JUMPDEST SWAP2 POP PUSH2 0x1493 JUMP JUMPDEST PUSH1 0x0 DUP2 PUSH8 0xFFFFFFFFFFFFFFFF DUP2 GT ISZERO PUSH2 0x14FF JUMPI PUSH32 0x4E487B7100000000000000000000000000000000000000000000000000000000 PUSH1 0x0 MSTORE PUSH1 0x41 PUSH1 0x4 MSTORE PUSH1 0x24 PUSH1 0x0 REVERT JUMPDEST PUSH1 0x40 MLOAD SWAP1 DUP1 DUP3 MSTORE DUP1 PUSH1 0x1F ADD PUSH1 0x1F NOT AND PUSH1 0x20 ADD DUP3 ADD PUSH1 0x40 MSTORE DUP1 ISZERO PUSH2 0x1531 JUMPI DUP2 PUSH1 0x20 ADD PUSH1 0x1 DUP3 MUL DUP1 CALLDATASIZE DUP4 CALLDATACOPY DUP1 DUP3 ADD SWAP2 POP POP SWAP1 POP JUMPDEST POP SWAP1 POP JUMPDEST PUSH1 0x0 DUP6 EQ PUSH2 0x15E4 JUMPI PUSH1 0x1 DUP3 PUSH2 0x154A SWAP2 SWAP1 PUSH2 0x23C5 JUMP JUMPDEST SWAP2 POP PUSH1 0xA DUP6 PUSH2 0x1559 SWAP2 SWAP1 PUSH2 0x255B JUMP JUMPDEST PUSH1 0x30 PUSH2 0x1565 SWAP2 SWAP1 PUSH2 0x233E JUMP JUMPDEST PUSH1 0xF8 SHL DUP2 DUP4 DUP2 MLOAD DUP2 LT PUSH2 0x15A1 JUMPI PUSH32 0x4E487B7100000000000000000000000000000000000000000000000000000000 PUSH1 0x0 MSTORE PUSH1 0x32 PUSH1 0x4 MSTORE PUSH1 0x24 PUSH1 0x0 REVERT JUMPDEST PUSH1 0x20 ADD ADD SWAP1 PUSH31 0xFFFFFFFFFFFFFFFFFFFFFFFFFFFFFFFFFFFFFFFFFFFFFFFFFFFFFFFFFFFFFF NOT AND SWAP1 DUP2 PUSH1 0x0 BYTE SWAP1 MSTORE8 POP PUSH1 0xA DUP6 PUSH2 0x15DD SWAP2 SWAP1 PUSH2 0x2394 JUMP JUMPDEST SWAP5 POP PUSH2 0x1535 JUMP JUMPDEST DUP1 SWAP4 POP POP POP POP JUMPDEST SWAP2 SWAP1 POP JUMP JUMPDEST PUSH1 0x0 DUP1 PUSH20 0xFFFFFFFFFFFFFFFFFFFFFFFFFFFFFFFFFFFFFFFF AND PUSH1 0x2 PUSH1 0x0 DUP5 DUP2 MSTORE PUSH1 0x20 ADD SWAP1 DUP2 MSTORE PUSH1 0x20 ADD PUSH1 0x0 KECCAK256 PUSH1 0x0 SWAP1 SLOAD SWAP1 PUSH2 0x100 EXP SWAP1 DIV PUSH20 0xFFFFFFFFFFFFFFFFFFFFFFFFFFFFFFFFFFFFFFFF AND PUSH20 0xFFFFFFFFFFFFFFFFFFFFFFFFFFFFFFFFFFFFFFFF AND EQ ISZERO SWAP1 POP SWAP2 SWAP1 POP JUMP JUMPDEST POP POP POP JUMP JUMPDEST POP POP POP JUMP JUMPDEST PUSH2 0x1670 DUP4 DUP4 PUSH2 0x1858 JUMP JUMPDEST PUSH2 0x167D PUSH1 0x0 DUP5 DUP5 DUP5 PUSH2 0x16C1 JUMP JUMPDEST PUSH2 0x16BC JUMPI PUSH1 0x40 MLOAD PUSH32 0x8C379A000000000000000000000000000000000000000000000000000000000 DUP2 MSTORE PUSH1 0x4 ADD PUSH2 0x16B3 SWAP1 PUSH2 0x20CA JUMP JUMPDEST PUSH1 0x40 MLOAD DUP1 SWAP2 SUB SWAP1 REVERT JUMPDEST POP POP POP JUMP JUMPDEST PUSH1 0x0 PUSH2 0x16E2 DUP5 PUSH20 0xFFFFFFFFFFFFFFFFFFFFFFFFFFFFFFFFFFFFFFFF AND PUSH2 0x1A32 JUMP JUMPDEST ISZERO PUSH2 0x184B JUMPI DUP4 PUSH20 0xFFFFFFFFFFFFFFFFFFFFFFFFFFFFFFFFFFFFFFFF AND PUSH4 0x150B7A02 PUSH2 0x170B PUSH2 0xCFA JUMP JUMPDEST DUP8 DUP7 DUP7 PUSH1 0x40 MLOAD DUP6 PUSH4 0xFFFFFFFF AND PUSH1 0xE0 SHL DUP2 MSTORE PUSH1 0x4 ADD PUSH2 0x172D SWAP5 SWAP4 SWAP3 SWAP2 SWAP1 PUSH2 0x2041 JUMP JUMPDEST PUSH1 0x20 PUSH1 0x40 MLOAD DUP1 DUP4 SUB DUP2 PUSH1 0x0 DUP8 DUP1 EXTCODESIZE ISZERO DUP1 ISZERO PUSH2 0x1747 JUMPI PUSH1 0x0 DUP1 REVERT JUMPDEST POP GAS CALL SWAP3 POP POP POP DUP1 ISZERO PUSH2 0x1778 JUMPI POP PUSH1 0x40 MLOAD RETURNDATASIZE PUSH1 0x1F NOT PUSH1 0x1F DUP3 ADD AND DUP3 ADD DUP1 PUSH1 0x40 MSTORE POP DUP2 ADD SWAP1 PUSH2 0x1775 SWAP2 SWAP1 PUSH2 0x1CF6 JUMP JUMPDEST PUSH1 0x1 JUMPDEST PUSH2 0x17FB JUMPI RETURNDATASIZE DUP1 PUSH1 0x0 DUP2 EQ PUSH2 0x17A8 JUMPI PUSH1 0x40 MLOAD SWAP2 POP PUSH1 0x1F NOT PUSH1 0x3F RETURNDATASIZE ADD AND DUP3 ADD PUSH1 0x40 MSTORE RETURNDATASIZE DUP3 MSTORE RETURNDATASIZE PUSH1 0x0 PUSH1 0x20 DUP5 ADD RETURNDATACOPY PUSH2 0x17AD JUMP JUMPDEST PUSH1 0x60 SWAP2 POP JUMPDEST POP PUSH1 0x0 DUP2 MLOAD EQ ISZERO PUSH2 0x17F3 JUMPI PUSH1 0x40 MLOAD PUSH32 0x8C379A000000000000000000000000000000000000000000000000000000000 DUP2 MSTORE PUSH1 0x4 ADD PUSH2 0x17EA SWAP1 PUSH2 0x20CA JUMP JUMPDEST PUSH1 0x40 MLOAD DUP1 SWAP2 SUB SWAP1 REVERT JUMPDEST DUP1 MLOAD DUP2 PUSH1 0x20 ADD REVERT JUMPDEST PUSH4 0x150B7A02 PUSH1 0xE0 SHL PUSH28 0xFFFFFFFFFFFFFFFFFFFFFFFFFFFFFFFFFFFFFFFFFFFFFFFFFFFFFFFF NOT AND DUP2 PUSH28 0xFFFFFFFFFFFFFFFFFFFFFFFFFFFFFFFFFFFFFFFFFFFFFFFFFFFFFFFF NOT AND EQ SWAP2 POP POP PUSH2 0x1850 JUMP JUMPDEST PUSH1 0x1 SWAP1 POP JUMPDEST SWAP5 SWAP4 POP POP POP POP JUMP JUMPDEST PUSH1 0x0 PUSH20 0xFFFFFFFFFFFFFFFFFFFFFFFFFFFFFFFFFFFFFFFF AND DUP3 PUSH20 0xFFFFFFFFFFFFFFFFFFFFFFFFFFFFFFFFFFFFFFFF AND EQ ISZERO PUSH2 0x18C8 JUMPI PUSH1 0x40 MLOAD PUSH32 0x8C379A000000000000000000000000000000000000000000000000000000000 DUP2 MSTORE PUSH1 0x4 ADD PUSH2 0x18BF SWAP1 PUSH2 0x21CA JUMP JUMPDEST PUSH1 0x40 MLOAD DUP1 SWAP2 SUB SWAP1 REVERT JUMPDEST PUSH2 0x18D1 DUP2 PUSH2 0x15F0 JUMP JUMPDEST ISZERO PUSH2 0x1911 JUMPI PUSH1 0x40 MLOAD PUSH32 0x8C379A000000000000000000000000000000000000000000000000000000000 DUP2 MSTORE PUSH1 0x4 ADD PUSH2 0x1908 SWAP1 PUSH2 0x212A JUMP JUMPDEST PUSH1 0x40 MLOAD DUP1 SWAP2 SUB SWAP1 REVERT JUMPDEST PUSH2 0x191D PUSH1 0x0 DUP4 DUP4 PUSH2 0x165C JUMP JUMPDEST PUSH1 0x1 PUSH1 0x3 PUSH1 0x0 DUP5 PUSH20 0xFFFFFFFFFFFFFFFFFFFFFFFFFFFFFFFFFFFFFFFF AND PUSH20 0xFFFFFFFFFFFFFFFFFFFFFFFFFFFFFFFFFFFFFFFF AND DUP2 MSTORE PUSH1 0x20 ADD SWAP1 DUP2 MSTORE PUSH1 0x20 ADD PUSH1 0x0 KECCAK256 PUSH1 0x0 DUP3 DUP3 SLOAD PUSH2 0x196D SWAP2 SWAP1 PUSH2 0x233E JUMP JUMPDEST SWAP3 POP POP DUP2 SWAP1 SSTORE POP DUP2 PUSH1 0x2 PUSH1 0x0 DUP4 DUP2 MSTORE PUSH1 0x20 ADD SWAP1 DUP2 MSTORE PUSH1 0x20 ADD PUSH1 0x0 KECCAK256 PUSH1 0x0 PUSH2 0x100 EXP DUP2 SLOAD DUP2 PUSH20 0xFFFFFFFFFFFFFFFFFFFFFFFFFFFFFFFFFFFFFFFF MUL NOT AND SWAP1 DUP4 PUSH20 0xFFFFFFFFFFFFFFFFFFFFFFFFFFFFFFFFFFFFFFFF AND MUL OR SWAP1 SSTORE POP DUP1 DUP3 PUSH20 0xFFFFFFFFFFFFFFFFFFFFFFFFFFFFFFFFFFFFFFFF AND PUSH1 0x0 PUSH20 0xFFFFFFFFFFFFFFFFFFFFFFFFFFFFFFFFFFFFFFFF AND PUSH32 0xDDF252AD1BE2C89B69C2B068FC378DAA952BA7F163C4A11628F55A4DF523B3EF PUSH1 0x40 MLOAD PUSH1 0x40 MLOAD DUP1 SWAP2 SUB SWAP1 LOG4 PUSH2 0x1A2E PUSH1 0x0 DUP4 DUP4 PUSH2 0x1661 JUMP JUMPDEST POP POP JUMP JUMPDEST PUSH1 0x0 DUP1 DUP3 PUSH20 0xFFFFFFFFFFFFFFFFFFFFFFFFFFFFFFFFFFFFFFFF AND EXTCODESIZE GT SWAP1 POP SWAP2 SWAP1 POP JUMP JUMPDEST PUSH1 0x0 PUSH2 0x1A68 PUSH2 0x1A63 DUP5 PUSH2 0x22CA JUMP JUMPDEST PUSH2 0x22A5 JUMP JUMPDEST SWAP1 POP DUP3 DUP2 MSTORE PUSH1 0x20 DUP2 ADD DUP5 DUP5 DUP5 ADD GT ISZERO PUSH2 0x1A80 JUMPI PUSH1 0x0 DUP1 REVERT JUMPDEST PUSH2 0x1A8B DUP5 DUP3 DUP6 PUSH2 0x246D JUMP JUMPDEST POP SWAP4 SWAP3 POP POP POP JUMP JUMPDEST PUSH1 0x0 DUP2 CALLDATALOAD SWAP1 POP PUSH2 0x1AA2 DUP2 PUSH2 0x29C7 JUMP JUMPDEST SWAP3 SWAP2 POP POP JUMP JUMPDEST PUSH1 0x0 DUP2 CALLDATALOAD SWAP1 POP PUSH2 0x1AB7 DUP2 PUSH2 0x29DE JUMP JUMPDEST SWAP3 SWAP2 POP POP JUMP JUMPDEST PUSH1 0x0 DUP2 CALLDATALOAD SWAP1 POP PUSH2 0x1ACC DUP2 PUSH2 0x29F5 JUMP JUMPDEST SWAP3 SWAP2 POP POP JUMP JUMPDEST PUSH1 0x0 DUP2 MLOAD SWAP1 POP PUSH2 0x1AE1 DUP2 PUSH2 0x29F5 JUMP JUMPDEST SWAP3 SWAP2 POP POP JUMP JUMPDEST PUSH1 0x0 DUP3 PUSH1 0x1F DUP4 ADD SLT PUSH2 0x1AF8 JUMPI PUSH1 0x0 DUP1 REVERT JUMPDEST DUP2 CALLDATALOAD PUSH2 0x1B08 DUP5 DUP3 PUSH1 0x20 DUP7 ADD PUSH2 0x1A55 JUMP JUMPDEST SWAP2 POP POP SWAP3 SWAP2 POP POP JUMP JUMPDEST PUSH1 0x0 DUP2 CALLDATALOAD SWAP1 POP PUSH2 0x1B20 DUP2 PUSH2 0x2A0C JUMP JUMPDEST SWAP3 SWAP2 POP POP JUMP JUMPDEST PUSH1 0x0 PUSH1 0x20 DUP3 DUP5 SUB SLT ISZERO PUSH2 0x1B38 JUMPI PUSH1 0x0 DUP1 REVERT JUMPDEST PUSH1 0x0 PUSH2 0x1B46 DUP5 DUP3 DUP6 ADD PUSH2 0x1A93 JUMP JUMPDEST SWAP2 POP POP SWAP3 SWAP2 POP POP JUMP JUMPDEST PUSH1 0x0 DUP1 PUSH1 0x40 DUP4 DUP6 SUB SLT ISZERO PUSH2 0x1B62 JUMPI PUSH1 0x0 DUP1 REVERT JUMPDEST PUSH1 0x0 PUSH2 0x1B70 DUP6 DUP3 DUP7 ADD PUSH2 0x1A93 JUMP JUMPDEST SWAP3 POP POP PUSH1 0x20 PUSH2 0x1B81 DUP6 DUP3 DUP7 ADD PUSH2 0x1A93 JUMP JUMPDEST SWAP2 POP POP SWAP3 POP SWAP3 SWAP1 POP JUMP JUMPDEST PUSH1 0x0 DUP1 PUSH1 0x0 PUSH1 0x60 DUP5 DUP7 SUB SLT ISZERO PUSH2 0x1BA0 JUMPI PUSH1 0x0 DUP1 REVERT JUMPDEST PUSH1 0x0 PUSH2 0x1BAE DUP7 DUP3 DUP8 ADD PUSH2 0x1A93 JUMP JUMPDEST SWAP4 POP POP PUSH1 0x20 PUSH2 0x1BBF DUP7 DUP3 DUP8 ADD PUSH2 0x1A93 JUMP JUMPDEST SWAP3 POP POP PUSH1 0x40 PUSH2 0x1BD0 DUP7 DUP3 DUP8 ADD PUSH2 0x1B11 JUMP JUMPDEST SWAP2 POP POP SWAP3 POP SWAP3 POP SWAP3 JUMP JUMPDEST PUSH1 0x0 DUP1 PUSH1 0x0 DUP1 PUSH1 0x80 DUP6 DUP8 SUB SLT ISZERO PUSH2 0x1BF0 JUMPI PUSH1 0x0 DUP1 REVERT JUMPDEST PUSH1 0x0 PUSH2 0x1BFE DUP8 DUP3 DUP9 ADD PUSH2 0x1A93 JUMP JUMPDEST SWAP5 POP POP PUSH1 0x20 PUSH2 0x1C0F DUP8 DUP3 DUP9 ADD PUSH2 0x1A93 JUMP JUMPDEST SWAP4 POP POP PUSH1 0x40 PUSH2 0x1C20 DUP8 DUP3 DUP9 ADD PUSH2 0x1B11 JUMP JUMPDEST SWAP3 POP POP PUSH1 0x60 DUP6 ADD CALLDATALOAD PUSH8 0xFFFFFFFFFFFFFFFF DUP2 GT ISZERO PUSH2 0x1C3D JUMPI PUSH1 0x0 DUP1 REVERT JUMPDEST PUSH2 0x1C49 DUP8 DUP3 DUP9 ADD PUSH2 0x1AE7 JUMP JUMPDEST SWAP2 POP POP SWAP3 SWAP6 SWAP2 SWAP5 POP SWAP3 POP JUMP JUMPDEST PUSH1 0x0 DUP1 PUSH1 0x40 DUP4 DUP6 SUB SLT ISZERO PUSH2 0x1C68 JUMPI PUSH1 0x0 DUP1 REVERT JUMPDEST PUSH1 0x0 PUSH2 0x1C76 DUP6 DUP3 DUP7 ADD PUSH2 0x1A93 JUMP JUMPDEST SWAP3 POP POP PUSH1 0x20 PUSH2 0x1C87 DUP6 DUP3 DUP7 ADD PUSH2 0x1AA8 JUMP JUMPDEST SWAP2 POP POP SWAP3 POP SWAP3 SWAP1 POP JUMP JUMPDEST PUSH1 0x0 DUP1 PUSH1 0x40 DUP4 DUP6 SUB SLT ISZERO PUSH2 0x1CA4 JUMPI PUSH1 0x0 DUP1 REVERT JUMPDEST PUSH1 0x0 PUSH2 0x1CB2 DUP6 DUP3 DUP7 ADD PUSH2 0x1A93 JUMP JUMPDEST SWAP3 POP POP PUSH1 0x20 PUSH2 0x1CC3 DUP6 DUP3 DUP7 ADD PUSH2 0x1B11 JUMP JUMPDEST SWAP2 POP POP SWAP3 POP SWAP3 SWAP1 POP JUMP JUMPDEST PUSH1 0x0 PUSH1 0x20 DUP3 DUP5 SUB SLT ISZERO PUSH2 0x1CDF JUMPI PUSH1 0x0 DUP1 REVERT JUMPDEST PUSH1 0x0 PUSH2 0x1CED DUP5 DUP3 DUP6 ADD PUSH2 0x1ABD JUMP JUMPDEST SWAP2 POP POP SWAP3 SWAP2 POP POP JUMP JUMPDEST PUSH1 0x0 PUSH1 0x20 DUP3 DUP5 SUB SLT ISZERO PUSH2 0x1D08 JUMPI PUSH1 0x0 DUP1 REVERT JUMPDEST PUSH1 0x0 PUSH2 0x1D16 DUP5 DUP3 DUP6 ADD PUSH2 0x1AD2 JUMP JUMPDEST SWAP2 POP POP SWAP3 SWAP2 POP POP JUMP JUMPDEST PUSH1 0x0 PUSH1 0x20 DUP3 DUP5 SUB SLT ISZERO PUSH2 0x1D31 JUMPI PUSH1 0x0 DUP1 REVERT JUMPDEST PUSH1 0x0 PUSH2 0x1D3F DUP5 DUP3 DUP6 ADD PUSH2 0x1B11 JUMP JUMPDEST SWAP2 POP POP SWAP3 SWAP2 POP POP JUMP JUMPDEST PUSH2 0x1D51 DUP2 PUSH2 0x23F9 JUMP JUMPDEST DUP3 MSTORE POP POP JUMP JUMPDEST PUSH2 0x1D60 DUP2 PUSH2 0x240B JUMP JUMPDEST DUP3 MSTORE POP POP JUMP JUMPDEST PUSH1 0x0 PUSH2 0x1D71 DUP3 PUSH2 0x22FB JUMP JUMPDEST PUSH2 0x1D7B DUP2 DUP6 PUSH2 0x2311 JUMP JUMPDEST SWAP4 POP PUSH2 0x1D8B DUP2 DUP6 PUSH1 0x20 DUP7 ADD PUSH2 0x247C JUMP JUMPDEST PUSH2 0x1D94 DUP2 PUSH2 0x2648 JUMP JUMPDEST DUP5 ADD SWAP2 POP POP SWAP3 SWAP2 POP POP JUMP JUMPDEST PUSH1 0x0 PUSH2 0x1DAA DUP3 PUSH2 0x2306 JUMP JUMPDEST PUSH2 0x1DB4 DUP2 DUP6 PUSH2 0x2322 JUMP JUMPDEST SWAP4 POP PUSH2 0x1DC4 DUP2 DUP6 PUSH1 0x20 DUP7 ADD PUSH2 0x247C JUMP JUMPDEST PUSH2 0x1DCD DUP2 PUSH2 0x2648 JUMP JUMPDEST DUP5 ADD SWAP2 POP POP SWAP3 SWAP2 POP POP JUMP JUMPDEST PUSH1 0x0 PUSH2 0x1DE3 DUP3 PUSH2 0x2306 JUMP JUMPDEST PUSH2 0x1DED DUP2 DUP6 PUSH2 0x2333 JUMP JUMPDEST SWAP4 POP PUSH2 0x1DFD DUP2 DUP6 PUSH1 0x20 DUP7 ADD PUSH2 0x247C JUMP JUMPDEST DUP1 DUP5 ADD SWAP2 POP POP SWAP3 SWAP2 POP POP JUMP JUMPDEST PUSH1 0x0 PUSH2 0x1E16 PUSH1 0x32 DUP4 PUSH2 0x2322 JUMP JUMPDEST SWAP2 POP PUSH2 0x1E21 DUP3 PUSH2 0x2659 JUMP JUMPDEST PUSH1 0x40 DUP3 ADD SWAP1 POP SWAP2 SWAP1 POP JUMP JUMPDEST PUSH1 0x0 PUSH2 0x1E39 PUSH1 0x26 DUP4 PUSH2 0x2322 JUMP JUMPDEST SWAP2 POP PUSH2 0x1E44 DUP3 PUSH2 0x26A8 JUMP JUMPDEST PUSH1 0x40 DUP3 ADD SWAP1 POP SWAP2 SWAP1 POP JUMP JUMPDEST PUSH1 0x0 PUSH2 0x1E5C PUSH1 0x25 DUP4 PUSH2 0x2322 JUMP JUMPDEST SWAP2 POP PUSH2 0x1E67 DUP3 PUSH2 0x26F7 JUMP JUMPDEST PUSH1 0x40 DUP3 ADD SWAP1 POP SWAP2 SWAP1 POP JUMP JUMPDEST PUSH1 0x0 PUSH2 0x1E7F PUSH1 0x1C DUP4 PUSH2 0x2322 JUMP JUMPDEST SWAP2 POP PUSH2 0x1E8A DUP3 PUSH2 0x2746 JUMP JUMPDEST PUSH1 0x20 DUP3 ADD SWAP1 POP SWAP2 SWAP1 POP JUMP JUMPDEST PUSH1 0x0 PUSH2 0x1EA2 PUSH1 0x24 DUP4 PUSH2 0x2322 JUMP JUMPDEST SWAP2 POP PUSH2 0x1EAD DUP3 PUSH2 0x276F JUMP JUMPDEST PUSH1 0x40 DUP3 ADD SWAP1 POP SWAP2 SWAP1 POP JUMP JUMPDEST PUSH1 0x0 PUSH2 0x1EC5 PUSH1 0x19 DUP4 PUSH2 0x2322 JUMP JUMPDEST SWAP2 POP PUSH2 0x1ED0 DUP3 PUSH2 0x27BE JUMP JUMPDEST PUSH1 0x20 DUP3 ADD SWAP1 POP SWAP2 SWAP1 POP JUMP JUMPDEST PUSH1 0x0 PUSH2 0x1EE8 PUSH1 0x29 DUP4 PUSH2 0x2322 JUMP JUMPDEST SWAP2 POP PUSH2 0x1EF3 DUP3 PUSH2 0x27E7 JUMP JUMPDEST PUSH1 0x40 DUP3 ADD SWAP1 POP SWAP2 SWAP1 POP JUMP JUMPDEST PUSH1 0x0 PUSH2 0x1F0B PUSH1 0x3E DUP4 PUSH2 0x2322 JUMP JUMPDEST SWAP2 POP PUSH2 0x1F16 DUP3 PUSH2 0x2836 JUMP JUMPDEST PUSH1 0x40 DUP3 ADD SWAP1 POP SWAP2 SWAP1 POP JUMP JUMPDEST PUSH1 0x0 PUSH2 0x1F2E PUSH1 0x20 DUP4 PUSH2 0x2322 JUMP JUMPDEST SWAP2 POP PUSH2 0x1F39 DUP3 PUSH2 0x2885 JUMP JUMPDEST PUSH1 0x20 DUP3 ADD SWAP1 POP SWAP2 SWAP1 POP JUMP JUMPDEST PUSH1 0x0 PUSH2 0x1F51 PUSH1 0x20 DUP4 PUSH2 0x2322 JUMP JUMPDEST SWAP2 POP PUSH2 0x1F5C DUP3 PUSH2 0x28AE JUMP JUMPDEST PUSH1 0x20 DUP3 ADD SWAP1 POP SWAP2 SWAP1 POP JUMP JUMPDEST PUSH1 0x0 PUSH2 0x1F74 PUSH1 0x13 DUP4 PUSH2 0x2322 JUMP JUMPDEST SWAP2 POP PUSH2 0x1F7F DUP3 PUSH2 0x28D7 JUMP JUMPDEST PUSH1 0x20 DUP3 ADD SWAP1 POP SWAP2 SWAP1 POP JUMP JUMPDEST PUSH1 0x0 PUSH2 0x1F97 PUSH1 0x18 DUP4 PUSH2 0x2322 JUMP JUMPDEST SWAP2 POP PUSH2 0x1FA2 DUP3 PUSH2 0x2900 JUMP JUMPDEST PUSH1 0x20 DUP3 ADD SWAP1 POP SWAP2 SWAP1 POP JUMP JUMPDEST PUSH1 0x0 PUSH2 0x1FBA PUSH1 0x21 DUP4 PUSH2 0x2322 JUMP JUMPDEST SWAP2 POP PUSH2 0x1FC5 DUP3 PUSH2 0x2929 JUMP JUMPDEST PUSH1 0x40 DUP3 ADD SWAP1 POP SWAP2 SWAP1 POP JUMP JUMPDEST PUSH1 0x0 PUSH2 0x1FDD PUSH1 0x2E DUP4 PUSH2 0x2322 JUMP JUMPDEST SWAP2 POP PUSH2 0x1FE8 DUP3 PUSH2 0x2978 JUMP JUMPDEST PUSH1 0x40 DUP3 ADD SWAP1 POP SWAP2 SWAP1 POP JUMP JUMPDEST PUSH2 0x1FFC DUP2 PUSH2 0x2463 JUMP JUMPDEST DUP3 MSTORE POP POP JUMP JUMPDEST PUSH1 0x0 PUSH2 0x200E DUP3 DUP6 PUSH2 0x1DD8 JUMP JUMPDEST SWAP2 POP PUSH2 0x201A DUP3 DUP5 PUSH2 0x1DD8 JUMP JUMPDEST SWAP2 POP DUP2 SWAP1 POP SWAP4 SWAP3 POP POP POP JUMP JUMPDEST PUSH1 0x0 PUSH1 0x20 DUP3 ADD SWAP1 POP PUSH2 0x203B PUSH1 0x0 DUP4 ADD DUP5 PUSH2 0x1D48 JUMP JUMPDEST SWAP3 SWAP2 POP POP JUMP JUMPDEST PUSH1 0x0 PUSH1 0x80 DUP3 ADD SWAP1 POP PUSH2 0x2056 PUSH1 0x0 DUP4 ADD DUP8 PUSH2 0x1D48 JUMP JUMPDEST PUSH2 0x2063 PUSH1 0x20 DUP4 ADD DUP7 PUSH2 0x1D48 JUMP JUMPDEST PUSH2 0x2070 PUSH1 0x40 DUP4 ADD DUP6 PUSH2 0x1FF3 JUMP JUMPDEST DUP2 DUP2 SUB PUSH1 0x60 DUP4 ADD MSTORE PUSH2 0x2082 DUP2 DUP5 PUSH2 0x1D66 JUMP JUMPDEST SWAP1 POP SWAP6 SWAP5 POP POP POP POP POP JUMP JUMPDEST PUSH1 0x0 PUSH1 0x20 DUP3 ADD SWAP1 POP PUSH2 0x20A2 PUSH1 0x0 DUP4 ADD DUP5 PUSH2 0x1D57 JUMP JUMPDEST SWAP3 SWAP2 POP POP JUMP JUMPDEST PUSH1 0x0 PUSH1 0x20 DUP3 ADD SWAP1 POP DUP2 DUP2 SUB PUSH1 0x0 DUP4 ADD MSTORE PUSH2 0x20C2 DUP2 DUP5 PUSH2 0x1D9F JUMP JUMPDEST SWAP1 POP SWAP3 SWAP2 POP POP JUMP JUMPDEST PUSH1 0x0 PUSH1 0x20 DUP3 ADD SWAP1 POP DUP2 DUP2 SUB PUSH1 0x0 DUP4 ADD MSTORE PUSH2 0x20E3 DUP2 PUSH2 0x1E09 JUMP JUMPDEST SWAP1 POP SWAP2 SWAP1 POP JUMP JUMPDEST PUSH1 0x0 PUSH1 0x20 DUP3 ADD SWAP1 POP DUP2 DUP2 SUB PUSH1 0x0 DUP4 ADD MSTORE PUSH2 0x2103 DUP2 PUSH2 0x1E2C JUMP JUMPDEST SWAP1 POP SWAP2 SWAP1 POP JUMP JUMPDEST PUSH1 0x0 PUSH1 0x20 DUP3 ADD SWAP1 POP DUP2 DUP2 SUB PUSH1 0x0 DUP4 ADD MSTORE PUSH2 0x2123 DUP2 PUSH2 0x1E4F JUMP JUMPDEST SWAP1 POP SWAP2 SWAP1 POP JUMP JUMPDEST PUSH1 0x0 PUSH1 0x20 DUP3 ADD SWAP1 POP DUP2 DUP2 SUB PUSH1 0x0 DUP4 ADD MSTORE PUSH2 0x2143 DUP2 PUSH2 0x1E72 JUMP JUMPDEST SWAP1 POP SWAP2 SWAP1 POP JUMP JUMPDEST PUSH1 0x0 PUSH1 0x20 DUP3 ADD SWAP1 POP DUP2 DUP2 SUB PUSH1 0x0 DUP4 ADD MSTORE PUSH2 0x2163 DUP2 PUSH2 0x1E95 JUMP JUMPDEST SWAP1 POP SWAP2 SWAP1 POP JUMP JUMPDEST PUSH1 0x0 PUSH1 0x20 DUP3 ADD SWAP1 POP DUP2 DUP2 SUB PUSH1 0x0 DUP4 ADD MSTORE PUSH2 0x2183 DUP2 PUSH2 0x1EB8 JUMP JUMPDEST SWAP1 POP SWAP2 SWAP1 POP JUMP JUMPDEST PUSH1 0x0 PUSH1 0x20 DUP3 ADD SWAP1 POP DUP2 DUP2 SUB PUSH1 0x0 DUP4 ADD MSTORE PUSH2 0x21A3 DUP2 PUSH2 0x1EDB JUMP JUMPDEST SWAP1 POP SWAP2 SWAP1 POP JUMP JUMPDEST PUSH1 0x0 PUSH1 0x20 DUP3 ADD SWAP1 POP DUP2 DUP2 SUB PUSH1 0x0 DUP4 ADD MSTORE PUSH2 0x21C3 DUP2 PUSH2 0x1EFE JUMP JUMPDEST SWAP1 POP SWAP2 SWAP1 POP JUMP JUMPDEST PUSH1 0x0 PUSH1 0x20 DUP3 ADD SWAP1 POP DUP2 DUP2 SUB PUSH1 0x0 DUP4 ADD MSTORE PUSH2 0x21E3 DUP2 PUSH2 0x1F21 JUMP JUMPDEST SWAP1 POP SWAP2 SWAP1 POP JUMP JUMPDEST PUSH1 0x0 PUSH1 0x20 DUP3 ADD SWAP1 POP DUP2 DUP2 SUB PUSH1 0x0 DUP4 ADD MSTORE PUSH2 0x2203 DUP2 PUSH2 0x1F44 JUMP JUMPDEST SWAP1 POP SWAP2 SWAP1 POP JUMP JUMPDEST PUSH1 0x0 PUSH1 0x20 DUP3 ADD SWAP1 POP DUP2 DUP2 SUB PUSH1 0x0 DUP4 ADD MSTORE PUSH2 0x2223 DUP2 PUSH2 0x1F67 JUMP JUMPDEST SWAP1 POP SWAP2 SWAP1 POP JUMP JUMPDEST PUSH1 0x0 PUSH1 0x20 DUP3 ADD SWAP1 POP DUP2 DUP2 SUB PUSH1 0x0 DUP4 ADD MSTORE PUSH2 0x2243 DUP2 PUSH2 0x1F8A JUMP JUMPDEST SWAP1 POP SWAP2 SWAP1 POP JUMP JUMPDEST PUSH1 0x0 PUSH1 0x20 DUP3 ADD SWAP1 POP DUP2 DUP2 SUB PUSH1 0x0 DUP4 ADD MSTORE PUSH2 0x2263 DUP2 PUSH2 0x1FAD JUMP JUMPDEST SWAP1 POP SWAP2 SWAP1 POP JUMP JUMPDEST PUSH1 0x0 PUSH1 0x20 DUP3 ADD SWAP1 POP DUP2 DUP2 SUB PUSH1 0x0 DUP4 ADD MSTORE PUSH2 0x2283 DUP2 PUSH2 0x1FD0 JUMP JUMPDEST SWAP1 POP SWAP2 SWAP1 POP JUMP JUMPDEST PUSH1 0x0 PUSH1 0x20 DUP3 ADD SWAP1 POP PUSH2 0x229F PUSH1 0x0 DUP4 ADD DUP5 PUSH2 0x1FF3 JUMP JUMPDEST SWAP3 SWAP2 POP POP JUMP JUMPDEST PUSH1 0x0 PUSH2 0x22AF PUSH2 0x22C0 JUMP JUMPDEST SWAP1 POP PUSH2 0x22BB DUP3 DUP3 PUSH2 0x24E1 JUMP JUMPDEST SWAP2 SWAP1 POP JUMP JUMPDEST PUSH1 0x0 PUSH1 0x40 MLOAD SWAP1 POP SWAP1 JUMP JUMPDEST PUSH1 0x0 PUSH8 0xFFFFFFFFFFFFFFFF DUP3 GT ISZERO PUSH2 0x22E5 JUMPI PUSH2 0x22E4 PUSH2 0x2619 JUMP JUMPDEST JUMPDEST PUSH2 0x22EE DUP3 PUSH2 0x2648 JUMP JUMPDEST SWAP1 POP PUSH1 0x20 DUP2 ADD SWAP1 POP SWAP2 SWAP1 POP JUMP JUMPDEST PUSH1 0x0 DUP2 MLOAD SWAP1 POP SWAP2 SWAP1 POP JUMP JUMPDEST PUSH1 0x0 DUP2 MLOAD SWAP1 POP SWAP2 SWAP1 POP JUMP JUMPDEST PUSH1 0x0 DUP3 DUP3 MSTORE PUSH1 0x20 DUP3 ADD SWAP1 POP SWAP3 SWAP2 POP POP JUMP JUMPDEST PUSH1 0x0 DUP3 DUP3 MSTORE PUSH1 0x20 DUP3 ADD SWAP1 POP SWAP3 SWAP2 POP POP JUMP JUMPDEST PUSH1 0x0 DUP2 SWAP1 POP SWAP3 SWAP2 POP POP JUMP JUMPDEST PUSH1 0x0 PUSH2 0x2349 DUP3 PUSH2 0x2463 JUMP JUMPDEST SWAP2 POP PUSH2 0x2354 DUP4 PUSH2 0x2463 JUMP JUMPDEST SWAP3 POP DUP3 PUSH32 0xFFFFFFFFFFFFFFFFFFFFFFFFFFFFFFFFFFFFFFFFFFFFFFFFFFFFFFFFFFFFFFFF SUB DUP3 GT ISZERO PUSH2 0x2389 JUMPI PUSH2 0x2388 PUSH2 0x258C JUMP JUMPDEST JUMPDEST DUP3 DUP3 ADD SWAP1 POP SWAP3 SWAP2 POP POP JUMP JUMPDEST PUSH1 0x0 PUSH2 0x239F DUP3 PUSH2 0x2463 JUMP JUMPDEST SWAP2 POP PUSH2 0x23AA DUP4 PUSH2 0x2463 JUMP JUMPDEST SWAP3 POP DUP3 PUSH2 0x23BA JUMPI PUSH2 0x23B9 PUSH2 0x25BB JUMP JUMPDEST JUMPDEST DUP3 DUP3 DIV SWAP1 POP SWAP3 SWAP2 POP POP JUMP JUMPDEST PUSH1 0x0 PUSH2 0x23D0 DUP3 PUSH2 0x2463 JUMP JUMPDEST SWAP2 POP PUSH2 0x23DB DUP4 PUSH2 0x2463 JUMP JUMPDEST SWAP3 POP DUP3 DUP3 LT ISZERO PUSH2 0x23EE JUMPI PUSH2 0x23ED PUSH2 0x258C JUMP JUMPDEST JUMPDEST DUP3 DUP3 SUB SWAP1 POP SWAP3 SWAP2 POP POP JUMP JUMPDEST PUSH1 0x0 PUSH2 0x2404 DUP3 PUSH2 0x2443 JUMP JUMPDEST SWAP1 POP SWAP2 SWAP1 POP JUMP JUMPDEST PUSH1 0x0 DUP2 ISZERO ISZERO SWAP1 POP SWAP2 SWAP1 POP JUMP JUMPDEST PUSH1 0x0 PUSH32 0xFFFFFFFF00000000000000000000000000000000000000000000000000000000 DUP3 AND SWAP1 POP SWAP2 SWAP1 POP JUMP JUMPDEST PUSH1 0x0 PUSH20 0xFFFFFFFFFFFFFFFFFFFFFFFFFFFFFFFFFFFFFFFF DUP3 AND SWAP1 POP SWAP2 SWAP1 POP JUMP JUMPDEST PUSH1 0x0 DUP2 SWAP1 POP SWAP2 SWAP1 POP JUMP JUMPDEST DUP3 DUP2 DUP4 CALLDATACOPY PUSH1 0x0 DUP4 DUP4 ADD MSTORE POP POP POP JUMP JUMPDEST PUSH1 0x0 JUMPDEST DUP4 DUP2 LT ISZERO PUSH2 0x249A JUMPI DUP1 DUP3 ADD MLOAD DUP2 DUP5 ADD MSTORE PUSH1 0x20 DUP2 ADD SWAP1 POP PUSH2 0x247F JUMP JUMPDEST DUP4 DUP2 GT ISZERO PUSH2 0x24A9 JUMPI PUSH1 0x0 DUP5 DUP5 ADD MSTORE JUMPDEST POP POP POP POP JUMP JUMPDEST PUSH1 0x0 PUSH1 0x2 DUP3 DIV SWAP1 POP PUSH1 0x1 DUP3 AND DUP1 PUSH2 0x24C7 JUMPI PUSH1 0x7F DUP3 AND SWAP2 POP JUMPDEST PUSH1 0x20 DUP3 LT DUP2 EQ ISZERO PUSH2 0x24DB JUMPI PUSH2 0x24DA PUSH2 0x25EA JUMP JUMPDEST JUMPDEST POP SWAP2 SWAP1 POP JUMP JUMPDEST PUSH2 0x24EA DUP3 PUSH2 0x2648 JUMP JUMPDEST DUP2 ADD DUP2 DUP2 LT PUSH8 0xFFFFFFFFFFFFFFFF DUP3 GT OR ISZERO PUSH2 0x2509 JUMPI PUSH2 0x2508 PUSH2 0x2619 JUMP JUMPDEST JUMPDEST DUP1 PUSH1 0x40 MSTORE POP POP POP JUMP JUMPDEST PUSH1 0x0 PUSH2 0x251D DUP3 PUSH2 0x2463 JUMP JUMPDEST SWAP2 POP PUSH32 0xFFFFFFFFFFFFFFFFFFFFFFFFFFFFFFFFFFFFFFFFFFFFFFFFFFFFFFFFFFFFFFFF DUP3 EQ ISZERO PUSH2 0x2550 JUMPI PUSH2 0x254F PUSH2 0x258C JUMP JUMPDEST JUMPDEST PUSH1 0x1 DUP3 ADD SWAP1 POP SWAP2 SWAP1 POP JUMP JUMPDEST PUSH1 0x0 PUSH2 0x2566 DUP3 PUSH2 0x2463 JUMP JUMPDEST SWAP2 POP PUSH2 0x2571 DUP4 PUSH2 0x2463 JUMP JUMPDEST SWAP3 POP DUP3 PUSH2 0x2581 JUMPI PUSH2 0x2580 PUSH2 0x25BB JUMP JUMPDEST JUMPDEST DUP3 DUP3 MOD SWAP1 POP SWAP3 SWAP2 POP POP JUMP JUMPDEST PUSH32 0x4E487B7100000000000000000000000000000000000000000000000000000000 PUSH1 0x0 MSTORE PUSH1 0x11 PUSH1 0x4 MSTORE PUSH1 0x24 PUSH1 0x0 REVERT JUMPDEST PUSH32 0x4E487B7100000000000000000000000000000000000000000000000000000000 PUSH1 0x0 MSTORE PUSH1 0x12 PUSH1 0x4 MSTORE PUSH1 0x24 PUSH1 0x0 REVERT JUMPDEST PUSH32 0x4E487B7100000000000000000000000000000000000000000000000000000000 PUSH1 0x0 MSTORE PUSH1 0x22 PUSH1 0x4 MSTORE PUSH1 0x24 PUSH1 0x0 REVERT JUMPDEST PUSH32 0x4E487B7100000000000000000000000000000000000000000000000000000000 PUSH1 0x0 MSTORE PUSH1 0x41 PUSH1 0x4 MSTORE PUSH1 0x24 PUSH1 0x0 REVERT JUMPDEST PUSH1 0x0 PUSH1 0x1F NOT PUSH1 0x1F DUP4 ADD AND SWAP1 POP SWAP2 SWAP1 POP JUMP JUMPDEST PUSH32 0x4552433732313A207472616E7366657220746F206E6F6E204552433732315265 PUSH1 0x0 DUP3 ADD MSTORE PUSH32 0x63656976657220696D706C656D656E7465720000000000000000000000000000 PUSH1 0x20 DUP3 ADD MSTORE POP JUMP JUMPDEST PUSH32 0x4F776E61626C653A206E6577206F776E657220697320746865207A65726F2061 PUSH1 0x0 DUP3 ADD MSTORE PUSH32 0x6464726573730000000000000000000000000000000000000000000000000000 PUSH1 0x20 DUP3 ADD MSTORE POP JUMP JUMPDEST PUSH32 0x4552433732313A207472616E736665722066726F6D20696E636F727265637420 PUSH1 0x0 DUP3 ADD MSTORE PUSH32 0x6F776E6572000000000000000000000000000000000000000000000000000000 PUSH1 0x20 DUP3 ADD MSTORE POP JUMP JUMPDEST PUSH32 0x4552433732313A20746F6B656E20616C7265616479206D696E74656400000000 PUSH1 0x0 DUP3 ADD MSTORE POP JUMP JUMPDEST PUSH32 0x4552433732313A207472616E7366657220746F20746865207A65726F20616464 PUSH1 0x0 DUP3 ADD MSTORE PUSH32 0x7265737300000000000000000000000000000000000000000000000000000000 PUSH1 0x20 DUP3 ADD MSTORE POP JUMP JUMPDEST PUSH32 0x4552433732313A20617070726F766520746F2063616C6C657200000000000000 PUSH1 0x0 DUP3 ADD MSTORE POP JUMP JUMPDEST PUSH32 0x4552433732313A2061646472657373207A65726F206973206E6F742061207661 PUSH1 0x0 DUP3 ADD MSTORE PUSH32 0x6C6964206F776E65720000000000000000000000000000000000000000000000 PUSH1 0x20 DUP3 ADD MSTORE POP JUMP JUMPDEST PUSH32 0x4552433732313A20617070726F76652063616C6C6572206973206E6F7420746F PUSH1 0x0 DUP3 ADD MSTORE PUSH32 0x6B656E206F776E6572206E6F7220617070726F76656420666F7220616C6C0000 PUSH1 0x20 DUP3 ADD MSTORE POP JUMP JUMPDEST PUSH32 0x4552433732313A206D696E7420746F20746865207A65726F2061646472657373 PUSH1 0x0 DUP3 ADD MSTORE POP JUMP JUMPDEST PUSH32 0x4F776E61626C653A2063616C6C6572206973206E6F7420746865206F776E6572 PUSH1 0x0 DUP3 ADD MSTORE POP JUMP JUMPDEST PUSH32 0x4E6F7420656E6F756768204554482073656E7400000000000000000000000000 PUSH1 0x0 DUP3 ADD MSTORE POP JUMP JUMPDEST PUSH32 0x4552433732313A20696E76616C696420746F6B656E2049440000000000000000 PUSH1 0x0 DUP3 ADD MSTORE POP JUMP JUMPDEST PUSH32 0x4552433732313A20617070726F76616C20746F2063757272656E74206F776E65 PUSH1 0x0 DUP3 ADD MSTORE PUSH32 0x7200000000000000000000000000000000000000000000000000000000000000 PUSH1 0x20 DUP3 ADD MSTORE POP JUMP JUMPDEST PUSH32 0x4552433732313A2063616C6C6572206973206E6F7420746F6B656E206F776E65 PUSH1 0x0 DUP3 ADD MSTORE PUSH32 0x72206E6F7220617070726F766564000000000000000000000000000000000000 PUSH1 0x20 DUP3 ADD MSTORE POP JUMP JUMPDEST PUSH2 0x29D0 DUP2 PUSH2 0x23F9 JUMP JUMPDEST DUP2 EQ PUSH2 0x29DB JUMPI PUSH1 0x0 DUP1 REVERT JUMPDEST POP JUMP JUMPDEST PUSH2 0x29E7 DUP2 PUSH2 0x240B JUMP JUMPDEST DUP2 EQ PUSH2 0x29F2 JUMPI PUSH1 0x0 DUP1 REVERT JUMPDEST POP JUMP JUMPDEST PUSH2 0x29FE DUP2 PUSH2 0x2417 JUMP JUMPDEST DUP2 EQ PUSH2 0x2A09 JUMPI PUSH1 0x0 DUP1 REVERT JUMPDEST POP JUMP JUMPDEST PUSH2 0x2A15 DUP2 PUSH2 0x2463 JUMP JUMPDEST DUP2 EQ PUSH2 0x2A20 JUMPI PUSH1 0x0 DUP1 REVERT JUMPDEST POP JUMP INVALID LOG2 PUSH5 0x6970667358 0x22 SLT KECCAK256 0xD9 PUSH9 0xB2F37FE22BE5456D4E 0xEF SIGNEXTEND SWAP15 0xCE CALLDATALOAD MSIZE 0xB9 EQ 0xCF 0xCC 0xEF 0xCB 0xB4 0xB5 0x5E LOG0 0x23 0xCD SWAP16 CALLDATALOAD STOP PUSH5 0x736F6C6343 STOP ADDMOD DIV STOP CALLER "
				},
				"gasEstimates": {
					"creation": {
						"codeDepositCost": "2168200",
						"executionCost": "infinite",
						"totalCost": "infinite"
					},
					"external": {
						"MINT_PRICE()": "1173",
						"approve(address,uint256)": "infinite",
						"balanceOf(address)": "1690",
						"getApproved(uint256)": "2657",
						"isApprovedForAll(address,address)": "infinite",
						"name()": "infinite",
						"owner()": "1267",
						"ownerOf(uint256)": "1748",
						"renounceOwnership()": "24421",
						"safeMint(address)": "infinite",
						"safeTransferFrom(address,address,uint256)": "infinite",
						"safeTransferFrom(address,address,uint256,bytes)": "infinite",
						"setApprovalForAll(address,bool)": "infinite",
						"supportsInterface(bytes4)": "797",
						"symbol()": "infinite",
						"tokenURI(uint256)": "infinite",
						"transferFrom(address,address,uint256)": "infinite",
						"transferOwnership(address)": "24857"
					},
					"internal": {
						"_baseURI()": "infinite"
					}
				},
				"methodIdentifiers": {
					"MINT_PRICE()": "c002d23d",
					"approve(address,uint256)": "095ea7b3",
					"balanceOf(address)": "70a08231",
					"getApproved(uint256)": "081812fc",
					"isApprovedForAll(address,address)": "e985e9c5",
					"name()": "06fdde03",
					"owner()": "8da5cb5b",
					"ownerOf(uint256)": "6352211e",
					"renounceOwnership()": "715018a6",
					"safeMint(address)": "40d097c3",
					"safeTransferFrom(address,address,uint256)": "42842e0e",
					"safeTransferFrom(address,address,uint256,bytes)": "b88d4fde",
					"setApprovalForAll(address,bool)": "a22cb465",
					"supportsInterface(bytes4)": "01ffc9a7",
					"symbol()": "95d89b41",
					"tokenURI(uint256)": "c87b56dd",
					"transferFrom(address,address,uint256)": "23b872dd",
					"transferOwnership(address)": "f2fde38b"
				}
			},
			"storageLayout": {
				"storage": [
					{
						"astId": 138,
						"contract": "DiplomaToken.sol:DiplomaToken",
						"label": "_name",
						"offset": 0,
						"slot": "0",
						"type": "t_string_storage"
					},
					{
						"astId": 140,
						"contract": "DiplomaToken.sol:DiplomaToken",
						"label": "_symbol",
						"offset": 0,
						"slot": "1",
						"type": "t_string_storage"
					},
					{
						"astId": 144,
						"contract": "DiplomaToken.sol:DiplomaToken",
						"label": "_owners",
						"offset": 0,
						"slot": "2",
						"type": "t_mapping(t_uint256,t_address)"
					},
					{
						"astId": 148,
						"contract": "DiplomaToken.sol:DiplomaToken",
						"label": "_balances",
						"offset": 0,
						"slot": "3",
						"type": "t_mapping(t_address,t_uint256)"
					},
					{
						"astId": 152,
						"contract": "DiplomaToken.sol:DiplomaToken",
						"label": "_tokenApprovals",
						"offset": 0,
						"slot": "4",
						"type": "t_mapping(t_uint256,t_address)"
					},
					{
						"astId": 158,
						"contract": "DiplomaToken.sol:DiplomaToken",
						"label": "_operatorApprovals",
						"offset": 0,
						"slot": "5",
						"type": "t_mapping(t_address,t_mapping(t_address,t_bool))"
					},
					{
						"astId": 7,
						"contract": "DiplomaToken.sol:DiplomaToken",
						"label": "_owner",
						"offset": 0,
						"slot": "6",
						"type": "t_address"
					},
					{
						"astId": 1809,
						"contract": "DiplomaToken.sol:DiplomaToken",
						"label": "MINT_PRICE",
						"offset": 0,
						"slot": "7",
						"type": "t_uint256"
					},
					{
						"astId": 1812,
						"contract": "DiplomaToken.sol:DiplomaToken",
						"label": "_tokenIdCounter",
						"offset": 0,
						"slot": "8",
						"type": "t_struct(Counter)1463_storage"
					}
				],
				"types": {
					"t_address": {
						"encoding": "inplace",
						"label": "address",
						"numberOfBytes": "20"
					},
					"t_bool": {
						"encoding": "inplace",
						"label": "bool",
						"numberOfBytes": "1"
					},
					"t_mapping(t_address,t_bool)": {
						"encoding": "mapping",
						"key": "t_address",
						"label": "mapping(address => bool)",
						"numberOfBytes": "32",
						"value": "t_bool"
					},
					"t_mapping(t_address,t_mapping(t_address,t_bool))": {
						"encoding": "mapping",
						"key": "t_address",
						"label": "mapping(address => mapping(address => bool))",
						"numberOfBytes": "32",
						"value": "t_mapping(t_address,t_bool)"
					},
					"t_mapping(t_address,t_uint256)": {
						"encoding": "mapping",
						"key": "t_address",
						"label": "mapping(address => uint256)",
						"numberOfBytes": "32",
						"value": "t_uint256"
					},
					"t_mapping(t_uint256,t_address)": {
						"encoding": "mapping",
						"key": "t_uint256",
						"label": "mapping(uint256 => address)",
						"numberOfBytes": "32",
						"value": "t_address"
					},
					"t_string_storage": {
						"encoding": "bytes",
						"label": "string",
						"numberOfBytes": "32"
					},
					"t_struct(Counter)1463_storage": {
						"encoding": "inplace",
						"label": "struct Counters.Counter",
						"members": [
							{
								"astId": 1462,
								"contract": "DiplomaToken.sol:DiplomaToken",
								"label": "_value",
								"offset": 0,
								"slot": "0",
								"type": "t_uint256"
							}
						],
						"numberOfBytes": "32"
					},
					"t_uint256": {
						"encoding": "inplace",
						"label": "uint256",
						"numberOfBytes": "32"
					}
				}
			},
			"userdoc": {
				"kind": "user",
				"methods": {},
				"version": 1
			}
		}
	}
}